:020000040000fa
:10000000f07f0020452500000b2000001f2a000083
:1000100000000000000000000000000000000000e0
:10002000000000000000000000000000a31c000011
:100030000000000000000000a31c0000a31c000042
:10004000a31c0000a31c0000a31c0000a31c0000b4
:10005000a31c0000a31c0000a31c0000a31c0000a4
:10006000a31c0000cd0f0000a31c0000a31c000077
:10007000a31c0000a31c0000a31c0000a31c000084
:10008000952b0000a31c0000a31c0000a31c000073
:10009000a31c0000a31c0000a31c0000a31c000064
:0400a000a31c00009d
:020000040000fa
:1000a400f8b5c046f8bc08bc9e467047252500003c
:1000b400f8b5c046f8bc08bc9e467047fd24000055
:020000040000fa
:0800c4007417000001000000a8
:020000040000fa
:1000cc000000000000000000000000000000002004
:1000dc0000200020002000200000002000500050d4
:1000ec00005000000000000000000050005000f81c
:1000fc00005000f8005000500020007800a0007064
:10010c00002800f0002000c000c8001000200040b3
:10011c0000980018004000a000a0004000a800902b
:10012c00006800300030002000400000000000009b
:10013c000010002000400040004000200010004053
:10014c00002000100010001000200040006000f0a3
:10015c0000f000f000f000f000f0000000200020a3
:10016c0000f800200020000000000000000000004b
:10017c0000300030002000000000000000f0000003
:10018c000000000000000000000000000000003033
:10019c00003000000008001000200040008000002b
:1001ac0000600090009000b000d000900060002033
:1001bc000060002000200020002000f00060009073
:1001cc00001000600080008000f000f000100020a3
:1001dc0000600010009000600020006000a000a0f3
:1001ec0000f0002000200070008000e000100010e3
:1001fc000090006000600090008000e00090009093
:10020c00006000f0001000100020002000400040b2
:10021c000060009000900060009000900060006012
:10022c0000900090007000100010006000000000b2
:10023c000020000000200000000000000000002052
:10024c0000000020002000400008001000200040aa
:10025c000020001000080000000000f8000000f86a
:10026c0000000000004000200010000800100020da
:10027c0000400070008800080030002000000020c2
:10028c000070008800a800b800b000800078006002
:10029c0000900090009000f00090009000e0009022
:1002ac00009000e00090009000e000600090008062
:1002bc00008000800090006000e0009000900090b2
:1002cc000090009000e000f00080008000e00080d2
:1002dc00008000f000f00080008000e000800080d2
:1002ec00008000700080008000b0009000900070d2
:1002fc0000900090009000f000900090009000f0b2
:10030c000040004000400040004000f00010001091
:10031c00001000100010009000600090009000a0f1
:10032c0000c000a000900090008000800080008041
:10033c000080008000f000f000a800a800a800a831
:10034c0000a800a800e000900090009000900090a1
:10035c000090006000900090009000900090006071
:10036c0000e00090009000e00080008000800060c1
:10037c00009000900090009000b0007000e00090a1
:10038c00009000e0009000900090007000800080d1
:10039c0000600010001000e000f000400040004041
:1003ac0000400040004000900090009000900090b1
:1003bc00009000f000900090009000900090009051
:1003cc00006000af00af00af00af00af00af007037
:1003dc0000900090009000600090009000900090c1
:1003ec000090009000700010001000e000f0001071
:1003fc00001000600080008000f000780040004099
:10040c0000400040004000780000008000400020c8
:10041c000010000800000078000800080008000820
:10042c000008007800200050008800000000000048
:10043c00000000000000000000000000000000f8b8
:10044c0000600060002000100000000000000000b0
:10045c0000000060001000700090007800800080a8
:10046c0000b000c8008800c800b000000000007098
:10047c000088008000880070000800080068009860
:10048c00008800980068000000000070008800f8e8
:10049c000080007000100028002000700020002058
:1004ac000020000000000070009800980068000810
:1004bc000080008000b000c8008800880088002000
:1004cc0000000060002000200020007000100000e0
:1004dc000010001000100090006000800080009060
:1004ec0000a000c000a000900060002000200020b0
:1004fc000020002000700000000000d000a800a820
:10050c0000a800a80000000000b000c80088008807
:10051c0000880000000000700088008800880070cf
:10052c000000000000b000c800c800b0008000004f
:10053c0000000068009800980068000800000000a7
:10054c0000b000c80080008000800000000000782f
:10055c0000800070000800f00020002000f800204f
:10056c00002000280010000000000088008800888f
:10057c000098006800000000008800880088005087
:10058c000020000000000088008800a800a800508f
:10059c00000000000088005000200050008800007f
:1005ac000000008800880078000800880000000027
:1005bc0000f800100020004000f80010002000207f
:1005cc00004000200020001000200020002000002f
:1005dc0000200020002000400020002000100020ff
:1005ec0000200040004000a80010000000000000a7
:0405fc000000c046f5
:020000040000fa
:10060000940900201c0000000000000048090020a0
:100610002c000000000000002c0a00200800000050
:1006200000000000640a0020040000000000000038
:10063000680a002004000000000000006c0a00208e
:100640000400000000000000180600200002000066
:10065000000000004c0a002006000000000000001e
:10066000070a002001000000000000009c0a002092
:100670000200000000000000130a0020010000003a
:1006800000000000700a00200400000000000000cc
:10069000e00900200e000000010000004142434438
:1006a00045464748494a4b4c4d000000fc09002094
:1006b0000b000000010000004e4f505152535455a2
:1006c00056570000980a00200300000001000000b7
:1006d00058590000340a0020080000000100000002
:1006e00005070000cc000000540a002006000000ae
:1006f000010000002a2d347c35000000080a00208b
:100700000b00000001000000434154482d37307cad
:1007100039390000940a00200200000001000000a6
:100720004d000000740a00200400000001000000d9
:10073000454e5500780a002004000000010000002a
:1007400049145e1cf00900200c00000001000000ac
:100750005a30313233343536373839003c0a0020cc
:100760000800000001000000504f442d347c35008b
:10077000200a00200900000001000000504f5745ea
:100780005220555000000000b00900201600000063
:1007900001000000524550524f4345535345442dec
:1007a000387c32397c32303232000000140a0020aa
:1007b0000a0000000100000052554e204359434cee
:1007c000450000007c0a0020040000000100000039
:1007d0001314401cc809002016000000010000008e
:1007e0005354415455533a2053595354454d204383
:1007f0004845434b530000005c0a00200500000000
:1008000001000000393a3330000000009b0a00204c
:10081000010000000100000002000000900a00201a
:10082000020000000100000040000000800a0020db
:100830000400000000000000f80800205000000044
:1008400000000000180800207800000001000000ef
:1008500028080020200800202808002000000000b0
:100860000000000025000000080000200004000037
:100870000000000000000000000000000000000078
:100880000000000000000000000000000000000068
:10089000fd2e00000000000000000000000000002d
:1008a00000000000dd20000000000000000000004b
:1008b0000000000000000000000000000000000038
:1008c00000000000000000000000002008040000fc
:1008d000000000007409002020000000010000005a
:1008e0000100000003000000000000000000000004
:1008f000000000000000000000000000440a00208a
:10090000440a00200800000000000000840a0020c3
:100910000400000000000000880a0020040000001d
:100920000000000008040020100200000000000089
:100930009008002068000000010000000100000095
:1009400003000000000000000000000000000000a4
:100950000000000000000000412100000000000035
:100960000000000000000000d92e0000e72d00006c
:100970000000000000000000000000000000000077
:100980000000000000000000000000000000000067
:100990000000000000000000000000000000000057
:1009a000000000008c0a002004000000000000008d
:1009b0000000000000000000222222222222222227
:020000040000fa
:1009c0000023f0b506001500afb00591019305991d
:1009d0000b78002b00d10fe101235b420a930eab91
:1009e00000240c93802309940b940d930b5d002b32
:1009f00001d0252b2ad1002c06d02200300001f096
:100a00005dff059b1b190593059b1a78252a00d0cd
:100a1000e7e0013302930593022310219c46082747
:100a2000059803782b2b1bd025d8202b1bd0232bec
:100a30001dd02a2b2ad001f02ffe0b90059b1a788f
:100a4000303a092a33d801330593f7e70134cde76b
:100a50000122099b80180393134309930590dfe754
:100a60000423099a0ee0099b03933b430be0099b87
:100a700003930b4307e02d2bead0302bd9d16246ec
:100a8000099b0393134309930130e7e72b68013077
:100a90001a1d1b6805902a600b93002b07da099a30
:100aa0005b420392012203990b934a400992099bee
:100ab000da0702d5022293430993059b1a782e2a5e
:100ac0000ed10022581c0a9205905a782a2a28d161
:100ad000023305932b681a1d1b682a6003930a933f
:100ae00005a801f03bff059b0700187802f0d4f938
:100af000692800d183e035dc632800d1d6e01bdc17
:100b0000252800d1dfe0612859d0252306aa1370db
:100b1000029b0593002309930b93013b0a93023335
:100b2000b2e001f0b9fd0a90059b1a78303a092a23
:100b3000d6d801330593f7e7642860d06728e4dc52
:100b40002a00390006a801f097ff002800d1a9e08b
:100b5000059b09a95a1c05921b7806aa300002f0d1
:100b6000d0f93de0702800d17de016dc6e2800d180
:100b700091e06f28c9d12b000022390006a800f0af
:100b8000f6ff002800d18de0059b06aa013309a9d4
:100b90003000059301f002fa22e0752840d0782851
:100ba0004fd07328b1d1802f00d07be0059b2a68fd
:100bb00001330593131d2b601268002364e02a00a3
:100bc000390006a801f058ff002800d16ae0059b13
:100bd00009a95a1c05921b7806aa300002f091f967
:100be0002418019b1c19a34200dc74e04f223b4bec
:100bf0001a6001235b42019301982fb0f0bd2b00d6
:100c00000122390006a800f0b2ff00284ad0059b57
:100c100006aa013309a93000059300f04fffdfe772
:100c20002b000022390006a800f0a1ff002839d0cf
:100c3000059b06aa013309a93000059301f091fb39
:100c4000cee72b000022390006a800f090ff002814
:100c500028d0059b5a1c05921b7806aa09a93000ca
:100c600000f0d2fcbce72b000022f02106a800f027
:100c70007eff002816d0059b079a01330593069b3b
:100c8000134306d1164a163209a9300001f0befb03
:100c9000a6e77823e1e7019b39001a1906a82b0083
:100ca00001f0e8f9059b013305939ae7802ff9d10c
:100cb000059b013305932b681a1d1b682a6006aa41
:100cc00013700123e0e7802fecd1059b06aa0133c6
:100cd00005931070f5e7019479e6c046880a002074
:040ce000a02c000044
:020000040000fa
:100ce40070b582b0062820d88000a44b1b589f46bc
:100cf400a34c25002135207802f088f80134ac4259
:100d0400f9d10321002001f0f1ff8321042001f037
:100d1400faff002002f083f89a4b00221a80013275
:100d24005a8002f017f801f0e3fe02b070bd03210f
:100d3400002001f0dbff8321042001f0e4ff002008
:100d440002f06df88f4b00221a8001325a8002f0b3
:100d540001f801f0cdfee8e70321002001f0c6ff11
:100d64008321042001f0cfff002002f058f801f0a5
:100d7400f1ff844b00221a800a325a8000218248f3
:100d840001f03cff01f0b4fecfe70321002001f0a5
:100d9400adff8321042001f0b6ff002002f03ff8ec
:100da400784c00252580658001f0d4ff0021774828
:100db40001f024ff4223238065800021744801f060
:100dc4001dff7523238065800021724801f016ff02
:100dd40025800923638000216f4801f00fff01f093
:100de40087fea2e70321002001f080ff8321042075
:100df40001f089ff002002f012f801f0abff614c12
:100e04000025258065800021644801f0f7fe4e230b
:100e1400238065800021624801f0f0fe23232380b3
:100e2400658000215f4801f0e9fe009509237f22d7
:100e34000921002000f0e9fe25800b3565800021a2
:100e4400594801f0dbfe6a2323806580002157485e
:100e540001f0d4fe142323800a356580012154480f
:100e640001f0ccfe0021534b186801f04dfa4a23df
:100e7400238065800021504801f0c0fe5023238068
:100e8400658000214d4801f0b9fe01f031fe4ce7c8
:100e94000321002001f02aff8321042001f033ff05
:100ea400002001f0bcff01f055ff364c00252580e1
:100eb40065800021394801f0a1fe4e23238065801e
:100ec4000021374801f09afe232323806580002106
:100ed400344801f093fe009509237f220921002064
:100ee40000f093fe25800b26668000212e4801f039
:100ef40085fe6a232380668000212c4801f07efe53
:100f0400142323800a36668000212d4b186801f0d3
:100f1400fbf90021264801f071fe4a2323806680f4
:100f24000121254801f06afe5023238066800121b7
:100f3400224801f063fe00951b234f2215214f2008
:100f440000f063fe01f0d4fdefe60321002001f080
:100f5400cdfe8321042001f0d6fe002001f05fffc6
:100f6400084b0f221a8000225a8001f0f3fe002160
:100f7400144801f043fe01f0bbfdd6e6842c0000ca
:100f8400dc2b00004c0a0020200a0020e00900208d
:100f9400fc090020980a0020f0090020540a0020cf
:100fa400080a00203c0a0020b00900205c0a002046
:100fb400140a00207c0a0020940a0020740a0020ed
:080fc400780a0020c809002092
:020000040000fa
:100fcc0010b56b4b5b7b002b17d0694b1b8a9b07b7
:100fdc0014d5684b2022ff2199540132fd399954c4
:100fec00644a2023d35c5bb2013300d18fe0614aa9
:100ffc002023d35c062b00d1a2e010bd5c4b1b8ad6
:10100c00db0707d55b4b2022ff2199540132fd39b8
:10101c009954e5e7564b1b8a5b0707d5554b2022a5
:10102c00ff2199540132fe399954d9e7514a2023b2
:10103c00d35c5bb2032b47d0042b0fd0022bcfd148
:10104c001369002b04d09088002101f0a3f8c7e7a6
:10105c00484b9888012101f09df8c1e7454a9369f6
:10106c00126993420cd0434a9168581c9061ca5c37
:10107c003f4b1a761a00138a1bb2002bfbdbafe72f
:10108c003c4b5b69002b10d03a4b9b885b000122d8
:10109c001343dbb2364a1375138a1bb2002bfbdbee
:1010ac00344a20230321d1549ae7314a5168c02392
:1010bc009b020b435360138a1bb2002bfbdb2d4aa4
:1010cc0020230621d1548be72a4a5369013bd2696c
:1010dc009a420dd0264a138a1bb2002bfbdb254b00
:1010ec00d968da69501cd861214b1b7e8b5477e789
:1010fc001f4a5168e023db020b435360138a1bb277
:10110c00002bfbdb1b4a20230621d154e2e72023d2
:10111c000021d154164a5168c0239b020b435360e3
:10112c00138a1bb2002bfbdb114b03229a73114b5e
:10113c005b6a002b00d160e70e4a906a98475ce727
:10114c001300002220215a5401315a54084b033207
:10115c009a7319002d320b8a1340102bfbd1054bbf
:10116c005b6a002b00d148e7024a906a984744e733
:08117c000010004248090020a8
:020000040000fa
:1011840030b583b004005c4b1a780a2a03d8930064
:101194005a4ad3589f460020ace0594d290059487b
:1011a40001f08cfe00232b70012257493d2001f0f1
:1011b400b9fb442c04d0504b01221a70002099e052
:1011c4004d4b02221a70002094e0504b59704c4b46
:1011d4001b78012b09d04a4b1b780020022b00d02e
:1011e40088e0454b00221a7084e0454b00221a70b7
:1011f400023246493d2001f095fb3f4b03221a7011
:10120400002077e0424b59703d4b1b78012b08d0ee
:101214003b4b1b780020022b6cd1374b00221a70f9
:1012240068e0374b00221a70023239493d2001f040
:1012340079fb314b03221a7000205be0304b1b78a2
:10124400012b08d02e4b1b780020022b52d12a4ba5
:101254000a221a704ee02a4b00221a70264b0932d9
:101264001a70002046e0264b1b78012b12d0244b29
:101274001b780020022b3dd1264b8022d2019a619b
:101284001f4b00221a7001321f493d3001f04afb06
:1012940000202fe01a4b00221a70174b03321a70e9
:1012a400002027e0164b00221a70042300931a4be7
:1012b400023216493d2001f0e3fa0f4b06221a7060
:1012c400002017e00e4b1b78012b08d00c4b1b7829
:1012d4000020022b0ed1084b0a221a700ae0064b9a
:1012e40007221a70002005e0034b00221a70012027
:1012f40000e0012003b030bd130a0020202a0000c2
:101304009b0a0020232c0000070a00209c0a0020ce
:0c131400900a002000440041700a0020f4
:020000040000fa
:10132000f0b587b0039003a801f0d6f9002802dadf
:10133000002007b0f0bd039b1b095d1e202d09d9bd
:101340004f49023b4f4a8b4224d8db08d318043b59
:101350001d7801352a000120002101f021fd002423
:1013600043428c4100930194474f00983a687b6850
:101370001040020001990b401a433fd1039b05a87e
:101380001033059301f024fd002809d10c223f4bb6
:101390001a60cee7db09d318043b1d781135d9e775
:1013a0003b490c68a04206d0059b0400103b059306
:1013b0000123103483600125059be2180a602b434a
:1013c000083a083c28c26360002cb1d0200001f02c
:1013d000dffa00280bd023686168ab43e31a5a6830
:1013e000aa4352185a606168a94362501c00200049
:1013f000039901f0bbfb200008309ae7214a2549f8
:101400003c32002831d1584203404b43db0ed65cbe
:101410002036300001f026fc731cdb00fc58083b32
:10142000fb189c42a0d0272e25dd0235ae4201dc00
:101430003f2e20d101226368039f9343dd1b2800c8
:10144000009301f0c5f9864215d1e268a168e3195d
:10145000da60996093609a68d360012217431f6035
:101460005d60009be5506760c1e7434203404b432a
:10147000db0ed65ccde73100200001f017f8b6e7af
:10148000ff0100005822000010040020880a0020fc
:081490000804002029e66b07a7
:020000040000fa
:10149800f8b5d646474680b5002000f089ff002100
:1014a800504801f00ffd01f047fc00234e4a13603d
:1014b8004e4a13604e4a13604e4b8022d2019a6105
:1014c800d2089a610020fff709fc002398460025fe
:1014d8009a460026484f474c0de04346012b73d0ef
:1014e800012d73d03000fff7f9fb414b00221a6041
:1014f80001239c46e2443c4b1968380001f09efbee
:101508003a4b19683d4801f099fb394b1968380086
:10151800283001f093fb236adb0206d59c23802246
:101528005201e2506b425d41edb2236a5b0702d57e
:101538008023db01e361236a1b0105d58023db01de
:10154800e3616b425d41edb2a023e3581b0502d570
:1015580000239a460326a023e3585b0008d59c2362
:1015680080225201e25043465a425341dbb2984628
:10157800236a1b0703d59c2380225201e2501a4b91
:101588001b68002b06dd184b00221a60174a1368e7
:1015980001331360154b1b68092b06dd134b002222
:1015a8001a60134a136801331360114b1b68092b27
:1015b800a1dd042e91d0052e0ad0032e92d15346d8
:1015c800022b8fdd01368de7052689e7062689e798
:1015d8004346012b03d0012d84d1062682e7042639
:1015e800f9e7c046b92b0000680a0020640a002009
:1015f8006c0a00200044004194270000a82700003e
:020000040000fa
:10160800f0b58fb00d934b680c9008938b680d0064
:101618000993cb6816000393089b0f68002b60dbc7
:1016280002239f4310233b400a9333680593736852
:101638000693099b04930a9b002b06d0059b069ae8
:10164800134302d0099b023b049308233b400b93ae
:101658005a1e9341049ad31a04932b69039a5c1e69
:1016680000231355089b0793012c10dd059b069a50
:10167800134339d1079b002b36dc089a049b9b1a2d
:10168800079a9b18002b02dd02231f422cd10a9bcc
:10169800002b0bd00cce134308d0039b0d9a1b19bb
:1016a800013b1a703023039a023c13550b9b002b05
:1016b80003d02023039a013c13552b6900975a1e27
:1016c800039b121b19190c98099b00f0edfb0c9b4e
:1016d8005b68db0503d56b68984200da18000fb029
:1016e800f0bd012308939de70f22059b013c1340a1
:1016f80018005730092b01dc303318000d9b413b93
:10170800192b06d820230343613b192b01d801f07c
:10171800c6fb039b1855079b013b0793069b1a07bb
:10172800059b1b091a43069b05921b0906939be719
:020000040000fa
:10173800304a136a30490b4002210b4313620823d5
:10174800d1680b42fcd02b4b00229a612b4b2c4ac0
:101758005a602c4a9a601a0053785bb2002bfbdb64
:10176800244a938c80218b4393841023d1680b42a5
:10177800fcd0254b1a68920e3f2a38d0234b1b68a1
:101788009b059b0d920213431a4a93621b4b8222bc
:10179800d2015a80174a1023d1680b42fcd0154b4e
:1017a8001b4ada621a001023d1680b42fcd0114b95
:1017b80006229a841a004023d1680b42fcd00f4bb2
:1017c800144a5a601a0053785bb2002bfbdb0b4bb0
:1017d800114a5a80114a5a80114a5a80114a5a802d
:1017e800114b1f225a61da61104a1a627047203a77
:1017f800c4e7c046000800400000ffcf000c0040ce
:101808000106010001fa00002460800028608000c1
:10181800dc05010400070100034000000f40000040
:10182800104000001440000000040040300801008f
:020000040000fa
:10183800f0b5060085b00f0015001c008b4265d876
:1018480001d1824262d82100280001f0b1fa3900a2
:101858000090300001f0acfa009b21001b1a1a001e
:101868002800039301f098fa00900191019bbb4274
:1018780046d802d1009bb34242d8009b019c039af0
:1018880001200021f61aa74101f086fa039b002bdc
:101898002fd0019b009adb0754081c43019b5d086d
:1018a800039b9c46bd422ed801d1b4422bd83200ae
:1018b8003b00121bab41012692185b410027b6186a
:1018c8005f4101235b429c446346002bead18019a7
:1018d8007941039a04000d003000390001f050faf4
:1018e800039a06000f0001f057fa241a8d412000d0
:1018f80029000a9b002b01d01e605f6005b0f0bd77
:1019080000200021c2e7b6197f41dae70020002154
:02191800efe7f7
:020000040000fa
:02191a00704714
:020000040000fa
:10191c00f0b5de4657464e464546e0b585b00191da
:10192c002e4b1b781a0003931e002d4b1b889446dc
:10193c006344802b4bdc294b5a780292284b5b88f2
:10194c0094466344202b42dc002a3add2038504375
:10195c004000224b5b68994681440025204b9b46f6
:10196c009a4625e0019a53425a415b4659884919d7
:10197c00c9b218880019c0b200f046fe0134a64264
:10198c000fdd3b00a34042461342ebd0534659882f
:10199c004919c9b218880019c0b2019a00f034fe76
:1019ac00ece7013502239c46e144029bab4208dd87
:1019bc004b461f88002ef4dd002480231b02984622
:1019cc00dfe7074a138803998c466344138005b0fc
:1019dc003cbc90469946a246ab46f0bd340a00206a
:0419ec004c0a002081
:020000040000fa
:1019f000f7b5002858d00838436801221e009643e6
:101a000085192a680400934200d0ffde01276b6825
:101a1000226813403b420ed1200000f0b9ff00289d
:101a200043d1280000f0e4ff0028f0d06b68bb43ee
:101a3000f618ed18ebe73b003343636030002b6092
:101a400000f0c6fe019001f00df96b6822681340aa
:101a50003b42e1d0184b019a1868596801f094f99b
:101a6000384212d1019a0120002101f099f90b00ae
:101a7000002804d0104a126802430f480260002b6d
:101a800003d00d4a53680b435360019b0a4a01334c
:101a9000db00d3181a005b68083a66602e60e360ca
:101aa000a260d460e3689c60f7bd2368bb43e41a7e
:0c1ab0006368bb43f618b4e71004002084
:020000040000fa
:101abc00f0b54b6889b005930b6807009c460793fb
:101acc00cb680c008e68049310685168cd0f44d01d
:101adc000b000200002150429941059b002b08dbb2
:101aec000222634693430793002d02d1079b5a07aa
:101afc002ad5731e07aa02920a22009301920b00a8
:101b0c000200200000f051f9002d02d1079b5a076a
:101b1c001ed501382d23002d00d1023b049a1354fd
:101b2c0023695a1e049b121a1918079b380000933c
:101b3c00330000f0b7f97b68db0503d56368984286
:101b4c0000da180009b0f0bd1b07db0ff31ad1e760
:101b5c001b07e5d501382023e0e7059b002bbfdaf6
:021b6c00c4e7cc
:020000040000fa
:101b6e0030b5882933d015dc812941d003dc80299a
:101b7e003ed0002030bd822911d08429f9d11c68b5
:101b8e0002cc1c60002a1ed009b20160c917416048
:101b9e000120efe7a02923d00adc9029e9d1072400
:101bae0019680731a14330c9196004604560efe739
:101bbe00c02901d0f029dcd11a68111d19601368f3
:101bce000360002312e089b201604260e0e71c6806
:101bde0002cc1c60002a01d049b2d6e7c9b2f3e7a5
:101bee001a68111d196013680360db174360cfe795
:101bfe0019680c1d1c600b680360002ae5d0f4e721
:020000040000fa
:101c0e00f0b5de4657464e464546e0b583b0040075
:101c1e000d00904619000193171afa17bf18574076
:101c2e005b1bda179818504044459b4102221a401c
:101c3e00934601235b429c46e3448d429b41022224
:101c4e001a409246e24400903e1a0c9a404600f02a
:101c5e00dafc00984342994610e00c9a29002000c5
:101c6e0000f0d1fc7300994503da009ab61a5c4471
:101c7e00e4b29f4202ddf6195544edb24445ecd173
:101c8e00019b9d42e9d103b03cbc90469946a246c9
:041c9e00ab46f0bda4
:020000040000fa
:021ca200fee75b
:020000040000fa
:101ca400f0b5c6461f4a204b00b50021934203d22b
:101cb400197001339342fbd10b231c4a9c46083b09
:101cc40098461368546819000026214311d0170060
:101cd40091680c3700290fd11a19002c03d01e70fb
:101ce40001339342fbd13a0013685468190021432d
:101cf400edd104bc9046f0bd6146c91a1d195118b6
:101d0400002c05d05a1c505c187013009542f9d170
:101d1400434623405a1e9341a4081c19a4003f19aa
:101d24003a00e1e700000020000000200006000067
:020000040000fa
:101d3400f0b51600050002278369426987b0029353
:101d4400d31a03939b1904910596019302ac3a00ac
:101d54002100286800f0f4fe019b984208d1ab688a
:101d6400ea68ab619a18aa626b61300007b0f0bdf3
:101d740000280cda102200236968ab620a43ab61c5
:101d84006b616a60022f12d06368f61aede7019b5b
:101d94001b1a01936368984202d9c01a0834013fa0
:101da40023681b1823606368181a6060cfe71e005d
:021db400dbe76b
:020000040000fa
:101db600f0b5050085b019000c9b100001931a6858
:101dc6002b696c68013bef681d00002c00da0124ca
:101dd6000026fe540a9e0123361b02960226164052
:101de6000b9ad2170392002d04dc002b17d0280083
:101df60005b0f0bd02000a4307d1002c05dc029aab
:101e06001219002af1dd002eefd00b9a039b00f089
:101e160080fc013d130030327a55013ce3e7102384
:0e1e2600019a12689a431300019a1360dfe7d5
:020000040000fa
:101e3400f8b5846a05000f001600002c0ad0ab6abe
:101e44006a699b1ab3420cd2320039002800fff7aa
:101e54006fff05e000f064ff03002000002beed0cc
:101e6400f8bd002ef0d02b0034331b785bb2002b6e
:101e74001adb3400dbb2621eb95c994212d1220033
:101e840039002800fff754ffa042e9d33f19341b5f
:101e940022003900686900f0d4ff6b6930001c1916
:0c1ea4006c61dde7141ee6d13400f1e7ac
:020000040000fa
:101eb000f0b51e00012389b014000e9a07001a40e5
:101ec0000291019220d1b4421eda351b03952a00fb
:101ed000102d00d91022202104a800f0c5ff0f2ddd
:101ee0001bdc0f22039b04a913401a00380000f0ea
:101ef000e5fc019b002b04d122000299380000f080
:101f0000ddfc300009b0f0bd22000299380000f07d
:101f1000d5fcb442d9db2600f3e7102204a938002f
:081f200000f0ccfc103ddae7f3
:020000040000fa
:101f280030b51a4b1a4a1a60422203219954413a91
:101f380040315a5405315a5401315a5400214a202b
:101f480019540130195403301954013019544d38bb
:101f58005424185504341a5501341a5502341855a6
:101f6800273c33251d550834113d1d554434a02503
:101f78006d011d514a34195501341855013419554c
:101f8800d1315a54dd32985430bdc0460044004126
:041f980004cc000075
:020000040000fa
:101f9c00f0b50b680c008f68cd68496887b00600f7
:101fac000593002902db02218b43059305a9536895
:101fbc00126802910821009701912000fff7f5fead
:101fcc00059bdb0602d5302301382b54059b1b07e0
:101fdc0002d5202301382b54236929185a1e059b3e
:101fec00121a009330003b00fff75cff7368db05af
:0e1ffc0003d56368984200da180007b0f0bd04
:020000040000fa
:02200a00fee7ef
:020000040000fa
:10200c00164b01221a601a00138a1bb2002bfbdb41
:10201c00124b802252005a601a00138a1bb2002bfa
:10202c00fbdb0e4be8225a810d4a1a601a00138a08
:10203c001bb2002bfbdb094b10221a821a00138aed
:10204c001bb2002bfbdb074b002221215a54013918
:10205c005a54024b03325a737047c0460010004268
:08206c001600300048090020b5
:020000040000fa
:1020740010b584291fd007dc812915d0822922d0ec
:10208400802911d0002010bd90291cd008dc88299b
:10209400f8d119680c1d1c600b6803601a7010e0fd
:1020a400a02901d0c029edd119680c1d1c600b6852
:1020b40003601a6005e019680c1d1c600b6803605e
:1020c4001a800120dfe719680c1d1c600b6803608f
:0820d4001a60d2175a60f4e70c
:020000040000fa
:1020dc007fb51600c2680d0013000091591e8b418c
:1020ec00f31a019383680400039269460222006884
:1020fc00029300f00dfd002808dc18220823024092
:10210c005340626813436360060010e0019b8342f6
:10211c00fad2a268c01ae3681018e2632064002b9c
:10212c0005d0531ce3631378ad19013d2b703000bf
:04213c0004b070bdbe
:020000040000fa
:1021400037b504000d00002801d100203ebd4368d2
:102150009b0607d543698269934217d80023a3627f
:10216000a3616361e26b236c9a4206d20121d21a09
:10217000d3170091206800f0c9fe00232364e363b5
:102180009d42e2d0206800f0b1fedfe70022c36a82
:10219000110098476369002be0d101204042d5e748
:020000040000fa
:1021a00010b5134b00229a61da61124b03329a7315
:1021b0005a68114c22405a601a00138a1bb2002b35
:1021c000fbdb00290ed00a4a20230324d45440000c
:1021d0000143c9b2074b19751a00138a1bb2002bb1
:1021e000fbdb10bd024a20230424d454efe7c04691
:0c21f0004809002000100042fffffbff28
:020000040000fa
:1021fc0000230e4a10b513600d4a13600d4a13608c
:10220c000d4a13600d4a13600d4a5362136101337a
:10221c00936000f033fe00f00efd0a4c0a4b9c421a
:10222c0000d310bd08cc9847f8e7c046840a0020bc
:10223c000409002000090020f8080020fc080020f8
:0c224c0008090020b0000000b4000000f1
:020000040000fa
:102258002021222324242525262627272828282824
:10226800292929292a2a2a2a2b2b2b2b2c2c2c2cbe
:102278002c2c2c2c2d2d2d2d2d2d2d2d2e2e2e2e86
:102288002e2e2e2e2f2f2f2f2f2f2f2f00011702fc
:102298001d1813031e1b190b1408040d1f161c12fe
:0c22a8001a0a070c1511090610050f0e8c
:020000040000fa
:1022b40070b504000d000020002c21d000f004fcb7
:1022c400002d18d000200f4a0421072605e0138ba7
:1022d40023800234013085420ed0937b0b42fcd024
:1022e400138a334208d153683340012befd0138b48
:1022f40023700134eee72800281a45426841c0b231
:0823040070bdc0460014004248
:020000040000fa
:10230c00f0b585b00400240a05002d0c07000390dd
:10231c000e00c0b2e4b2edb23f0e009123002a00d1
:10232c0021000290fff76dfc00963b002a00210073
:10233c002800fff766fc00963b00029a3900280043
:10234c00fff75ffc00962300029802003900fff7ac
:06235c0058fc05b0f0bdc5
:020000040000fa
:10236200f0b50b680c008f68cd68496887b006002d
:102372000593002902db02218b43059305a95368cb
:10238200126802910a21009701912000fff712fdc5
:10239200236929185a1e059b121a009330003b002c
:1023a200fff785fd7368db0503d56368984200daa1
:0623b200180007b0f0bda9
:020000040000fa
:1023b80010b5114b06225a60104b1b681868002193
:1023c80000f034fd0e4b1b681868002100f02efd4c
:1023d800fff7a6fdfff7acf900f0baf900f066fdcb
:1023e800fff710fefff795fa00f080fa00f0ecf81e
:1023f80000f02ef910bdc046004000411c08002026
:042408009009002017
:020000040000fa
:10240c00f0b50f0087b0039015001049072204a8ff
:10241c001c0000f012fdbb687e6802933f68002d23
:10242c0000d104ad002c03d1280000f01ffd0400e6
:10243c00002e02dbb44200d934000097029b22002c
:10244c0029000398fff72efd07b0f0bdf42e000015
:020000040000fa
:10245c0070b5040016001d00022a1cd043689b06b0
:10246c0019d4002908d1002d01d18025ed002800b8
:10247c000830fef74fff010020236268a160134370
:10248c0063602300e5603433ff22012e00d10a2261
:10249c001a70024be362002070bdc046351e00006e
:020000040000fa
:1024ac0070b5c668856804000a00ae4211d10120df
:1024bc00002100f06ffcc043c943431c03d00b4bfd
:1024cc001a68104018604b1c03d0084a5368194016
:1024dc005160012319006268b56011439a43ee60a4
:1024ec006160a41822681343236070bd100400209f
:020000040000fa
:1024fc0010b5064c2378002b07d1054b002b02d0ce
:10250c00044800e000bf0123237010bd9409002093
:10251c000000000000000000044b10b5002b03d09d
:10252c000349044800e000bf10bdc0460000000095
:08253c009809002000000000d6
:020000040000fa
:1025440010b50a4b98470a4b9847fff7a9fb094b6c
:10255400ff229343084a9360084b9847084b9847d7
:10256400084b9847fef796fffee7c046932b000002
:10257400932b00000000000000ed00e0fd210000ae
:08258400932b0000932b0000d3
:020000040000fa
:10258c0030b5002818d0002918d00d4a0124072591
:10259c0004e003881383023000290bd00139937bac
:1025ac002342fcd053682b40012bf2d003781383c9
:1025bc000130f1e7012030bd0020fce70120fae7f3
:0425cc0000140042b5
:020000040000fa
:1025d0000e4b01221a801a00d37b5bb2002bfbdb6f
:1025e0000a4bec22d2001a80ea2252001a839a3a4d
:1025f000ff3a9a73064a0021116001225a731a00a9
:10260000d37b5bb2002bfbdb7047c046002c004243
:042610002c0a002070
:020000040000fa
:1026140010b543b2002b0edb1f290cd8002a0bd1b6
:10262400cb08db0118180a4a07231940063b8b40e4
:10263400115c0b43135410bdcb08db011818044c78
:102644000723194001228a40235c93432354f2e771
:042654001806002044
:020000040000fa
:10265800bff35f8f62b60c4bc22080001a580b493b
:102668001140c02212020a431a50802292001a60b6
:10267800c42189005a58ff2082433f3802435a50e8
:10268800802252021a60704700e100e0ff00ffff5d
:020000040000fa
:10269800030010b51a78202a0dd011000939042931
:1026a80009d900212b2a02d02d2a01d10131013369
:1026b80000200a2404e00133ece760430133801a68
:1026c8001a78303a092af8d9002900d1404210bdb9
:020000040000fa
:1026d8000c4a036810b5546a0b4a591e121b9142e2
:1026e8000bd9002b05d00c220120084b40421a6060
:1026f80010bd102202600020fae70f22173393431f
:102708000360f8e708090020efffff7f880a002030
:020000040000fa
:10271800002b11d1002a0fd1002900d1002802d0a6
:102728000021c943081c07b4024802a140180290be
:1027380003bdc046cd07000003b4684601b5029842
:10274800fff776f8019b9e4602b00cbc7047c04666
:020000040000fa
:102758000b4b0c4a1a600c4a5a81c02292025a60ea
:102768001a00138a1bb2002bfbdb054a13680221ef
:102778000b431360138a1bb2002bfbdb7047c04668
:0c27880000140042040131402bf6ffff5a
:020000040000fa
:10279400636f756e74657231306d733a2025640d04
:1027a4000a000000636f756e7465723130306d73aa
:1027b4003a2025640d0a0000636f756e74657231ea
:0c27c400733a2025640d0a0d0a00c0467f
:020000040000fa
:1027d0000309013b1800202b07d90a4a934205d868
:1027e0000948db08c318043b18787047e0223f20f3
:1027f00052019342f9d80448db09c318043b187806
:0c2800001030f2e7ff0100005822000039
:020000040000fa
:10280c001c2101231b04984201d3000c10391b0a14
:10281c00984201d3000a08391b09984201d30009d8
:10282c00043902a2105c40187047c046040302022f
:0c283c000101010100000000000000008c
:020000040000fa
:1028480070b50c1e0ed0002a0cd01500022801d934
:10285800280070bd084b002b06d01100200000e0b6
:1028680000bff5e70025f3e78e182078013400f063
:0c2878002efab442f9d1ebe7000000009a
:020000040000fa
:1028840070b50c4d20242d5d0024002d01d02000b6
:1028940070bd084ca080e360049b6361a160226169
:1028a4000023a37023702122a3540021fff776fc98
:0828b4000124ece748090020b3
:020000040000fa
:1028bc00436870b50400d80510d52569954200d938
:1028cc0015002a00606900f0b8fa226963695b1987
:1028dc00551b0022636125611a7070bddb06fcd4a8
:0828ec00200000f085faf8e776
:020000040000fa
:1028f4000b4a137801210b43137053785bb2002bfe
:10290400fbdb074b00229a61da611a7802210a4341
:102914001a701a0053785bb2002bfbdb7047c04679
:042924000018004057
:020000040000fa
:1029280010b50b4c2023e45c0023002c01d01800c8
:1029380010bd074b9880dc605c6199601a619c70df
:102948001c7021229c540021fff726fc0123eee78e
:04295800480900200a
:020000040000fa
:10295c00f0b5050000200a4c4200165d002e02d195
:10296c00a2185078f0bd296801300f78c0b2b74278
:10297c0003d1a2180131507829600a28ecd9f1e76b
:04298c00a02c00007b
:020000040000fa
:10299000f8b5050001262c68344201d000200ee075
:1029a0002000fff715ff070000f05cf92868a0423f
:1029b000f1d1b043281a3900fff778fd0120f8bda6
:020000040000fa
:1029c000084a1368002b09d007491818884202d812
:1029d00010601800704701235b42fae7034b136055
:1029e000f2e7c0468c0a0020a00c0020a00a0020bc
:020000040000fa
:1029f000f8b5050001276c683c4201d000200de0cd
:102a00002000fff7e5fe060000f02cf96b68a342fa
:0e2a1000f1d128003100fff749fd0120f8bd8b
:020000040000fa
:022a1e00fee7d1
:020000040000fa
:102a20009e110000ce1100000812000040120000ac
:102a30006a120000a8120000c81200009a110000db
:0c2a40009a110000ec120000f6120000d9
:020000040000fa
:102a4c0070b500290fd0002a0dd01500002808d130
:102a5c000c008e18012000f02bf920700134b442c8
:0c2a6c00f8d1280070bd0025fbe7c04633
:020000040000fa
:102a7800002380290fdb812901dd83290bd1072160
:102a8800136807338b431900083111601a685b68b3
:0a2a9800026043600123180070473c
:020000040000fa
:102aa200020000234832d356591e0b4313700423ed
:102ab2004268134005d01023134343600120404273
:0a2ac20070470364c3631800fae7cd
:020000040000fa
:102acc00084b1b8a5b070bd0064b07221a829b7b99
:102adc005b0705d5034b04211a8b9a7b0a42fbd169
:082aec007047c04600140042cf
:020000040000fa
:102af40070b5084c80239b00e51802e00134a54220
:102b040006d021784420fef73bfb0028f9d0f5e7f6
:082b140070bdc0461806002048
:020000040000fa
:102b1c00f7b5002507000c002e000192019b9e4288
:102b2c0001db2800febd626821683800fff788ffd2
:082b3c0001362d180834f1e701
:020000040000fa
:102b4400f7b5002507000c002e000192019b9e4260
:102b540001db2800febd626821683800fff772fec1
:082b640001362d180834f1e7d9
:020000040000fa
:102b6c00012370b544689c43651a102d0ad942188c
:102b7c0019432b431160536008320351416010001c
:062b8c00fef730ff70bdf2
:020000040000fa
:022b920070478a
:020000040000fa
:102b940010b5064b987bc0b23b229a73044b1b685a
:102ba400002b02d0024a5168984710bd002c004205
:042bb4002c0a0020c7
:020000040000fa
:102bb800064a136801331360054b8022d200da619c
:102bc8009c215a505201da617047c046680a0020b9
:042bd8000044004174
:020000040000fa
:102bdc00d501a81fd30040ad8ed8052002a1c8dabc
:102bec0010913f3f3f3f81bf82bfd9d2d808a4a6e6
:042bfc00af00c04620
:020000040000fa
:102c000070b505000e0000f037f9002808dd2c0033
:102c10002d1820783100fef781fe0134ac42f8d146
:022c200070bd85
:020000040000fa
:102c220010b5040000f017f9002804d1002c01d0df
:102c32000123237010bd002cfcd002232370f9e77e
:020000040000fa
:022c42007047d9
:020000040000fa
:102c44000fb407b5054b04aa1b6802ca18680192a1
:102c540000f08cf803b008bc04b0184790090020b9
:020000040000fa
:102c6400064b0130c000c258002a05d10200083ac0
:102c7400d21819184a60c2507047c0461004002088
:020000040000fa
:102c8400f40c0000320d00008e0d00005c0d0000fd
:0c2c9400e80d0000940e00004e0f000040
:020000040000fa
:102ca00068076c094c836a9074a07ac000806888b9
:0c2cb00000846c820081286e696c290091
:020000040000fa
:102cbc0000b583b000230193012101a8fff7f4faba
:0a2ccc000028f9d0019803b000bd04
:020000040000fa
:102cd60000b583b06b46d87101216b46d81dfff74e
:0a2ce60052fc0028f8d003b000bd36
:020000040000fa
:102cf00070b505000c00222000f08af8280000f0d2
:0a2d000087f8200000f084f870bd91
:020000040000fa
:102d0a0070b505000c00212000f07df8280000f0c5
:0a2d1a007af8200000f077f870bd91
:020000040000fa
:102d240010b50400fff7bbfe002805d1a368e268d4
:0a2d3400a36163619b18a36210bd48
:020000040000fa
:022d3e007047dc
:020000040000fa
:102d4000044a138802210b431380d37b5bb2002b10
:082d5000fbdb7047002c004280
:020000040000fa
:102d5800044b80229200991800221a7001338b428a
:082d6800fbd1704718060020a2
:020000040000fa
:102d700013b50400019201aafdf722fe6368db0689
:082d800001d50120404216bdff
:020000040000fa
:102d8800d0400b1cd1409c46203ad34018435242b5
:102d980063469340184370479140031c90409c46fb
:102da800203a9340194352426346d340194370472f
:102db80010b5002903d1fff725fd203002e0081cdb
:082dc800fff720fd10bdc0461d
:020000040000fa
:102dd000006810b5002801da002010bdfff7f0fdf3
:062de000431cfad1f8e7e4
:020000040000fa
:022de600704734
:020000040000fa
:102de80010b500f07bf8024b1860586010bdc04663
:042df800440a002069
:020000040000fa
:102dfc00c36a10b5002b01d0984710bd0068fff7cf
:042e0c001dfdfae7c7
:020000040000fa
:102e100010b5040021004320fef7b4f90028f9d0d2
:022e200010bde3
:020000040000fa
:102e220010b504002020fff7f2ff2000fff7efffac
:022e320010bdd1
:020000040000fa
:102e34004a424a41802310b55200db00fff70cfbe5
:022e440010bdbf
:020000040000fa
:102e4600002310b59a4200d110bdcc5cc4540133a6
:022e5600f8e79b
:020000040000fa
:102e5800024a2123d05cc0b27047c046480900200e
:020000040000fa
:102e680003001218934200d1704719700133f9e733
:020000040000fa
:102e780003001a78002a01d1181a70470133f8e7bd
:020000040000fa
:102e880010b5fff7adfffff756fffff754ff10bd72
:020000040000fa
:0e2e98000300413b192b01d82023184370473b
:020000040000fa
:0e2ea6000300613b192b01d85f2318407047d1
:020000040000fa
:0c2eb400014b82225a6070470040004130
:020000040000fa
:0c2ec000014b58629962704748090020dd
:020000040000fa
:0c2ecc00014b1860596070472c0a002070
:020000040000fa
:0a2ed80010b50068fff7b4fc10bd50
:020000040000fa
:082ee40000487047900800202f
:020000040000fa
:082eec00012040427047c0467e
:020000040000fa
:072ef400286e756c6c2900cb
:020000040000fa
:062efc00002000217047d8
:020000040000fa
:042f020000207047f4
:020000040000fa
:042f08007047c04608
:020000040000fa
:042f0c0000207047ea
:020000040000fa
:0200000400807a
:0440000077c700d8a6
:020000040000fa
:0200000400807a
:044004005c01ffff5d
:00000001FF
