:020000040000fa
:10000000f07f002029120000ef1500008f1600007d
:1000100000000000000000000000000000000000e0
:100020000000000000000000000000006b15000050
:1000300000000000000000006b1500006b150000c0
:100040006b1500006b1500006b1500006b150000b0
:100050006b1500006b1500006b1500006b150000a0
:100060006b150000e50600006b1500006b15000025
:100070006b1500006b1500006b1500006b15000080
:10008000911600006b1500006b1500006b15000049
:100090006b1500006b1500006b1500006b15000060
:0400a0006b150000dc
:020000040000fa
:1000a400f8b5c046f8bc08bc9e467047091200006b
:1000b400f8b5c046f8bc08bc9e467047e111000084
:020000040000fa
:1000c4009c0900201c0000000000000050090020d2
:1000d4002c00000000000000b80900200800000007
:1000e400000000001c0800200400000000000000c4
:1000f400e2090020010000000000000018060020b2
:1001040004020000010000000000000000000000e4
:1001140000000000000000000000c0e0f0f0f0e08b
:10012400c08080808080808080808080808000800b
:10013400800000808000000000008080808080803b
:10014400000000808000000080800000008080802b
:10015400000000808000008080000000000000801b
:10016400808000000000008080000000008080800b
:10017400000000808080808080800000808080007b
:10018400000080800000000000000000000000006b
:100194000000e0f0f0f0f0f0e08083878f8f8fc7ed
:1001a400e37171399dcdcdcdcdcdcdcdcdcd00ff7c
:1001b400ff1e38ffff000000003f7f6d6d6d6d6d09
:1001c400000000073f7c707f07037f78703f0f01ba
:1001d4000000007f7f0c0c7f7f00000040707c1fbc
:1001e40011131f7c604000030f7c78703e0f0300e6
:1001f40000003f7f6d6d6d6d6d6d00007f7f030f9f
:100204001c707f7f000000000000387cfefefefeb4
:10021400fc7c3133333333333130303030303838a1
:100224001c0e070301000000000000000000f8f8a5
:1002340018181838f0e0000000f8f800000000f08a
:10024400f8d8d8d8d8d818000000f8f89898989812
:10025400f8f0000000f8f80000000000000080e062
:10026400781878e08000000c3c70c0e0703818000a
:10027400000000000000000000000000000000007a
:10028400000000000000000000000000000000006a
:10029400000000000000000000000000000000005a
:1002a40000000000000000000000000000000f0f2c
:1002b4000c0c0c0607030000000f0f0000000004e4
:1002c4000c0c0c0c0f07070000000f0f01010101bb
:1002d4000100000000070f0c0c0c0c00000e0f03b3
:1002e400030303030f0c000000000f0f00000000c5
:1002f40000000000000000000000000000000000fa
:10030400000000000000000000000000e3090020dd
:100314000100000000000000e409002002000000c9
:1003240000000000c80900200400000000000000d4
:10033400e60900200100000000000000e709002099
:100344000100000000000000cc09002004000000af
:1003540000000000e8090020010000000100000086
:1003640002000000e009002002000000010000007b
:1003740040000000d009002004000000000000003c
:1003840000090020500000000000000020080020a8
:100394007800000001000000300800202808002038
:1003a40030080020000000000000000025000000cc
:1003b400080000200004000000000000000000000d
:1003c4000000000000000000000000000000000029
:1003d4000000000000000000911800000000000070
:1003e400000000000000000000000000c10e00003a
:1003f40000000000000000000000000000000000f9
:1004040000000000000000000000000000000000e8
:100414000000002008040000000000007c09002007
:1004240020000000010000000100000003000000a3
:1004340000000000000000000000000000000000b8
:1004440000000000c0090020c009002008000000ce
:1004540000000000d4090020040000000000000097
:10046400080400201002000000000000980800208a
:10047400680000000100000001000000030000000b
:100484000000000000000000000000000000000068
:1004940000000000250f0000000000000000000024
:1004a40000000000751800007f1800000000000024
:1004b4000000000000000000000000000000000038
:1004c4000000000000000000000000000000000028
:1004d4000000000000000000000000000000000018
:1004e400d80900200400000000000000dc090020fe
:1004f40004000000000000000000000000000000f4
:020000040000fa
:1005040030b583b004006a4b1a780a2a00d9cde0ca
:100514009300684ad3589f46674d2900674801f005
:100524009bf900232b70012265493d2000f0baff9e
:10053400442c04d05e4b01221a7000207fe05c4bf7
:1005440002221a7000207ae05e4b59705a4b1b78d5
:10055400012b08d0584b1b780020022b6fd1544b31
:1005640000221a706be0544b00221a700232554973
:100574003d2000f097ff4e4b03221a7000205ee0ee
:10058400514b59704c4b1b78012b08d04a4b1b78ac
:100594000020022b53d1464b00221a704fe0464be9
:1005a40000221a70023248493d2000f07bff404b84
:1005b40003221a70002042e03f4b1b78012b08d025
:1005c4003d4b1b780020022b39d1394b0a221a707b
:1005d40035e0394b00221a70354b09321a7000206d
:1005e4002de0354b1b78012b12d0334b1b780020a8
:1005f400022b24d1354b8022d2019a612e4b00224a
:100604001a7001322e493d3000f04cff002016e0f4
:10061400294b00221a70264b03321a7000200ee078
:10062400254b00221a7004230093294b02322549da
:100634003d2000f01bff1e4b06221a70002003b061
:1006440030bd1d4b1b78012b08d01b4b1b780020a1
:10065400022bf4d1164b0a221a70f0e7144b07222e
:100664001a700020ebe71b4b1b780020002be6d10f
:10067400194b1b68194ad15c124a5170202bdedcdd
:100684000133154a13600a4b00221a70d7e70f4b47
:100694008022d2015a61064b00221a700120cee753
:1006a4000a4b8022d2019a610120c8e70020c6e7e4
:1006b400e70900206c150000e8090020fd16000081
:1006c400e3090020e4090020e0090020004400417f
:1006d400cc090020e6090020c8090020d816000033
:020000040000fa
:1006e40010b56b4b5b7b002b17d0694b1b8a9b07a8
:1006f40014d5684b2022ff2199540132fd399954b5
:10070400644a2023d35c5bb2013300d18fe0614a99
:100714002023d35c062b00d1a2e010bd5c4b1b8ac6
:10072400db0707d55b4b2022ff2199540132fd39a9
:100734009954e5e7564b1b8a5b0707d5554b202296
:10074400ff2199540132fe399954d9e7514a2023a3
:10075400d35c5bb2032b47d0042b0fd0022bcfd139
:100764001369002b04d09088002100f009fcc7e72e
:10077400484b9888012100f003fcc1e7454a93697e
:10078400126993420cd0434a9168581c9061ca5c28
:100794003f4b1a761a00138a1bb2002bfbdbafe720
:1007a4003c4b5b69002b10d03a4b9b885b000122c9
:1007b4001343dbb2364a1375138a1bb2002bfbdbdf
:1007c400344a20230321d1549ae7314a5168c02383
:1007d4009b020b435360138a1bb2002bfbdb2d4a95
:1007e40020230621d1548be72a4a5369013bd2695d
:1007f4009a420dd0264a138a1bb2002bfbdb254bf1
:10080400d968da69501cd861214b1b7e8b5477e779
:100814001f4a5168e023db020b435360138a1bb267
:10082400002bfbdb1b4a20230621d154e2e72023c3
:100834000021d154164a5168c0239b020b435360d4
:10084400138a1bb2002bfbdb114b03229a73114b4f
:100854005b6a002b00d160e70e4a906a98475ce718
:100864001300002220215a5401315a54084b0332f8
:100874009a7319002d320b8a1340102bfbd1054bb0
:100884005b6a002b00d148e7024a906a984744e724
:08089400001000425009002091
:020000040000fa
:10089c00f0b587b0039003a800f06afd002802dad7
:1008ac00002007b0f0bd039b1b095d1e202d09d94c
:1008bc004f49023b4f4a8b4224d8db08d318043be8
:1008cc001d7801352a000120002100f065ff00246d
:1008dc0043428c4100930194474f00983a687b68df
:1008ec001040020001990b401a433fd1039b05a80d
:1008fc001033059300f05cff002809d10c223f4b0c
:10090c001a60cee7db09d318043b1d781135d9e703
:10091c003b490c68a04206d0059b0400103b059394
:10092c000123103483600125059be2180a602b43d8
:10093c00083a083c28c26360002cb1d0200000f0bb
:10094c00c7fd00280bd023686168ab43e31a5a68d3
:10095c00aa4352185a606168a94362501c002000d7
:10096c00039900f07bfe200008309ae7214a2549c4
:10097c003c32002831d1584203404b43db0ed65c4d
:10098c002036300000f0c4fe731cdb00fc58083b22
:10099c00fb189c42a0d0272e25dd0235ae4201dc8f
:1009ac003f2e20d101226368039f9343dd1b280057
:1009bc00009300f01bfd864215d1e268a168e31993
:1009cc00da60996093609a68d360012217431f60c4
:1009dc005d60009be5506760c1e7434203404b43b9
:1009ec00db0ed65ccde73100200000f0cbfbb6e788
:1009fc00ff0100003c10000010040020d80900206a
:080a0c000804002029e66b0735
:020000040000fa
:100a14002f4a136a2f490b4002210b431362082308
:100a2400d1680b42fcd02a4b00229a612a4b2b4af4
:100a34005a602b4a9a601a0053785bb2002bfbdb96
:100a4400234a938c80218b4393841023d1680b42d7
:100a5400fcd0244b1a68920e3f2a36d0224b1b68d6
:100a64009b059b0d92021343194a93621a4b8222ef
:100a7400d2015a80164a1023d1680b42fcd0144b81
:100a84001a4ada621a001023d1680b42fcd0104bc8
:100a940006229a841a004023d1680b42fcd00e4be4
:100aa400134a5a601a0053785bb2002bfbdb0a4be3
:100ab400104a5a80104a5a80104a5a80104b1f22fa
:100ac4005a61da610f4a1a627047203ac6e7c04693
:100ad400000800400000ffcf000c004001060100a8
:100ae40001fa00002460800028608000dc05010415
:100af400000701000f4000001040000014400000f7
:080b040000040040300801006c
:020000040000fa
:100b0c00f8b50021354800f0a9fe002000f0eafa03
:100b1c00334e8025ad000be0324c27002137207876
:100b2c0000f05cfe0134a742f9d12d4b01221a7062
:100b3c0033782d4898215ab24550012b20d0002ae9
:100b4c00ead0022bf8d1222000f048fe002000f061
:100b5c0045fe032000f042fe212000f03ffe042061
:100b6c0000f03cfe832000f039fe202000f036fe21
:100b7c00002000f033fe1d4c81239b00e71821e080
:100b8c00b0270de0013c002c06d000214420fff7db
:100b9c00b3fc0028f9d0f5e70137ffb2b42f0ad027
:100bac00380000f01bfe042000f018fe102000f0ae
:100bbc0015fe8424e9e70223094a1370b8e70134cf
:100bcc00bc4206d021784420fff796fc0028f9d0cf
:100bdc00f5e7034b03221a70aae7c0463118000050
:100bec00e2090020b4160000004400411806002061
:020000040000fa
:100bfc00f7b5002858d00838436801221e009643e8
:100c0c0085192a680400934200d0ffde01276b6827
:100c1c00226813403b420ed1200000f059fc002802
:100c2c0043d1280000f084fc0028f0d06b68bb4353
:100c3c00f618ed18ebe73b003343636030002b6094
:100c4c0000f0d4fb019000f063fd6b682268134048
:100c5c003b42e1d0184b019a1868596800f090fd9e
:100c6c00384212d1019a0120002100f095fd0b00b1
:100c7c00002804d0104a126802430f480260002b6f
:100c8c0003d00d4a53680b435360019b0a4a01334e
:100c9c00db00d3181a005b68083a66602e60e360cc
:100cac00a260d460e3689c60f7bd2368bb43e41a80
:0c0cbc006368bb43f618b4e71004002086
:020000040000fa
:100cc800f0b5c6461f4a204b00b50021934203d217
:100cd800197001339342fbd10b231c4a9c46083bf5
:100ce80098461368546819000026214311d017004c
:100cf80091680c3700290fd11a19002c03d01e70e7
:100d080001339342fbd13a00136854681900214318
:100d1800edd104bc9046f0bd6146c91a1d195118a1
:100d2800002c05d05a1c505c187013009542f9d15c
:100d3800434623405a1e9341a4081c19a4003f1996
:100d48003a00e1e70000002000000020c400000095
:020000040000fa
:100d5800f0b51600050002278369426987b002933f
:100d6800d31a03939b1904910596019302ac3a0098
:100d78002100286800f060fc019b984208d1ab680c
:100d8800ea68ab619a18aa626b61300007b0f0bddf
:100d980000280cda102200236968ab620a43ab61b1
:100da8006b616a60022f12d06368f61aede7019b47
:100db8001b1a01936368984202d9c01a0834013f8c
:100dc80023681b1823606368181a6060cfe71e0049
:020dd800dbe757
:020000040000fa
:100dda00f8b5846a05000f001600002c0ad0ab6a29
:100dea006a699b1ab3420cd2320039002800fff715
:100dfa00aeff05e000f0b7fc03002000002beed0a8
:100e0a00f8bd002ef0d02b0034331b785bb2002bd8
:100e1a001adb3400dbb2621eb95c994212d122009d
:100e2a0039002800fff793ffa042e9d33f19341b8a
:100e3a0022003900686900f0e4fc6b6930001c1973
:0c0e4a006c61dde7141ee6d13400f1e716
:020000040000fa
:020e56007047e3
:020000040000fa
:100e5800164b01221a601a00138a1bb2002bfbdb07
:100e6800124b802252005a601a00138a1bb2002bc0
:100e7800fbdb0e4be8225a810d4a1a601a00138ace
:100e88001bb2002bfbdb094b10221a821a00138ab3
:100e98001bb2002bfbdb074b002221215a540139de
:100ea8005a54024b03325a737047c046001000422e
:080eb800160030005009002073
:020000040000fa
:100ec0007fb51600c2680d0013000091591e8b41ba
:100ed000f31a0193836804000392694602220068b2
:100ee000029300f099fb002808dc18220823024036
:100ef0005340626813436360060010e0019b834225
:100f0000fad2a268c01ae3681018e2632064002bca
:100f100005d0531ce3631378ad19013d2b703000ed
:040f200004b070bdec
:020000040000fa
:100f240037b504000d00002801d100203ebd436800
:100f34009b0607d543698269934217d80023a362ad
:100f4400a3616361e26b236c9a4206d20121d21a37
:100f5400d3170091206800f09dfc00232364e36311
:100f64009d42e2d0206800f08dfcdfe70022c36ad6
:100f7400110098476369002be0d101204042d5e776
:020000040000fa
:100f840010b5134b00229a61da61124b03329a7343
:100f94005a68114c22405a601a00138a1bb2002b63
:100fa400fbdb00290ed00a4a20230324d45440003a
:100fb4000143c9b2074b19751a00138a1bb2002bdf
:100fc400fbdb10bd024a20230424d454efe7c046bf
:0c0fd4005009002000100042fffffbff4e
:020000040000fa
:100fe00000230e4a10b513600d4a13600d4a1360ba
:100ff0000d4a13600d4a13600d4a536213610133a9
:10100000936000f01dfc00f0e4fb0a4c0a4b9c428c
:1010100000d310bd08cc9847f8e7c046d40900209b
:101020000c09002008090020000900200409002004
:0c10300010090020b0000000b400000017
:020000040000fa
:10103c002021222324242525262627272828282852
:10104c00292929292a2a2a2a2b2b2b2b2c2c2c2cec
:10105c002c2c2c2c2d2d2d2d2d2d2d2d2e2e2e2eb4
:10106c002e2e2e2e2f2f2f2f2f2f2f2f000117022a
:10107c001d1813031e1b190b1408040d1f161c122c
:0c108c001a0a070c1511090610050f0eba
:020000040000fa
:1010980070b504000d000020002c21d000f0a4fa47
:1010a800002d18d000200f4a0421072605e0138bd5
:1010b80023800234013085420ed0937b0b42fcd052
:1010c800138a334208d153683340012befd0138b76
:1010d80023700134eee72800281a45426841c0b25f
:0810e80070bdc0460014004277
:020000040000fa
:1010f00010b5104b06225a600f4b1b681868002170
:1011000000f07bfb0d4b1b681868002100f075fb9d
:1011100000f0aef8fff77efc00f050f900f098fb0d
:10112000fff79afefff797fe00f0e6f800f006f9e9
:1011300010bdc0460040004124080020980900204e
:020000040000fa
:1011400070b5040016001d00022a1cd043689b06df
:1011500019d4002908d1002d01d18025ed002800e7
:101160000830fff79bfb010020236268a160134356
:1011700063602300e5603433ff22012e00d10a2290
:101180001a70024be362002070bdc046db0d000008
:020000040000fa
:1011900070b5c668856804000a00ae4211d101200e
:1011a000002100f0fffac043c943431c03d00b4b9e
:1011b0001a68104018604b1c03d0084a5368194045
:1011c0005160012319006268b56011439a43ee60d3
:1011d0006160a41822681343236070bd10040020ce
:020000040000fa
:1011e00010b5064c2378002b07d1054b002b02d0fd
:1011f000044800e000bf0123237010bd9c090020bb
:101200000000000000000000044b10b5002b03d0cc
:101210000349044800e000bf10bdc04600000000c4
:08122000a009002000000000fd
:020000040000fa
:1012280010b50a4b98470a4b9847fff749fd094bf9
:10123800ff229343084a9360084b9847084b984706
:10124800084b9847fff75efcfee7c0468b17000087
:101258008b1700000000000000ed00e0e10f000027
:081268008b1700008b1700003a
:020000040000fa
:101270000f4b8022d2011a60012248215a540131b9
:101280005a5400214e2019540a301a5401301a546d
:10129000333226389854083211389854c532ff3208
:1012a0005e301a5010301a50383aff3a995470474d
:0412b00000440041b5
:020000040000fa
:1012b40030b5002818d0002918d00d4a012407257c
:1012c40004e003881383023000290bd00139937b97
:1012d4002342fcd053682b40012bf2d003781383b4
:1012e4000130f1e7012030bd0020fce70120fae7de
:0412f40000140042a0
:020000040000fa
:1012f8000d4b01221a801a00d37b5bb2002bfbdb5b
:10130800094bec22d2001a80084a1a833b229a73ae
:10131800074a0021116001225a731a00d37b5bb27d
:10132800002bfbdb7047c046002c00424f12000028
:04133800b8090020d0
:020000040000fa
:10133c00bff35f8f62b60c4bc22080001a580b496a
:10134c001140c02212020a431a50802292001a60e5
:10135c00c42189005a58ff2082433f3802435a5017
:10136c00802252021a60704700e100e0ff00ffff8c
:020000040000fa
:10137c000c4a036810b5546a0b4a591e121b914251
:10138c000bd9002b05d00c220120084b40421a60cf
:10139c0010bd102202600020fae70f22173393438e
:1013ac000360f8e710090020efffff7fd809002049
:020000040000fa
:1013bc000b4b0c4a1a600c4a5a81c02292025a609a
:1013cc001a00138a1bb2002bfbdb054a136802219f
:1013dc000b431360138a1bb2002bfbdb7047c04618
:0c13ec0000140042040131402bf6ffff0a
:020000040000fa
:1013f8000309013b1800202b07d90a4a934205d854
:101408000948db08c318043b18787047e0223f20de
:1014180052019342f9d80448db09c318043b1878f1
:0c1428001030f2e7ff0100003c10000053
:020000040000fa
:1014340070b50c1e0ed0002a0cd01500022801d95c
:10144400280070bd084b002b06d01100200000e0de
:1014540000bff5e70025f3e78e182078013400f08b
:0c14640078f9b442f9d1ebe70000000079
:020000040000fa
:1014700070b50c4d20242d5d0024002d01d02000de
:1014800070bd084ca080e360049b6361a160226191
:101490000023a37023702122a3540021fff772fdc3
:0814a0000124ece750090020d3
:020000040000fa
:1014a80010b50b4c2023e45c0023002c01d018005d
:1014b80010bd074b9880dc605c6199601a619c7074
:1014c8001c7021229c540021fff758fd0123eee7f0
:0414d8005009002097
:020000040000fa
:1014dc00f8b5050001262c68344201d000200ee03e
:1014ec002000fff783ff070000f012f92868a042e4
:1014fc00f1d1b043281a3900fff744fe0120f8bda2
:020000040000fa
:10150c00084a1368002b09d007491818884202d8da
:10151c0010601800704701235b42fae7034b13601d
:10152c00f2e7c046dc090020f00b0020f009002097
:020000040000fa
:10153c00f8b5050001276c683c4201d000200de095
:10154c002000fff753ff060000f0e2f86b68a3429f
:0e155c00f1d128003100fff715fe0120f8bd87
:020000040000fa
:02156a00fee79a
:020000040000fa
:10156c001c0500004c05000084050000bc050000b3
:10157c00e605000024060000460600006a0600008e
:0c158c00b006000092060000a40600005b
:020000040000fa
:1015980070b500290fd0002a0dd01500002808d1f9
:1015a8000c008e18012000f0c5f820700134b442f8
:0c15b800f8d1280070bd0025fbe7c046fc
:020000040000fa
:1015c400020000234832d356591e0b4313700423e0
:1015d4004268134005d01023134343600120404266
:0a15e40070470364c3631800fae7c0
:020000040000fa
:0215ee00fee716
:020000040000fa
:1015f000084b1b8a5b070bd0064b07221a829b7b8a
:101600005b0705d5034b04211a8b9a7b0a42fbd159
:081610007047c04600140042bf
:020000040000fa
:10161800f7b5002507000c002e000192019b9e42a1
:1016280001db2800febd626821683800fff7b0ffc3
:0816380001362d180834f1e71a
:020000040000fa
:10164000f7b5002507000c002e000192019b9e4279
:1016500001db2800febd626821683800fff7eafe62
:0816600001362d180834f1e7f2
:020000040000fa
:10166800012370b544689c43651a102d0ad94218a5
:1016780019432b4311605360083203514160100035
:06168800fff7b8fa70bd87
:020000040000fa
:02168e00fee775
:020000040000fa
:1016900010b5064b987bc0b23b229a73044b1b6873
:1016a000002b02d0024a5168984710bd002c00421e
:0416b000b809002055
:020000040000fa
:1016b400d501a81fd30040ad8ed8052002a1c8daf9
:1016c40010913f3f3f3f81bf82bfd9d2d808a4a623
:1016d400af00c046d501a81fd30040ad8ed8052069
:1016e40002a1c8da10913f3f3f3f81bf82bfd9d2e8
:0816f400d808a4a6af00c0460f
:020000040000fa
:1016fc0010b5040000f08ef8002804d1002c01d0a5
:10170c000123237010bd002cfcd002232370f9e7b9
:020000040000fa
:10171c00064b0130c000c258002a05d10200083a1d
:10172c00d21819184a60c2507047c04610040020e5
:020000040000fa
:10173c0000b583b000230193012101a8fff7a6fc9b
:0a174c000028f9d0019803b000bd99
:020000040000fa
:1017560000b583b06b46d87101216b46d81dfff7e3
:0a176600a6fd0028f8d003b000bd76
:020000040000fa
:1017700010b50400fff726ff002805d1a368e26832
:0a178000a36163619b18a36210bd12
:020000040000fa
:02178a007047a6
:020000040000fa
:10178c00d0400b1cd1409c46203ad34018435242c7
:10179c0063469340184370479140031c90409c460d
:1017ac00203a9340194352426346d3401943704741
:020000040000fa
:1017bc00006810b5002801da002010bdfff7a0fe6c
:0617cc00431cfad1f8e70e
:020000040000fa
:0217d20070475e
:020000040000fa
:1017d40010b500f053f8024b1860586010bdc046b5
:0417e400c009002018
:020000040000fa
:1017e80010b5040021004320fef788fe0028f9d038
:0217f80010bd22
:020000040000fa
:1017fa004a424a41802310b55200db00fff79bfca6
:02180a0010bd0f
:020000040000fa
:10180c00002310b59a4200d110bdcc5cc4540133f6
:02181c00f8e7eb
:020000040000fa
:02181e00704711
:020000040000fa
:10182000024a2123d05cc0b27047c0465009002054
:020000040000fa
:10183000024a1368013313607047c0461c08002039
:020000040000fa
:1018400010b5fff7c7fffff7eafffff7e8ff10bd8e
:020000040000fa
:0c185000014b82225a60704700400041aa
:020000040000fa
:0c185c00014b586299627047500900204f
:020000040000fa
:0c186800014b186059607047b80900205f
:020000040000fa
:0a18740010b50068fff7dcfd10bda1
:020000040000fa
:02187e007047b1
:020000040000fa
:081880000048704798080020a1
:020000040000fa
:08188800012040427047c046f8
:020000040000fa
:061890000020002170475a
:020000040000fa
:041898000020704775
:020000040000fa
:0200000400807a
:0440000077c700d8a6
:020000040000fa
:0200000400807a
:044004005c01ffff5d
:00000001FF
