:020000040000fa
:10000000f07f0020814c0000074000009343000077
:1000100000000000000000000000000000000000e0
:10002000000000000000000000000000373c00005d
:100030000000000000000000373c0000373c0000da
:10004000373c0000373c0000373c0000373c0000e4
:10005000373c0000373c0000373c0000373c0000d4
:10006000373c0000cd320000373c0000373c000038
:10007000373c0000373c0000373c0000373c0000b4
:10008000ed530000373c0000373c0000373c0000d7
:10009000373c0000373c0000373c0000373c000094
:0400a000373c0000e9
:020000040000fa
:1000a400f8b5c046f8bc08bc9e467047614c0000d9
:1000b400f8b5c046f8bc08bc9e467047394c0000f1
:020000040000fa
:0800c400903a00000100000069
:020000040000fa
:1000cc0070b586b01f2824d88000d34b1b589f4690
:1000dc00d24c25002135207805f0acfa0134a5422c
:1000ec00f9d10321002005f009fa8321042005f041
:1000fc0012fa002005f0a7fa05f034fac84b2e22ac
:10010c001a80223a5a800021c64804f01bf805f0e8
:10011c0017f906b070bd0321002005f0eff983211b
:10012c00042005f0f8f9002005f08dfabc4c0025f0
:10013c002580658005f016fa0021bb4804f002f812
:10014c002580092363800021b84803f0fbff05f0ec
:10015c00f7f8dee705f012fab14c00252580658032
:10016c000021b34803f0eeff202323800126668094
:10017c000021b04803f0e6ff512323806680002164
:10018c00ad4803f0dfff25800d3565800021ab48bd
:10019c0003f0d8ff6a23238065800021a84803f070
:1001ac00d1ffa84b1b780021002b40d09c4b0f2279
:1001bc001a8008325a80a44803f0c4ffa14b1b7864
:1001cc000021012b39d0964b5b221a80443a5a807d
:1001dc009e4803f0b7ff9e48c37882784178007838
:1001ec000024009403f0fcff9a48c378827841788d
:1001fc000078009403f0f4ff9748c3788278417834
:10020c000078009403f0ecff9448c378827841782e
:10021c000078009403f0e4ff9148c3788278417829
:10022c000078009403f0dcff05f08af871e78d4b41
:10023c00186804f003fc0121b8e78b4b186804f034
:10024c00fdfb0121bfe705f099f90023039304930b
:10025c000593864b1b68012b00d18de038dd022bfa
:10026c0000d123e1032b66d1814b1b78012b00d1ec
:10027c006ee1804b1b78012b00d17be103ad7e4ef0
:10028c0033689b0001225a517c4b5a78644c1b7882
:10029c002380628003997a4803f054ff794b5a7893
:1002ac001b78238062806968774803f04bff774b9b
:1002bc005a781b7823806280a968754803f042ff46
:1002cc0033689b000021734a985804f0b7fb32e066
:1002dc00002b30d1664b1b78012b34d0654b1b782f
:1002ec00012b3ad003ad644e33689b0001225a5166
:1002fc00624b5a784a4c1b7823806280039966487b
:10030c0003f020ff5f4b5a781b782380628069686a
:10031c00624803f017ff5d4b5a781b78238062808c
:10032c00a9685f4803f00eff33689b0000215d4a0b
:10033c00985804f083fb05f003f800234c4a137023
:10034c004c4a1370e5e64c4b1b68002bcad0022bb1
:10035c00c4dc013b484a1360c4e7474b1b68012bc4
:10036c0006dd424b01221a60434b01321a60b9e799
:10037c000133414a1360b5e73d4b1b78012b2dd05f
:10038c003c4b1b78012b38d003ad3b4e33689b00a4
:10039c0001225a51394b5a78214c1b7823806280a8
:1003ac0003993e4803f0cefe364b5a781b782380d7
:1003bc00628069683a4803f0c5fe344b5a781b7862
:1003cc0023806280a9682e4803f0bcfe33689b0032
:1003dc000021354a985804f031fbace7264b1b68da
:1003ec00002b04d1214a1360234a1360cce7022b63
:1003fc00c6dc013b204a1360c6e71f4b1b68012b70
:10040c0005dd0223194a13601b4a1360bce7013354
:10041c00194a1360b8e7c046144400003454000075
:10042c00d40d0020bc0d00205c0a0020140d00200f
:10043c000c0e0020b40d0020680d0020780b00205d
:10044c00dc0d00202f0b0020740d0020ec0d002083
:10045c00380e0020140e0020280e0020300e002034
:10046c00440e00203c0e00202c0e0020040e002018
:10047c00470b00203f0a0020000e0020780e0020c1
:10048c00280c0020740e0020040d0020700e00209b
:10049c00e40d0020500d00203c0c0020d80b002057
:1004ac00d40c00202c0d0020380d0020df4b1b78c5
:1004bc00012b2dd0de4b1b78012b3ad003addd4e3a
:1004cc0033689b0001225a51db4b5a78db4c1b786a
:1004dc00238062800399da4803f034fed94b5a78b2
:1004ec001b78238062806968d74803f02bfed74bba
:1004fc005a781b7823806280a968d54803f022fec5
:10050c0033689b000021d34a985804f097fa12e7fd
:10051c00c84b1b68002b06d1cf4b01221a60c54b70
:10052c0000221a60cae7022bc4dc013bc14a1360eb
:10053c00c4e7c04b1b68012b06ddc74b03221a60b6
:10054c00bc4b013a1a60b9e70133ba4a1360b5e7fc
:10055c00b84b1b68002b06d1bf4b02221a60b54b5f
:10056c0000221a608ae6022b00dd82e6013bb14aca
:10057c00136083e6af4b1b68012b00dd7ee6013375
:10058c00ac4a13607ae604f0f9ffb44b5a78ab4ce2
:10059c001b78238062800021b14803f0d3fdb14b5e
:1005ac005a781b78238062800021af4803f0cafd83
:1005bc00ae4b1b780021002b17d0a04b0d221a80bc
:1005cc0009325a80aa4803f0bdfda84b1b780021c4
:1005dc00012b10d0994b57221a80413a5a80a548ca
:1005ec0003f0b0fd04f0acfe93e5a34b186804f0e7
:1005fc0025fa0121e1e7a14b186804f01ffa01214b
:10060c00e8e704f0bbff954b5a788c4c1b782380a1
:10061c00628000219a4803f095fd924b5a781b7822
:10062c00238062800021904803f08cfd8f4b1b7857
:10063c000021002b17d0814b0d221a8009325a80d1
:10064c008b4803f07ffd894b1b780021012b10d0c8
:10065c007a4b57221a80413a5a80864803f072fd31
:10066c0004f06efe55e5844b186804f0e7f901219f
:10067c00e1e7824b186804f0e1f90121e8e704f0a6
:10068c007dff764a51786d4b12781a805980002183
:10069c006b4803f057fd754b1b780021002b17d0ce
:1006ac00664b0d221a8009325a80764803f04afdb7
:1006bc006e4b1b780021012b10d0604b57221a80f7
:1006cc00413a5a806b4803f03dfd04f039fe20e5b9
:1006dc006d4b186804f0b2f90121e1e7674b18681b
:1006ec0004f0acf90121e8e704f048ff5b4b5a78c1
:1006fc00524c1b78238062800021644803f022fd59
:10070c00584b5a781b782380628000214e4803f0a6
:10071c0019fd564b1b780021002b17d0474b0d228f
:10072c001a8009325a80574803f00cfd4f4b1b7846
:10073c000021012b10d0414b57221a80413a5a808c
:10074c004c4803f0fffc04f0fbfde2e44e4b186850
:10075c0004f074f90121e1e7484b186804f06ef9d4
:10076c000121e8e704f00aff3c4a5178334b127838
:10077c001a8059800021464803f0e4fc04f0e0fda7
:10078c00c7e404f0fbfe354a51782c4b12781a80e2
:10079c00598000213f4803f0d5fc04f0d1fdb8e4aa
:1007ac0004f0ecfe2d4b5a78244c1b78238062808d
:1007bc000021394803f0c6fc0123238015336380e4
:1007cc000021364803f0befc04f0bafda1e404f0ad
:1007dc00d5fe224b5a78194c1b782380628000215d
:1007ec002f4803f0affc01232380153363800021d5
:1007fc002a4803f0a7fc04f0a3fd8ae404f0befe33
:10080c001a4b1b780021002b0ad00c4b02221a80a9
:10081c0014325a80234803f095fc04f091fd78e4df
:10082c00214b186804f00af90121eee7470b002070
:10083c003f0a0020000e0020780e0020d40d00206e
:10084c00d40c0020740e0020280c0020700e002008
:10085c00040d0020440d0020040e0020680e002022
:10086c003c0c0020640e0020240a00202f0b0020da
:10087c00800d0020cc0d0020240e0020100e002036
:10088c00d80b00205c0d0020400e0020000c002036
:10089c00e40c0020a00c0020a80b0020cc0a0020a7
:1008ac00180b0020e40d0020200e002004f066fe42
:1008bc00eb4b5a78eb4c1b78238062800021ea4882
:1008cc0003f040fce94b5a781b78238062800021ae
:1008dc00e74803f037fc01232380153363800021a4
:1008ec00e44803f02ffc04f02bfdfff712fc04f09e
:1008fc0045fedb4b5a78db4c1b7823806280002151
:10090c00dd4803f01ffcd94b5a781b78238062809a
:10091c000021da4803f016fc012323801533638091
:10092c000021d74803f00efc04f00afdfff7f1fba1
:10093c0004f024feca4b5a78ca4c1b782380628080
:10094c000021cd4803f0fefbc84b5a781b7823805e
:10095c0062800021cb4803f0f5fb01232380153383
:10096c0063800021c64803f0edfb04f0e9fcfff7bf
:10097c00d0fb04f003feba4b5a78ba4c1b78238098
:10098c0062800021bc4803f0ddfbb84b5a781b7821
:10099c00238062800021bc4803f0d4fb0123238018
:1009ac00153363800021b64803f0ccfb04f0c8fc7f
:1009bc00fff7affb04f0e2fda94b5a78a94c1b786a
:1009cc00238062800021ac4803f0bcfba74b5a7813
:1009dc001b78238062800021ac4803f0b3fb012319
:1009ec002380153363800021a54803f0abfb04f092
:1009fc00a7fcfff78efb04f0c1fd994b5a78994c7c
:100a0c001b782380628000219b4803f09bfb974b53
:100a1c005a781b782380628000219d4803f092fb5a
:100a2c0001232380153363800021954803f08afb52
:100a3c0004f086fcfff76dfb04f0a0fd884b5a78a0
:100a4c00884c1b782380628000218b4803f07afb52
:100a5c00864b5a781b782380628000218d4803f0e6
:100a6c0071fb01232380153363800021844803f03c
:100a7c0069fb04f065fcfff74cfb04f07ffd784b41
:100a8c005a78784c1b782380628000217a4803f0d6
:100a9c0059fb764b5a781b782380628000217e4864
:100aac0003f050fb0123238015336380002174482d
:100abc0003f048fb04f044fcfff72bfb04f05efd55
:100acc00674b5a78674c1b782380628000217348ef
:100adc0003f038fb01232380153363800021704819
:100aec0003f030fb04f02cfcfff713fb04f046fd85
:100afc005b4b5a785b4c1b782380628000216948e1
:100b0c0003f020fb0123238015336380002164480c
:100b1c0003f018fb04f014fcfff7fbfa04f02efdb5
:100b2c004f4b5a784f4c1b782380628000215e48d3
:100b3c0003f008fb01232380153363800021584800
:100b4c0003f000fb04f0fcfbfff7e3fa04f016fde6
:100b5c00434a5178434b12781a80598000215348ec
:100b6c0003f0f0fa524b1b780021002b18d03d4bb0
:100b7c001e221a80083a5a804e4803f0e3fa4c4b76
:100b8c001b780021012b11d0364b59221a80433a85
:100b9c005a80494803f0d6fa04f0d2fbfff7b9fab1
:100bac00464b186803f04aff0121e0e7444b1868f4
:100bbc0003f044ff0121e7e704f0e0fc284b5a78ee
:100bcc00284c1b782380628000213e4803f0bafa3f
:100bdc00264b5a781b782380628000213a4803f018
:100bec00b1fa01232380153363800021374803f0c9
:100bfc00a9fa3748c37882784178007800240094a9
:100c0c0003f0eefa3348c378827841780078009488
:100c1c0003f0e6fa04f094fbfff77bfa04f0aefc69
:100c2c000f4b5a780f4c1b782380628000212a4886
:100c3c0003f088fa0d4b5a781b78238062800021d0
:100c4c00264803f07ffa01232380153363800021ab
:100c5c00234803f077fa04f073fbfff75afac04607
:100c6c00680e0020d40d0020c00b0020640e002064
:100c7c00000b0020080a0020400a0020480b00202e
:100c8c00cc0a002094090020940a0020780c002043
:100c9c00140c0020500c0020900b0020c40c0020e1
:100cac00d0090020ec0b0020f40c0020780a002066
:100cbc002f0b0020480e00206c0e00204c0e002044
:100ccc00340e0020b00a00208c0c0020ec0900200f
:100cdc00180e00201c0e0020b40c0020600b00200d
:100cec00200d002004f04afc1d4b5a781d4c1b783b
:100cfc002380628000211c4803f024fa1b4b5a7895
:100d0c001b78238062800021194803f01bfa012311
:100d1c002380153363800021164803f013fa04f086
:100d2c000ffbfff7f6f904f029fc0e4b0c221a808e
:100d3c005a800021104803f005fa04f001fbfff77c
:100d4c00e8f904f01bfc074b0b221a8001325a8085
:100d5c0000210a4803f0f6f904f0f2fafff7d9f98a
:100d6c00680e0020d40d0020b40c0020640e00206e
:100d7c00300b0020cc0a0020640c0020e80a002074
:020000040000fa
:100d8c00b40900201c0000000000000048090020ed
:100d9c002c000000000000008c0d0020080000005a
:100dac0000000000f40d0020040000000000000012
:100dbc00f80d00200400000000000000fc0d0020d5
:100dcc0004000000000000003f0a002001000000a9
:100ddc00000000005b0a0020010000000000000081
:100dec00000e00200400000000000000040e002093
:100dfc0004000000000000002f0b00200100000088
:100e0c0000000000470b0020010000000000000063
:100e1c00180600200002000000000000d40d002085
:100e2c0006000000000000005f0b00200100000025
:100e3c00000000007c0e00200200000000000000fa
:100e4c00770b00200100000000000000080e0020bd
:100e5c0004000000000000005c0a00201a000000e2
:100e6c00010000004142434445464748494a4b4c27
:100e7c004d4e4f505152535455565758590000002f
:100e8c00940d002008000000010000000207000083
:100e9c003c1f00009c0d0020080000000100000019
:100eac00040700003c1f0000a40d002008000000f7
:100ebc0001000000050700003c1f0000ac0d0020e5
:100ecc000800000001000000060700003c1f0000a5
:100edc00e40d002005000000010000004241434bde
:100eec00000000000c0e00200400000001000000b7
:100efc0061626300cc0d00200700000001000000bf
:100f0c0043414e43454c0000780a00201a00000073
:100f1c000100000043414e43454c205448452043ba
:100f2c00555252454e54204359434c453f00000006
:100f3c00100e002004000000010000005615741d66
:100f4c00b40c002010000000010000004359434c79
:100f5c00452043414e43454c4c454400940a0020e7
:100f6c00190000000100000043415345204d495336
:100f7c0053494e473a494e534552542043415345e9
:100f8c0000000000680d00200b00000001000000b4
:100f9c00434154482d37307c39390000140c002063
:100fac0013000000010000004341544845544552d1
:100fbc00204558484155535445440000140e002018
:100fcc00040000000100000074007408780c00207c
:100fdc0011000000010000004341544845544552a3
:100fec00204d495353494e47000000003c0c002053
:100ffc0012000000010000004348414e47452041cb
:10100c0049522046494c544552000000d80b002050
:10101c0014000000010000004348414e4745205792
:10102c00415445522046494c54455200c40c0020b2
:10103c0010000000010000005354415455533a4332
:10104c004c45414e494e4700b00a002019000000a3
:10105c00010000005354415455533a434c45414e02
:10106c00494e4720434f4d504c455445000000001d
:10107c00a80b00201500000001000000505552473d
:10108c0045204359434c4520434f4d504c45544506
:10109c0000000000180e00200400000001000000f9
:1010ac000b0b0b131c0e00200400000001000000b1
:1010bc00170b17138c0c002011000000010000000e
:1010cc0030397c30317c323032322d30393a333059
:1010dc0000000000180b00201700000001000000a9
:1010ec0044455343414c45204359434c4520434fc1
:1010fc004d504c4554450000a00c00201100000040
:10110c00010000005354415455533a444553434154
:10111c004c494e4700000000200e00200400000047
:10112c00010000000115151de80a00201800000040
:10113c00010000005341464520544f2052454d4f6d
:10114c0056452043415345204e4f5700ec0b002091
:10115c0014000000010000005354415455533a440c
:10116c004953494e46454354494f4e00f40c002018
:10117c000e000000010000005354415455533a44f2
:10118c005259494e47000000300b00201700000058
:10119c0001000000454d50545920414e4420524509
:1011ac0046494c4c2057415445520000800d0020bc
:1011bc00090000000100000046494e4953484544cf
:1011cc0000000000240e00200400000001000000bc
:1011dc000c15321dd00900201c000000010000007d
:1011ec00484f4c442053454c45435420544f2043c6
:1011fc00414e43454c204359434c4500280e00209a
:10120c000400000001000000000a7f0a500c0020be
:10121c0012000000010000004c45414b20434845a2
:10122c00434b204641494c4544000000000c002033
:10123c0014000000010000004c4f41442044452d97
:10124c005343414c4520464c55494400ec0d00207d
:10125c0005000000010000004d454e550000000047
:10126c002c0e002004000000010000005a166f1e16
:10127c00780e0020020000000100000002020000b5
:10128c00740e00200200000001000000020c00009f
:10129c00700e002002000000010000000216000089
:1012ac00300e00200400000001000000470c471421
:1012bc006c0e002003000000010000004e4f0000e7
:1012cc00340e002004000000010000005815621dbf
:1012dc00140d00200c000000010000005a303132c7
:1012ec003334353637383900200d00200c0000001f
:1012fc0001000000504c45415345205741495400d2
:10130c00b40d00200800000001000000504f442dd7
:10131c00347c3500940900201d0000000100000001
:10132c00504f44204558485541535445443b494e31
:10133c0053455254204e455720504f440000000056
:10134c00380e002004000000010000003a003a08aa
:10135c00480b00201700000001000000504f4420f3
:10136c004d495353494e473a494e534552542050d8
:10137c004f440000ec0900201c000000010000009c
:10138c00505245535320454a45435420544f205501
:10139c00534520434154484554455200cc0a002043
:1013ac0019000000010000005052455353205345d2
:1013bc004c45435420544f20434f4e54494e5545b1
:1013cc0000000000640c002012000000010000006e
:1013dc005354415455533a50524f43455353494e2d
:1013ec0047000000600b0020170000000100000007
:1013fc00434f4d504c4554494e472050555247454c
:10140c00204359434c450000e40c00200f00000021
:10141c00010000005354415455533a50555247491a
:10142c004e4700002c0d00200c00000001000000b5
:10143c0001014e09010b58130115461d380d0020f2
:10144c000c0000000100000001015809010b4613bb
:10145c000115561d440d00200c0000000100000079
:10146c0001014609010b561301153d1d500d0020bd
:10147c000c0000000100000001015609010b3d1396
:10148c000115151d240a00201b000000010000009e
:10149c0052454d4f56452050414e454c2031204130
:1014ac004e44205245504c4143450000780b0020df
:1014bc001700000001000000524550524f434553a5
:1014cc005345442d30387c32397c32303232000076
:1014dc00900b0020170000000100000052455345fe
:1014ec0052564f495220434845434b204641494ca4
:1014fc0045440000680e00200200000001000000be
:10150c0001020000640e0020020000000100000037
:10151c00010c0000740d00200a0000000100000006
:10152c0052554e204359434c45000000280c0020d6
:10153c00130000000100000052554e2044452d536d
:10154c0043414c45204359434c450000d40c0020ea
:10155c00100000000100000052554e20505552471b
:10156c0045204359434c45003c0e0020040000002c
:10157c00010000000e16381e040d00200e000000a5
:10158c00010000005345542054494d452d4441540d
:10159c00450000005c0d00200c0000000100000064
:1015ac005354415254204359434c4500400e0020a3
:1015bc0004000000010000000c153f1dc00b0020b2
:1015cc0015000000010000005354415455533a5388
:1015dc00595354454d5320434845434b000000009c
:1015ec00000b00201800000001000000434c454196
:1015fc004e494e472041424f555420544f2053548e
:10160c0041525400080a00201c0000000100000098
:10161c00484f4c442053454c45435420544f204391
:10162c00414e43454c204359434c4500400a002051
:10163c001b000000010000005354415455533a5311
:10164c00595354454d20434845434b204641494c42
:10165c0045440000dc0d00200600000001000000e5
:10166c0030393b33300000008f0b002001000000ac
:10167c000100000002000000bc0d0020080000006a
:10168c000100000057454c434f4d4500600e0020b3
:10169c00020000000100000040000000440e002089
:1016ac000400000001000000530c5314480e0020ed
:1016bc000400000001000000594553004c0e0020ae
:1016cc0004000000010000001d152c1d500e002010
:1016dc000400000000000000f8080020500000008a
:1016ec000000000018080020780000000100000035
:1016fc0028080020200800202808002000000000f6
:10170c00000000002500000008000020000400007c
:10171c0000000000000000000000000000000000bd
:10172c0000000000000000000000000000000000ad
:10173c0099570000000000000000000000000000ad
:10174c0000000000bd470000000000000000000089
:10175c00000000000000000000000000000000007d
:10176c000000000000000000000000200804000041
:10177c00000000007409002020000000010000009f
:10178c000100000003000000000000000000000049
:10179c00000000000000000000000000c40d00204c
:1017ac00c40d00200800000000000000540e0020b2
:1017bc0004000000000000000804002010020000db
:1017cc0000000000900800206800000001000000ec
:1017dc0001000000030000000000000000000000f9
:1017ec000000000000000000000000002148000084
:1017fc000000000000000000000000007557000011
:10180c00eb5300000000000000000000000000008e
:10181c0000000000000000000000000000000000bc
:10182c0000000000000000000000000000000000ac
:10183c000000000000000000580e00200400000012
:10184c00000000005c0e00200400000000000000fe
:10185c00000000000000000022222222222222226c
:020000040000fa
:10186c00f0b5de4657464e464546e0b58db00020f5
:10187c0003f03af90021cd4803f064ff03f066fe53
:10188c000023cb4a1360cb4a1360cb4a13600baadc
:10189c00137053700aaa1370537009aa1370537003
:1018ac0008aa1370537007aa13705370c34b80228d
:1018bc00d2019a61d2089a6100230193009300250a
:1018cc0000240293049317330593002303939b4640
:1018dc009946b74b98469a46b64f40e000239b4634
:1018ec00049b012b1fd043461b68002b05dd0023f6
:1018fc00524613603b6801333b60ae4b1b68092baf
:10190c0006ddac4b00221a60ab4a1368013313603e
:10191c00a94b1b68002b22dd039b1f2b10d89b00af
:10192c00a74ad3589f46af2003f084fe00230193af
:10193c000093002500240493d5e7029b012b6cd067
:10194c000398fef7bdfb9c4b00221a6001239c46ba
:10195c00e144e344002301930093002500240baee3
:10196c00029bb3702b210b9802f0b2ff3070030472
:10197c001b0e73700002000eb07002900aaeb470b1
:10198c001b210a9802f0a4ff307003041b0e737025
:10199c000402240eb47009aeb5703e21099802f011
:1019ac0097ff307003041b0e737005022d0eb5707b
:1019bc0008ae009bb3700321089802f089ff3070c9
:1019cc0003041b0e73700002000eb070009007ae83
:1019dc00019bb3700221079802f07aff3070030468
:1019ec001b0e73700002000eb0700190012c00d120
:1019fc0074e7012d00d171e7009b012b00d16de73d
:101a0c00012800d16ae76f4b9b4500dc6be7ae20e9
:101a1c0003f010fe0123049365e70393002399461a
:101a2c008ee74b46042b8bdd0323039388e74b4651
:101a3c00042b85dd0323039382e7012d0dd0009b3e
:101a4c00012b0ad0012c23d0019b012b00d077e76e
:101a5c001e3303930023994672e75b4b1b78012bd3
:101a6c0010d0002bf0d1584b01221a70012cebd165
:101a7c000023564a1360544a1370554a13600433ba
:101a8c000393e1e7504b00221a70012cdcd103e0e8
:101a9c004d4b1b78002b04d10f2303930023994645
:101aac00d2e7012bd0d1e3e7012d12d0009b012b03
:101abc001ad0012c00d043e7434b1b78002b21d1cb
:101acc00444a1370404a137006330393002399461b
:101adc0036e7414b01221a703b4b1b78002be5d0ab
:101aec00013b394a1370e1e73c4b01221a70364b2b
:101afc001b78052bddd80133dbb2334a1370012c74
:101b0c0000d01de7012b13d0022b1cd0032b25d0aa
:101b1c00042b2ed000229146052b00d010e72d4b24
:101b2c0005321a70284b00221a700323039307e71f
:101b3c00284b01221a70244b00221a70072303939e
:101b4c0000239946fce6234b02221a701e4b0022fe
:101b5c001a700823039300239946f1e61d4b0322c8
:101b6c001a70194b00221a7009230393002399460b
:101b7c00e6e6184b04221a70134b00221a700e233f
:101b8c00039300239946dbe6012d29d0009b012b02
:101b9c0026d0012c00d0d3e60b4b1b78002b3ad06f
:101bac0000229146012b00d0cae625e0115400001a
:101bbc00f80d0020f40d0020fc0d00200044004125
:101bcc0094430000570200002f0b0020000e002051
:101bdc00040e00205b0a0020470b00203f0a002067
:101bec00be4b1b78012b10d0002bd2d1bb4b01224a
:101bfc001a70012c00d0a3e6b94b1a78b74b1a70a7
:101c0c0004230393002399469ae6b44b00221a70de
:101c1c00012c00d094e603230393002399468fe60e
:101c2c00012d0fd0009b012b0cd0012c00d087e68e
:101c3c00aa4b1b78002b20d000229146012b00d000
:101c4c007ee60be0a54b1b78012b10d0002becd1c2
:101c5c00a24b01221a70012c00d071e6a04b1a780d
:101c6c009e4b1a70042303930023994668e69b4b02
:101c7c0000221a70012c00d062e603230393002388
:101c8c0099465de6012d0fd0009b012b0cd0012c49
:101c9c0000d055e6914b1b78002b20d000229146aa
:101cac00012b00d04ce60be08c4b1b78012b10d099
:101cbc00002becd1894b01221a70012c00d03fe68d
:101ccc00874b1a78854b1a7004230393002399468b
:101cdc0036e6824b00221a70012c00d030e60a2323
:101cec000393002399462be6012d0fd0009b012b6b
:101cfc000cd0012c00d023e6784b1b78002b20d085
:101d0c0000229146012b00d01ae60be0734b1b7896
:101d1c00012b10d0002becd1704b01221a70012c2e
:101d2c0000d00de66e4b1a786c4b1a70042303939b
:101d3c000023994604e6694b00221a70012c00d04e
:101d4c00fee50b23039300239946f9e54b46042b40
:101d5c0000dcf5e50c23039300239946f0e54b4694
:101d6c00042b00dcece50d23039300239946e7e5f7
:101d7c00012c00d0e4e503230393e1e5012c00d012
:101d8c00dee503230393dbe5012c00d0d8e5534bb0
:101d9c001b7800229146002b00d0d1e5504b1a78cd
:101dac004e4b1a7004230393cae54b46022b00dcfe
:101dbc00c6e5012c08d04b46042b00dcc0e51723ec
:101dcc00039300239946bbe51a230393f3e7012cf5
:101ddc0000d0b5e503230393b2e5012c00d0afe5a9
:101dec0003230393ace5012c00d0a9e50323039353
:101dfc00a6e5012c00d0a3e503230393a0e5012c59
:101e0c0000d09de5032303939ae5012c00d097e5c0
:101e1c000323039394e5012c00d091e50323039352
:101e2c008ee5012c08d04b46042b00dc88e51823ea
:101e3c0003930023994683e5039b05931a2303938d
:101e4c00f1e7012c08d04b46042b00dc78e5192374
:101e5c0003930023994673e5039b05931a2303937d
:101e6c00f1e7012c08d04b46042b00dc68e51b2362
:101e7c0003930023994663e5039b05931a2303936d
:101e8c00f1e7012d0cd0009b012b09d0012c00d0c7
:101e9c0056e5124b1b78002b43d0059b03934fe563
:101eac000e4b1b78012b05d0002befd10b4b0122d5
:101ebc001a70ebe7094b00221a70e7e7019b012b24
:101ecc0000d03de51d3303933ae54b46042b00dc73
:101edc0036e51d2303930023994631e52f0b002093
:101eec005b0a0020012c00d02ae50323039327e58d
:101efc004b461d2b00dc23e51f230393002399463f
:101f0c001ee50a4a982380214901d1504b461d2bce
:101f1c0000dc15e59423d150913b039300239946a3
:101f2c000ee51c2303930023994609e50044004168
:020000040000fa
:101f3c000000000000000000000000000000002075
:101f4c000020002000200020000000200050005045
:101f5c00005000000000000000000050005000f88d
:101f6c00005000f8005000500020007800a00070d5
:101f7c00002800f0002000c000c800100020004025
:101f8c0000980018004000a000a0004000a800909d
:101f9c00006800300030002000400000000000000d
:101fac0000100020004000400040002000100040c5
:101fbc00002000100010001000200040006000f015
:101fcc0000f000f000f000f000f000000020002015
:101fdc0000f80020002000000000000000000000bd
:101fec0000300030002000000000000000700000f5
:101ffc0000000000000000000000000000000030a5
:10200c00003000000008001000200040008000009c
:10201c0000600090009000b000d0009000600020a4
:10202c000060002000200020002000f000600090e4
:10203c00001000600080008000f000f00010002014
:10204c0000600010009000600020006000a000a064
:10205c0000f0002000200070008000e00010001054
:10206c000090006000600090008000e00090009004
:10207c00006000f000100010002000200040004024
:10208c000060009000900060009000900060006084
:10209c0000900090007000100010006000000040e4
:1020ac000000000000000040000000000080000064
:1020bc00000000000080000000080010002000401c
:1020cc000020001000080000000000f8000000f8dc
:1020dc00000000000040002000100008001000204c
:1020ec000040007000880008003000200000002034
:1020fc000070008800a800b800b000800078006074
:10210c0000900090009000f00090009000e0009093
:10211c00009000e00090009000e0006000900080d3
:10212c00008000800090006000e000900090009023
:10213c000090009000e000f00080008000e0008043
:10214c00008000f000f00080008000e00080008043
:10215c00008000700080008000b000900090007043
:10216c0000900090009000f000900090009000e033
:10217c000040004000400040004000e00010001013
:10218c00001000100010009000600090009000a063
:10219c0000c000a0009000900080008000800080b3
:1021ac000080008000f000f000a800a800a800a8a3
:1021bc0000a800a800e00090009000900090009013
:1021cc0000900060009000900090009000900060e3
:1021dc0000e00090009000e0008000800080006033
:1021ec00009000900090009000b0007000e0009013
:1021fc00009000e000900090009000700080008043
:10220c0000600010001000e000e0004000400040c2
:10221c000040004000400090009000900090009022
:10222c00009000f0009000900090009000900090c2
:10223c00006000a800a800a800a800a800a80070d2
:10224c000090009000900060009000900090009032
:10225c000090009000700010001000e000f00010e2
:10226c00001000600080008000f00078004000400a
:10227c00004000400040007800000080004000203a
:10228c000010000800000078000800080008000892
:10229c0000080078002000500088000000000000ba
:1022ac00000000000000000000000000000000f82a
:1022bc00006000600020001000000000000000f82a
:1022cc0000f800f800f800f800f800f800f8000832
:1022dc00000800080008000800f80000000000805a
:1022ec0000800080000000000008000800680098d2
:1022fc00008800980068000000000070008800f85a
:10230c0000800070001000280020007000200020c9
:10231c000020000000000070009800980068000881
:10232c000080008000b000c8008800880088002071
:10233c000000006000200020002000700010000051
:10234c0000100010001000900060008000800090d1
:10235c0000a000c000a00090006000200020002021
:10236c000020002000700000000000d000a800a891
:10237c0000a800a80000000000b000c80088008879
:10238c000088000000000070008800880088007041
:10239c000000000000b000c800c800b000800000c1
:1023ac000000006800980098006800080000000019
:1023bc0000b000c8008000800080000000000078a1
:1023cc0000800070000800f00020002000f80020c1
:1023dc000020002800100000000000880088008801
:1023ec0000980068000000000088008800880050f9
:1023fc000020000000000088008800a800a8005001
:10240c0000000000008800500020005000880000f0
:10241c000000008800880078000800880000000098
:10242c0000f800100020004000f8001000200020f0
:10243c000040002000200010008000800080008000
:10244c000080008000800080002000200010002010
:10245c0000200040004000a8001000000000000018
:04246c000000c04666
:020000040000fa
:10247000f0b59db016930b6854680a938b6817905b
:102480000b930b6910911a93cb684d6804931368f2
:102490002100089300220023089802f0ddfc0028a8
:1024a0000bd10a9b5b0737d408230a9a1a400b9b6f
:1024b0000c9205930cd0202303e080231b06e41824
:1024c0002d23049a13700b9b013b059301230c935e
:1024d0000c99049a8c4608996244630011925b0837
:1024e000894a00291ad1934218d1169b874c413b47
:1024f0002100192b00d9211d119803f035f9201d59
:1025000003f0dcf80a9b0200009304990b9b1798d8
:1025100002f03df81db0f0bd2b23d2e7934203d863
:1025200011d1089b002b0ed0169b784c413b21000b
:10253000192b06d80831119803f016f920000c3039
:10254000dee70c31f7e7002200230898210002f0b3
:102550001bfe00266e4f00282fd0002303931698f1
:1025600003f0dcf8c3b20d93002d00dad4e106933a
:10257000672b00d0d9e0002d00d1c9e1039b0433c3
:1025800003db039bab4200dacae06523dee0039b7a
:10259000069e079f0133039300225e4b30003900f3
:1025a00001f05af8089a23000690079102f034fcd3
:1025b0000028ecd00023069326e00390ece7039b71
:1025c0001a00554b9a4214da069b002b11d10022b7
:1025d000524b0898210001f03ff8504b08900c0036
:1025e00030003900002201f037f8012306000f0007
:1025f0000693484b30003900002201f0effb060043
:102600000f00039b013b039332003b00089821001d
:1026100002f022fc0028d2d1a1e708960997069b78
:10262000039c652b00d004e1002402e1089a099b79
:102630000e98129901f0d2fb01f032fc1490159122
:1026400002f06efd10220a9b1340034323d10d9b21
:10265000672b20d1002c2bda013580200006844620
:1026600012990e9a61440b001498159900920193e7
:10267000089a099b03f04af880231b06cb180e909a
:102680001293089809990022224b01f0a7fb013c04
:1026900008900991d2e0002e0ad1002c08da059b9f
:1026a000049a013b05932e231399013753540136a5
:1026b000ea193b009446302102e0049ad1540133d8
:1026c0009c45fad16246059b0137013b5b1b059394
:1026d000049b30307f1998540025bee703983100e1
:1026e00001f0dcfc049b3031013c195503983100aa
:1026f00001f08afc059b0390013b0593cae0049a14
:10270000125c1a540138f6e00000f07ffc5600001d
:102710000000f03f00002440d4feffff00005043c3
:10272000039b002b11da66230693069b0135662b6b
:102730000dd1039b002b03da00230026794f03936e
:102740000d9b672b01d0039bed1866230693089b16
:102750000e960f9712930023139414930e9a0f9bc7
:102760001298139901f03afb01f09afb1890199115
:1027700002f0d6fc1b908020000684461399129a22
:1027800061440b0018981999009201930e9a0f9bbf
:1027900002f0bcff80231b06cb18129013930e98f7
:1027a0000f99614b002201f019fb149b0e900f91c1
:1027b000013314939d42d1d100225c4b00f04cffb9
:1027c0000e900f9102000b001298139902f044fb37
:1027d00000280ad10e9a0f9b1298139902f0d4fc8c
:1027e000002806d01b9bdb0703d4002200230e9297
:1027f0000f930e9a0f9b0898210000f083fc002293
:102800000e901291484b3000390000f025ff0e9acf
:10281000129b0890099102f0bdfa002800d1fce655
:10282000039b01330393069b662b00d0f7e6039cc2
:102830000135631b00252e000c9f1893189b1397de
:10284000a34206d0109b1b691493053b9f4200d204
:10285000ece6002e07d10a9bdb0604d52e23049a52
:102860001399013753540025049bdb1908931d70fd
:10287000069b652b31d11a9b5c1e049b1d55039b47
:10288000ab4202da5b420393013503261a9bf31a2b
:102890000d930736039b002b00d01fe70d9b1b19e0
:1028a000002b00dd1ae7621e2d23002d00d1023b14
:1028b0000499023c8b54169b413b192b01d84523ac
:1028c0000693049b1919069b0b70059b023b05930d
:1028d000a74202da089802f047ff03230a9a13403e
:1028e000022b13d1059b002b10dd049802f0e6fead
:1028f000049b059a9b180c9a824200dcffe6059a1d
:102900003021119802f0eafe00230b930498f7e5ba
:10291000012533e6062531e60d9b672bfad0069399
:10292000062502e70000f03f0000244000001440ac
:020000040000fa
:10293000f0b51c000b6897b008934b6813900d938b
:102940008b6809930b690e93cb6802931368069307
:1029500053680698059300220023059902f07cfa3b
:1029600000280ad1089b5b073cd40820089b099ae1
:10297000034004930ed0202306e0802212069446e2
:10298000059b634405932d23029a1370099b5a1edd
:102990000123049302990498059b081806995b008b
:1029a000413c5b080c9400291ed1b5498b421bd1d8
:1029b000029a049b944663441800b24c0c9b21007d
:1029c000192b00d9211d02f0cffe201d02f076fe4a
:1029d000089b020000930299099b139801f0d7fd10
:1029e00017b0f0bd2b23cfe7a5498b4203d80fd1f9
:1029f000069b002b0cd0a34c0c9b2100192b05d857
:102a0000083102f0b1fe20000c30dfe70c31f8e7ae
:102a1000049b591c302303700c982833192800d9c3
:102a2000203304980230049002984354931e079375
:102a3000002200230698059902f0a6fb002800d189
:102a40006ee100230026904f03930d9b1293002b01
:102a500001da1823129300230a960b97069d059c12
:102a6000109328000a9a0b9b210001f0b7f901f09e
:102a700017fa0a9a0b9b1490159100f0edfd0200d5
:102a80000b002800210002f011fe804b05000c0015
:102a90000a980b99002200f0dffd109b0a900b9121
:102aa00001330f930d9b002b07da0022002328002f
:102ab000210002f069fb002806d1129b109a934274
:102ac00000dd31e101330f9300220a980b99704b1e
:102ad00000f0c2fd0a900b9102000b0028002100bb
:102ae00002f0baf900280dd10a9a0b9b28002100a8
:102af00002f04afb002809d01498159902f010fb47
:102b0000c30703d4002300240a930b940a9a0b9b57
:102b10000698059900f0f6fa1291490006904908c6
:102b2000002803d1564b994200d141e70025049c6f
:102b30000a9505950e9b053ba34230dd3b00320014
:102b40000698129901f04af901f0aaf91090119132
:102b500002f0e6fa031e00d0e8e0059a002a00d150
:102b6000e4e001353200109811993b0000f074fd4b
:102b700002000b000698129902f098fd00220690c0
:102b80001291424b3000390000f066fd059b0600b3
:102b900001330593059a0f9b0f009342cad10a9bfc
:102ba000002b1cd1029b1b19002d00d10ae10d9aac
:102bb000002a00dc06e1089ad20700d502e12e22a5
:102bc00002991a702a198a183021597001339342d8
:102bd000fbd12c19ed43079b0134eb18079300261a
:102be000029b1b191e7005930e9b5d1e029b5e557a
:102bf000039bb34202da5b420393013602230a27a6
:102c00000e9a9b1a0693039b002b00d0c4e0069bf0
:102c10005b19012b00d1bfe06a1e2d23002e00d1cd
:102c2000023b0299023d8b540c9a5023192a00d979
:102c30002033029a51190b70ac4202da059802f067
:102c400093fd0323089a1340022b17d1079c023ce3
:102c5000002c13dd029802f031fd029b1b19049a2f
:102c6000904200dba9e01300029a302194466344ad
:102c70001800220002f032fd002309930298a5e615
:102c80000000f07fec5600000000f03f0000b03f75
:102c90000000204026002f00039b013303933200e5
:102ca0003b003000390000f02dfa04000d00020056
:102cb0000b000698059902f0cff80028ead0320000
:102cc0003b000698059902f0c7f8002800d1bce641
:102cd0000022404b3000390000f0befc00220023ef
:102ce00002f052fa00280fd000223b4b300039008e
:102cf00000f0b2fc002206000f0006980599364b42
:102d000000f0aafc06900591324b300039000022f9
:102d100000f0a2fc039b0600013b0f000393cee7eb
:102d2000039000262d4fbae70f9b99e60a9a002ad6
:102d30000bd1059a002a08d0079a0299013a079206
:102d40002e220a552d3a01340a92291922008c4666
:102d500003e030210298815401329445f9d11800e2
:102d6000029a013462441492079a6419013a521b80
:102d700007925730092b01dc303318000c9b192bbc
:102d800006d820230343613b192b01d802f0cdfc68
:102d9000149b00251870e5e60398390001f07ef9d0
:102da000029b3031013d59550398390001f02cf94f
:102db000079b0390013b079325e7029a125c1a5484
:102dc00001384ce7089ad20600d408e72e220134d5
:102dd0001a7004e70000e03f000050430000f03f9d
:020000040000fa
:102de0000023f0b506001500afb0059101930599d9
:102df0000b78002b00d10fe101235b420a930eab4d
:102e000000240c93802309940b940d930b5d002bed
:102e100001d0252b2ad1002c06d02200300002f050
:102e20002ff9059b1b190593059b1a78252a00d0bd
:102e3000e7e0013302930593022310219c46082703
:102e4000059803782b2b1bd025d8202b1bd0232ba8
:102e50001dd02a2b2ad002f03ff80b90059b1a7840
:102e6000303a092a33d801330593f7e70134cde727
:102e70000122099b80180393134309930590dfe710
:102e80000423099a0ee0099b03933b430be0099b43
:102e900003930b4307e02d2bead0302bd9d16246a8
:102ea000099b0393134309930130e7e72b68013033
:102eb0001a1d1b6805902a600b93002b07da099aec
:102ec0005b420392012203990b934a400992099baa
:102ed000da0702d5022293430993059b1a782e2a1a
:102ee0000ed10022581c0a9205905a782a2a28d11d
:102ef000023305932b681a1d1b682a6003930a93fb
:102f000005a802f027f9059b0700187802f006fcd7
:102f1000692800d183e035dc632800d1d6e01bdcd2
:102f2000252800d1dfe0612859d0252306aa137097
:102f3000029b0593002309930b93013b0a930233f1
:102f4000b2e001f0c9ff0a90059b1a78303a092acd
:102f5000d6d801330593f7e7642860d06728e4dc0e
:102f60002a00390006a802f0c8f9002800d1a9e01b
:102f7000059b09a95a1c05921b7806aa3000fff789
:102f800077fa3de0702800d17de016dc6e2800d194
:102f900091e06f28c9d12b000022390006a801f06a
:102fa00087f8002800d18de0059b06aa013309a906
:102fb0003000059301f062fb22e0752840d07828ac
:102fc0004fd07328b1d1802f00d07be0059b2a68b9
:102fd00001330593131d2b601268002364e02a005f
:102fe000390006a802f089f9002800d16ae0059ba3
:102ff00009a95a1c05921b7806aa3000fff798fc15
:103000002418019b1c19a34200dc74e04f223b4ba7
:103010001a6001235b42019301982fb0f0bd2b0091
:103020000122390006a801f043f800284ad0059b88
:1030300006aa013309a93000059300f08bffdfe7f2
:103040002b000022390006a801f032f8002839d000
:10305000059b06aa013309a93000059301f01ffd65
:10306000cee72b000022390006a801f021f8002845
:1030700028d0059b5a1c05921b7806aa09a9300086
:1030800000f050fcbce72b000022f02106a801f064
:103090000ff8002816d0059b079a01330593069b6d
:1030a000134306d1164a163209a9300001f09cfddf
:1030b000a6e77823e1e7019b39001a1906a82b003f
:1030c00001f048fb059b013305939ae7802ff9d166
:1030d000059b013305932b681a1d1b682a6006aafd
:1030e00013700123e0e7802fecd1059b06aa013382
:1030f00005931070f5e7019479e6c046580e00205c
:04310000b8540000bf
:020000040000fa
:10310400f0b40125ed070f005f405ad48b4200d183
:10311400824205d950404240504059404b405940aa
:103124004e18760ddf187f0d3bd0741c640529d032
:10313400f41b352c26d80e0ddb022b43db0ac90207
:103144002943c9121700202c1ed2e741e240574000
:10315400e3415a40a340e3405a40002480185941b7
:103164000ad3b21c520521d0c207012f62411700b5
:103174004008cb0718434908013636054208af41d9
:1031840060417141f0bc7047203c06d01f00e7410c
:10319400e3405f400024012a6741c0186141ebd33a
:1031a400dfe7002eeed129400020ebe701363105a0
:1031b4000020e7e7e742e5d10020c143090dc90437
:1031c400e0e76b400e00871a9e4104d26e40c01b9c
:1031d400b141d21973414e18df18ac0ae642e9d264
:1031e400760d7f0d31d0f41b362ccbd8b4460e0da2
:1031f400db022b43db0ac9022943c90a012c32d85a
:1032040004d1d4075208df073a435b08ef0a64424b
:10321400904199411ed0002239424dd12419404198
:1032240049410124394204d1013400184941394249
:10323400fad06246a24204d9361b013e36058919ea
:10324400a0e7f10ac90700209ce736429ad1002082
:10325400002197e70200224394d0b842ded2010055
:1032640020002024e3d1202c13dd203ce241170070
:10327400a240e2405740e3415a40a340e3405a4051
:10328400012fbf410137174300227c4298419141ed
:103294000ce01700e741e2405740e3415a40a340a5
:1032a400e3405a407c429041994100220f0303d2eb
:1032b400013e241940414941013e36054708ac41cd
:0832c40050417141f0bc70475c
:020000040000fa
:1032cc0010b56b4b5b7b002b17d0694b1b8a9b0794
:1032dc0014d5684b2022ff2199540132fd399954a1
:1032ec00644a2023d35c5bb2013300d18fe0614a86
:1032fc002023d35c062b00d1a2e010bd5c4b1b8ab3
:10330c00db0707d55b4b2022ff2199540132fd3995
:10331c009954e5e7564b1b8a5b0707d5554b202282
:10332c00ff2199540132fe399954d9e7514a20238f
:10333c00d35c5bb2032b47d0042b0fd0022bcfd125
:10334c001369002b04d09088002101f093fac7e791
:10335c00484b9888012101f08dfac1e7454a9369e1
:10336c00126993420cd0434a9168581c9061ca5c14
:10337c003f4b1a761a00138a1bb2002bfbdbafe70c
:10338c003c4b5b69002b10d03a4b9b885b000122b5
:10339c001343dbb2364a1375138a1bb2002bfbdbcb
:1033ac00344a20230321d1549ae7314a5168c0236f
:1033bc009b020b435360138a1bb2002bfbdb2d4a81
:1033cc0020230621d1548be72a4a5369013bd26949
:1033dc009a420dd0264a138a1bb2002bfbdb254bdd
:1033ec00d968da69501cd861214b1b7e8b5477e766
:1033fc001f4a5168e023db020b435360138a1bb254
:10340c00002bfbdb1b4a20230621d154e2e72023af
:10341c000021d154164a5168c0239b020b435360c0
:10342c00138a1bb2002bfbdb114b03229a73114b3b
:10343c005b6a002b00d160e70e4a906a98475ce704
:10344c001300002220215a5401315a54084b0332e4
:10345c009a7319002d320b8a1340102bfbd1054b9c
:10346c005b6a002b00d148e7024a906a984744e710
:08347c00001000424809002085
:020000040000fa
:1034840030b583b004005c4b1a780a2a03d8930041
:103494005a4ad3589f460020ace0594d2900594858
:1034a40002f04ef900232b70012257493d2001f010
:1034b4001bfe442c04d0504b01221a70002099e0ca
:1034c4004d4b02221a70002094e0504b59704c4b23
:1034d4001b78012b09d04a4b1b780020022b00d00b
:1034e40088e0454b00221a7084e0454b00221a7094
:1034f400023246493d2001f0f7fd3f4b03221a708a
:10350400002077e0424b59703d4b1b78012b08d0cb
:103514003b4b1b780020022b6cd1374b00221a70d6
:1035240068e0374b00221a70023239493d2001f01d
:10353400dbfd314b03221a7000205be0304b1b781b
:10354400012b08d02e4b1b780020022b52d12a4b82
:103554000a221a704ee02a4b00221a70264b0932b6
:103564001a70002046e0264b1b78012b12d0244b06
:103574001b780020022b3dd1264b8022d2019a6178
:103584001f4b00221a7001321f493d3001f0acfd7f
:1035940000202fe01a4b00221a70174b03321a70c6
:1035a400002027e0164b00221a70042300931a4bc4
:1035b400023216493d2001f045fd0f4b06221a70d8
:1035c400002017e00e4b1b78012b08d00c4b1b7806
:1035d4000020022b0ed1084b0a221a700ae0064b77
:1035e40007221a70002005e0034b00221a70012004
:1035f40000e0012003b030bd770b002078520000ba
:103604008f0b0020595400005f0b00207c0e00201b
:0c361400600e002000440041080e002061
:020000040000fa
:1036200008d1002806d1f54204d801d3002a01d1df
:103630006d0d09d10020c143090dc904f0bdf9d1b8
:103640001242f7d1640df5d00020c1434905490865
:10365000a6e000206146f0bdf0b50127ff070e008f
:103660005e403e40b446be0a4c18dd18f442d7d244
:10367000f542e4d2640decd06d0dead06419c902b4
:103680003943460dc0023143db023b43db0a10b431
:103690008e4685b297b26f43140c6c433e0ca4194e
:1036a000260c2404bfb227439cb26c43a419190c06
:1036b0006943250ca4b249190d04090c6419000cc6
:1036c00095b245433e0c76193743bfb2360c150c04
:1036d0004543ad19a6b2240cad192e0437432e0c68
:1036e00036199db24543ad19acb22e0c89191d0c8b
:1036f00045436d182e04290c3443704680b295b2b0
:1037000045433e0c76193743bfb2360c150c454382
:10371000ad19a6b2ad19240c2e0437432e0c361960
:103720009db24543ad19acb22e0c89191d0c454311
:103730006d182e043443290c75462d0c90b2684345
:103740003e0c80190604bfb23e43070ca0b23f18de
:10375000120c6a43d019020c80b2240ca4189ab23d
:103760006a43121914042043120c89181b0c6b4372
:10377000c91810bc01273d05294203d1b6194041a3
:103780004941013cff077d0d013d641b0bdb6d00d2
:10379000ac4209da240500254208be416841614176
:0a37a00066463143f0bd54e74ee7e2
:020000040000fa
:0237aa00704766
:020000040000fa
:1037ac00f0b587b0039003a801f070fb002802da93
:1037bc00002007b0f0bd039b1b095d1e202d09d90d
:1037cc004f49023b4f4a8b4224d8db08d318043ba9
:1037dc001d7801352a000120002101f0f3fe0024a0
:1037ec0043428c4100930194474f00983a687b68a0
:1037fc001040020001990b401a433fd1039b05a8ce
:10380c001033059301f0f6fe002809d10c223f4b32
:10381c001a60cee7db09d318043b1d781135d9e7c4
:10382c003b490c68a04206d0059b0400103b059355
:10383c000123103483600125059be2180a602b4399
:10384c00083a083c28c26360002cb1d0200001f07b
:10385c00c5fc00280bd023686168ab43e31a5a6897
:10386c00aa4352185a606168a94362501c00200098
:10387c00039901f0a1fd200008309ae7214a25495f
:10388c003c32002831d1584203404b43db0ed65c0e
:10389c002036300001f0fafd731cdb00fc58083bad
:1038ac00fb189c42a0d0272e25dd0235ae4201dc50
:1038bc003f2e20d101226368039f9343dd1b280018
:1038cc00009301f061fb864215d1e268a168e3190f
:1038dc00da60996093609a68d360012217431f6085
:1038ec005d60009be5506760c1e7434203404b437a
:1038fc00db0ed65ccde73100200001f047f9b6e7ce
:10390c00ff0100009449000010040020580e002014
:08391c000804002029e66b07f6
:020000040000fa
:10392400f0b58fb00d934b680c9008938b680d0025
:103934000993cb6816000393089b0f68002b60db88
:1039440002239f4310233b400a9333680593736813
:103954000693099b04930a9b002b06d0059b069aa9
:10396400134302d0099b023b049308233b400b936f
:103974005a1e9341049ad31a04932b69039a5c1e2a
:1039840000231355089b0793012c10dd059b069a11
:10399400134339d1079b002b36dc089a049b9b1aee
:1039a400079a9b18002b02dd02231f422cd10a9b8d
:1039b400002b0bd00cce134308d0039b0d9a1b197c
:1039c400013b1a703023039a023c13550b9b002bc6
:1039d40003d02023039a013c13552b6900975a1ee8
:1039e400039b121b19190c98099b00f0cefd0c9b2c
:1039f4005b68db0503d56b68984200da18000fb0ea
:103a0400f0bd012308939de70f22059b013c134061
:103a140018005730092b01dc303318000d9b413b53
:103a2400192b06d820230343613b192b01d801f03d
:103a34007afe039b1855079b013b0793069b1a07c5
:103a4400059b1b091a43069b05921b0906939be7da
:020000040000fa
:103a5400304a136a30490b4002210b431362082396
:103a6400d1680b42fcd02b4b00229a612b4b2c4a81
:103a74005a602c4a9a601a0053785bb2002bfbdb25
:103a8400244a938c80218b4393841023d1680b4266
:103a9400fcd0254b1a68920e3f2a38d0234b1b6862
:103aa4009b059b0d920213431a4a93621b4b82227d
:103ab400d2015a80174a1023d1680b42fcd0154b0f
:103ac4001b4ada621a001023d1680b42fcd0114b56
:103ad40006229a841a004023d1680b42fcd00f4b73
:103ae400144a5a601a0053785bb2002bfbdb0b4b71
:103af400114a5a80114a5a80114a5a80114a5a80ee
:103b0400114b1f225a61da61104a1a627047203a37
:103b1400c4e7c046000800400000ffcf000c00408e
:103b24000106010001fa0000246080002860800082
:103b3400dc05010400070100034000000f40000001
:103b44001040000014400000000400403008010050
:020000040000fa
:103b5400f0b5060085b00f0015001c008b4265d837
:103b640001d1824262d82100280001f03bfd3900d6
:103b74000090300001f036fd009b21001b1a1a0052
:103b84002800039301f022fd00900191019bbb42a8
:103b940046d802d1009bb34242d8009b019c039ab1
:103ba40001200021f61aa74101f010fd039b002b10
:103bb4002fd0019b009adb0754081c43019b5d082e
:103bc400039b9c46bd422ed801d1b4422bd832006f
:103bd4003b00121bab41012692185b410027b6182b
:103be4005f4101235b429c446346002bead1801968
:103bf4007941039a04000d003000390001f0dafc29
:103c0400039a06000f0001f0e1fc241a8d41200004
:103c140029000a9b002b01d01e605f6005b0f0bd37
:103c240000200021c2e7b6197f41dae70020002115
:023c3400efe7b8
:020000040000fa
:023c3600fee7a7
:020000040000fa
:103c3800f0b5de4657464e464546e0b587b0049097
:103c4800059101931300203b5e2b54d804ab1b78dd
:103c5800190003931e002b4b1b888c466344802b52
:103c680049dc04ab59780291264b5b888c46634447
:103c7800202b40dc002938dd203a4a43530099467e
:103c88000025204b9b469a4625e0019a53425a410b
:103c98005b4659884919c9b218880019c0b201f0a1
:103ca80053f80134a6420fdd3b00a34042461342bd
:103cb800ebd0534659884919c9b218880019c0b2bf
:103cc800019a01f041f8ece7013502239c46e144f2
:103cd800029bab4209dd059b4a469f5a002ef3dd45
:103ce800002480231b029846dee7064a13880399be
:103cf8008c466344138007b03cbc90469946a24664
:083d0800ab46f0bdd40d002014
:020000040000fa
:103d1000f7b5002858d00838436801221e009643a2
:103d200085192a680400934200d0ffde01276b68e2
:103d3000226813403b420ed1200001f055fa0028c2
:103d400043d1280001f080fa0028f0d06b68bb4313
:103d5000f618ed18ebe73b003343636030002b604f
:103d600001f018f9019001f097fb6b68226813408d
:103d70003b42e1d0184b019a1868596801f01cfccd
:103d8000384212d1019a0120002101f021fc0b00e0
:103d9000002804d0104a126802430f480260002b2a
:103da00003d00d4a53680b435360019b0a4a013309
:103db000db00d3181a005b68083a66602e60e36087
:103dc000a260d460e3689c60f7bd2368bb43e41a3b
:0c3dd0006368bb43f618b4e71004002041
:020000040000fa
:103ddc00f0b40125ed070c005c402c40a446ae0a63
:103dec004c18df18f4423dd2f74245d2640d4cd04a
:103dfc007f0d3cd0e41bc9022943cf0adb022b43c5
:103e0c00db0a0600b61a9f4104d2013cb6197f4169
:103e1c00b6185f416812800d241838dd00188442f2
:103e2c0025d8e80c0021b6197f41b61a9f4103d35f
:103e3c0040414941f7d304e0b6185f4100184941ad
:103e4c00f1d32405b6197f41b61a9f4105d33743e8
:103e5c00c20717430022012f5041614162461143b2
:103e6c00f0bc70470cd100280ad1f74208d20020d0
:103e7c00c143490d0905f1e7002a01d1f74206d0eb
:103e8c000020c143090dc904eae77f0df8d00020da
:043e9c006146e5e7af
:020000040000fa
:103ea0004b005b0d264af0b55c1e944238d8254a7b
:103eb0009e1825d4332e22dc234a9b1827d4234a6c
:103ec000da400700214b9743f3403c000f000240cb
:103ed0009f4319403d000a430fd0002f0dda2023e5
:103ee0005b42f11824d480204003c84002008021a6
:103ef0004903f1400b00a4185d4120002900f0bdea
:103f00000020002901db0021f9e71149f7e7202211
:103f10000e4b921b934001225242f2401a43d0e7cb
:103f2000002becd10022c90fcb0710001900e6e7e7
:103f300020218020891b400388400200d7e7c0462b
:103f4000fd07000001fcffffe1fbffffffff0f008b
:043f50000000f0bfbe
:020000040000fa
:103f5400f0b54b6889b005930b6807009c4607933e
:103f6400cb680c008e68049310685168cd0f44d060
:103f74000b000200002150429941059b002b08dbf5
:103f84000222634693430793002d02d1079b5a07ed
:103f94002ad5731e07aa02920a22009301920b00eb
:103fa4000200200000f074fa002d02d1079b5a078a
:103fb4001ed501382d23002d00d1023b049a135441
:103fc40023695a1e049b121a1918079b3800009380
:103fd400330000f0dafa7b68db0503d563689842a6
:103fe40000da180009b0f0bd1b07db0ff31ad1e7a4
:103ff4001b07e5d501382023e0e7059b002bbfda3a
:02400400c4e70f
:020000040000fa
:02400600fee7d3
:020000040000fa
:10400800002941d010b4041c4c40a44601230022ce
:10401800002900d54942002800d5404288422cd3c7
:1040280001242407a14204d2814202d209011b01c2
:10403800f8e7e400a14204d2814202d249005b00c1
:10404800f8e7884201d3401a1a434c08a04202d329
:10405800001b5c0822438c08a04202d3001b9c086a
:104068002243cc08a04202d3001bdc0822430028cc
:1040780003d01b0901d00909e3e7101c6446002c92
:1040880000d5404210bc704701b5002001f086fb06
:1040980002bdc0460029f7d003b5fff7b3ff0ebc39
:0840a8004243891a1847c04683
:020000040000fa
:1040b00030b5882933d015dc812941d003dc802933
:1040c0003ed0002030bd822911d08429f9d11c684e
:1040d00002cc1c60002a1ed009b20160c9174160e1
:1040e0000120efe7a02923d00adc9029e9d1072499
:1040f00019680731a14330c9196004604560efe7d2
:10410000c02901d0f029dcd11a68111d196013688b
:104110000360002312e089b201604260e0e71c689e
:1041200002cc1c60002a01d049b2d6e7c9b2f3e73d
:104130001a68111d196013680360db174360cfe72d
:1041400019680c1d1c600b680360002ae5d0f4e7b9
:020000040000fa
:10415000f0b583b00700019101f0b0fa002839dd15
:104160003c003f181c4d1d4e07e0019b2868696804
:10417000fff762fd0134bc422cd02278572af4d0dc
:10418000df2113002d3b0b42efd0632a08d0130030
:104190003a3bdbb21a2b10d81149d940cb0710d5c6
:1041a000019b30687168fff747fde3e70d49019b0c
:1041b00008684968fff740fddce77c2a03d0202a25
:1041c00001d03b2af2d1019b074908684968fff7f3
:1041d00033fdcfe703b0f0bdac0d00209c0d0020f7
:0c41e00001800004a40d0020940d0020bc
:020000040000fa
:1041ec00f0b5de4657464e464546e0b583b0040072
:1041fc000d00904619000193171afa17bf18574073
:10420c005b1bda179818504044459b4102221a4018
:10421c00934601235b429c46e3448d429b41022220
:10422c001a409246e24400903e1a0c9a404600f026
:10423c0089fd00984342994610e00c9a2900200011
:10424c0000f080fd7300994503da009ab61a5c44bd
:10425c00e4b29f4202ddf6195544edb24445ecd16f
:10426c00019b9d42e9d103b03cbc90469946a246c5
:04427c00ab46f0bda0
:020000040000fa
:10428000f0b5c6461f4a204b00b50021934203d229
:10429000197001339342fbd10b231c4a9c46083b07
:1042a00098461368546819000026214311d017005e
:1042b00091680c3700290fd11a19002c03d01e70f9
:1042c00001339342fbd13a0013685468190021432b
:1042d000edd104bc9046f0bd6146c91a1d195118b4
:1042e000002c05d05a1c505c187013009542f9d16f
:1042f000434623405a1e9341a4081c19a4003f19a9
:104300003a00e1e700000020000000208c0d0000d2
:020000040000fa
:10431000f0b51600050002278369426987b0029351
:10432000d31a03939b1904910596019302ac3a00aa
:104330002100286801f032f8019b984208d1ab684f
:10434000ea68ab619a18aa626b61300007b0f0bdf1
:1043500000280cda102200236968ab620a43ab61c3
:104360006b616a60022f12d06368f61aede7019b59
:104370001b1a01936368984202d9c01a0834013f9e
:1043800023681b1823606368181a6060cfe71e005b
:02439000dbe769
:020000040000fa
:02439200fee744
:020000040000fa
:10439400461900003a1a00002e1a0000461a0000be
:1043a400b41a00004c190000941b00002c1c0000df
:1043b400901c0000f41c0000581d00006a1d000041
:1043c4007c1d0000881d0000941d0000b61d000027
:1043d400da1d0000e61d0000f21d0000fe1d0000b5
:1043e4000a1e0000161e0000221e00002e1e0000e1
:1043f4004e1e00006e1e00008e1e0000c81e00002f
:10440400d61e0000f01e0000fc1e00000e1f00005f
:020000040000fa
:104414001e010000dc000000220100006001000019
:10442400520200001e010000920500000e0600006a
:104434008a060000f4060000700700008e070000e2
:10444400ac070000da07000008080000b808000004
:10445400fa0800003c0900007e090000c0090000c1
:10446400020a0000440a0000860a0000c80a00008c
:10447400f80a0000280b0000580b0000c40b0000d1
:10448400280c0000f00c0000320d00004e0d00005e
:020000040000fa
:10449400f0b5050085b019000c9b100001931a6853
:1044a4002b696c68013bef681d00002c00da0124c5
:1044b4000026fe540a9e0123361b0296022616404d
:1044c4000b9ad2170392002d04dc002b17d028007e
:1044d40005b0f0bd02000a4307d1002c05dc029aa6
:1044e4001219002af1dd002eefd00b9a039b00f085
:1044f40011fd013d130030327a55013ce3e71023ee
:0e450400019a12689a431300019a1360dfe7d0
:020000040000fa
:10451200f8b5846a05000f001600002c0ad0ab6ab9
:104522006a699b1ab3420cd2320039002800fff7a5
:10453200eefe05e001f001f803002000002beed0b2
:10454200f8bd002ef0d02b0034331b785bb2002b69
:104552001adb3400dbb2621eb95c994212d122002e
:1045620039002800fff7d3fea042e9d33f19341bdc
:1045720022003900686901f07df86b6930001c196e
:0c4582006c61dde7141ee6d13400f1e7a7
:020000040000fa
:10458e00f0b51e00012389b014000e9a07001a40e0
:10459e000291019220d1b4421eda351b03952a00f6
:1045ae00102d00d91022202104a801f090f80f2d13
:1045be001bdc0f22039b04a913401a00380000f0e5
:1045ce0058fd019b002b04d122000299380000f007
:1045de0050fd300009b0f0bd22000299380000f005
:1045ee0048fdb442d9db2600f3e7102204a93800b7
:0845fe0000f03ffd103ddae77b
:020000040000fa
:024606007047fb
:020000040000fa
:1046080030b51a4b1a4a1a60422203219954413a8a
:1046180040315a5405315a5401315a5400214a2024
:1046280019540130195403301954013019544d38b4
:104638005424185504341a5501341a55023418559f
:10464800273c33251d550834113d1d554434a025fc
:104658006d011d514a341955013418550134195545
:10466800d1315a54dd32985430bdc046004400411f
:0446780004cc00006e
:020000040000fa
:10467c00f0b50b680c008f68cd68496887b00600f0
:10468c000593002902db02218b43059305a953688e
:10469c00126802910821009701912000fff7f4fea7
:1046ac00059bdb0602d5302301382b54059b1b07d9
:1046bc0002d5202301382b54236929185a1e059b37
:1046cc00121a009330003b00fff75bff7368db05a9
:0e46dc0003d56368984200da180007b0f0bdfd
:020000040000fa
:0246ea00704717
:020000040000fa
:1046ec00164b01221a601a00138a1bb2002bfbdb3b
:1046fc00124b802252005a601a00138a1bb2002bf4
:10470c00fbdb0e4be8225a810d4a1a601a00138a01
:10471c001bb2002bfbdb094b10221a821a00138ae6
:10472c001bb2002bfbdb074b002221215a54013911
:10473c005a54024b03325a737047c0460010004261
:08474c001600300048090020ae
:020000040000fa
:1047540010b584291fd007dc812915d0822922d0e5
:10476400802911d0002010bd90291cd008dc882994
:10477400f8d119680c1d1c600b6803601a7010e0f6
:10478400a02901d0c029edd119680c1d1c600b684b
:1047940003601a6005e019680c1d1c600b68036057
:1047a4001a800120dfe719680c1d1c600b68036088
:0847b4001a60d2175a60f4e705
:020000040000fa
:1047bc007fb51600c2680d0013000091591e8b4185
:1047cc00f31a01938368040003926946022200687d
:1047dc00029300f0c9fd002808dc182208230240cf
:1047ec005340626813436360060010e0019b8342f0
:1047fc00fad2a268c01ae3681018e2632064002b96
:10480c0005d0531ce3631378ad19013d2b703000b8
:04481c0004b070bdb7
:020000040000fa
:1048200037b504000d00002801d100203ebd4368cb
:104830009b0607d543698269934217d80023a36278
:10484000a3616361e26b236c9a4206d20121d21a02
:10485000d3170091206800f0a7ff00232364e363cf
:104860009d42e2d0206800f08fffdfe70022c36a9c
:10487000110098476369002be0d101204042d5e741
:020000040000fa
:1048800010b5134b00229a61da61124b03329a730e
:104890005a68114c22405a601a00138a1bb2002b2e
:1048a000fbdb00290ed00a4a20230324d454400005
:1048b0000143c9b2074b19751a00138a1bb2002baa
:1048c000fbdb10bd024a20230424d454efe7c0468a
:0c48d0004809002000100042fffffbff21
:020000040000fa
:1048dc0070b584b0061c000c0d00f6b2c4b24809c9
:1048ec000f4b9c466044c00100f053ff1f21294030
:1048fc000300cb4001201840051e05d12b022004db
:10490c001d43284304b070bd002ef7d1054b802207
:10491c00d201da61044800f0a9fd0124eee7c0469b
:0c492c0088008200004400415c5700003d
:020000040000fa
:1049380000230e4a10b513600d4a13600d4a136028
:104948000d4a13600d4a13600d4a53621361013317
:10495800936000f0b7fefff7c4fe0a4c0a4b9c4276
:1049680000d310bd08cc9847f8e7c046540e002085
:104978000409002000090020f8080020fc08002095
:0c49880008090020b0000000b40000008e
:020000040000fa
:1049940020212223242425252626272728282828c1
:1049a400292929292a2a2a2a2b2b2b2b2c2c2c2c5b
:1049b4002c2c2c2c2d2d2d2d2d2d2d2d2e2e2e2e23
:1049c4002e2e2e2e2f2f2f2f2f2f2f2f0001170299
:1049d4001d1813031e1b190b1408040d1f161c129b
:0c49e4001a0a070c1511090610050f0e29
:020000040000fa
:1049f00070b504000d000020002c21d000f092fcc6
:104a0000002d18d000200f4a0421072605e0138b43
:104a100023800234013085420ed0937b0b42fcd0c0
:104a2000138a334208d153683340012befd0138be4
:104a300023700134eee72800281a45426841c0b2cd
:084a400070bdc04600140042e5
:020000040000fa
:104a4800f0b585b00400240a05002d0c070003907a
:104a58000e00c0b2e4b2edb23f0e009123002a006e
:104a680021000290fff7befb00963b002a002100c0
:104a78002800fff7b7fb00963b00029a3900280090
:104a8800fff7b0fb00962300029802003900fff7f9
:064a9800a9fb05b0f0bd12
:020000040000fa
:104a9e00f0b50b680c008f68cd68496887b00600ca
:104aae000593002902db02218b43059305a9536868
:104abe00126802910a21009701912000fff7e3fc92
:104ace00236929185a1e059b121a009330003b00c9
:104ade00fff756fd7368db0503d56368984200da6d
:064aee00180007b0f0bd46
:020000040000fa
:104af40010b5114b06225a60104b1b681868002130
:104b040000f0aefd0e4b1b681868002100f0a8fdf4
:104b1400fff778fdfef79cff00f01cfa00f00afe98
:104b2400fff7e2fdfef73ffe00f0c4fa00f0ecf8f8
:104b340000f050f910bdc046004000411c080020a0
:044b440090090020b4
:020000040000fa
:104b480070b5040016001d00022a1cd043689b069d
:104b580019d4002908d1002d01d18025ed002800a5
:104b68000830fef71ffe010020236268a16013438e
:104b780063602300e5603433ff22012e00d10a224e
:104b88001a70024be362002070bdc0461345000056
:020000040000fa
:104b980070b5c668856804000a00ae4211d10120cc
:104ba800002100f011fdc043c943431c03d00b4b47
:104bb8001a68104018604b1c03d0084a5368194003
:104bc8005160012319006268b56011439a43ee6091
:104bd8006160a41822681343236070bd100400208c
:020000040000fa
:104be800f0b50f0087b0039015001049072204a8fc
:104bf8001c0000f03cfdbb687e6802933f68002df6
:104c080000d104ad002c03d1280000f053fd0400ae
:104c1800002e02dbb44200d934000097029b220028
:104c280029000398fff7affc07b0f0bd90570000cc
:020000040000fa
:104c380010b5064c2378002b07d1054b002b02d06a
:104c4800044800e000bf0123237010bdb409002010
:104c58000000000000000000044b10b5002b03d03a
:104c68000349044800e000bf10bdc0460000000032
:084c7800b80900200000000053
:020000040000fa
:104c800010b50a4b98470a4b9847fff7f9fa094bba
:104c9000ff229343084a9360084b9847084b984774
:104ca000084b9847fcf7e2fdfee7c04607460000c8
:104cb000074600000000000000ed00e03949000058
:084cc000074600000746000052
:020000040000fa
:104cc80030b5002818d0002918d00d4a012407252e
:104cd80004e003881383023000290bd00139937b49
:104ce8002342fcd053682b40012bf2d00378138366
:104cf8000130f1e7012030bd0020fce70120fae790
:044d08000014004251
:020000040000fa
:104d0c000e4b01221a801a00d37b5bb2002bfbdb0b
:104d1c000a4bec22d2001a80ea2252001a839a3ae9
:104d2c00ff3a9a73064a0021116001225a731a0045
:104d3c00d37b5bb2002bfbdb7047c046002c0042e0
:044d4c008c0d0020aa
:020000040000fa
:104d500010b543b2002b0edb1f290cd8002a0bd153
:104d6000cb08db0118180a4a07231940063b8b4081
:104d7000115c0b43135410bdcb08db011818044c15
:104d80000723194001228a40235c93432354f2e70e
:044d900018060020e1
:020000040000fa
:104d940030b401256d054c00e54215d85c00e542b0
:104da40012d80c001c436400044314430fd005d2f2
:104db40082428b418041013030bc7047904299411e
:104dc4008041013030bc7047002030bc7047012066
:044dd40030bc704738
:020000040000fa
:104dd800bff35f8f62b60c4bc22080001a580b4994
:104de8001140c02212020a431a50802292001a600f
:104df800c42189005a58ff2082433f3802435a5041
:104e0800802252021a60704700e100e0ff00ffffb5
:020000040000fa
:104e180030b401256d054c00e54215d85c00e5422b
:104e280012d80c001c436400044314430cd005d270
:104e380082428b418041404230bc70479042994148
:104e48008041404230bc7047002030bc7047c046ab
:020000040000fa
:104e580030b401256d054c00e54215d85c00e542eb
:104e680012d80c001c436400044314430cd005d230
:104e7800904299418041404230bc704782428b4108
:104e88008041404230bc7047002030bc7047c0466b
:020000040000fa
:104e98000c4a036810b5546a0b4a591e121b9142fa
:104ea8000bd9002b05d00c220120084b40421a6078
:104eb80010bd102202600020fae70f221733934337
:104ec8000360f8e708090020efffff7f580e002075
:020000040000fa
:104ed800030010b51a78202a0dd0110009390429c9
:104ee80009d900212b2a02d02d2a01d10131013301
:104ef80000200a2404e00133ece760430133801a00
:104f08001a78303a092af8d9002900d1404210bd50
:020000040000fa
:104f1800002b11d1002a0fd1002900d1002802d07e
:104f28000021c943081c07b4024802a14018029096
:104f380003bdc0466908000003b4684601b502987d
:104f4800fef704fe019b9e4602b00cbc7047c046ab
:020000040000fa
:104f58000b4b0c4a1a600c4a5a81c02292025a60c2
:104f68001a00138a1bb2002bfbdb054a13680221c7
:104f78000b431360138a1bb2002bfbdb7047c04640
:0c4f880000140042040131402bf6ffff32
:020000040000fa
:104f94000309013b1800202b07d90a4a934205d87c
:104fa4000948db08c318043b18787047e0223f2007
:104fb40052019342f9d80448db09c318043b18781a
:0c4fc4001030f2e7ff01000094490000eb
:020000040000fa
:104fd0001c2101231b04984201d3000c10391b0a29
:104fe000984201d3000a08391b09984201d30009ed
:104ff000043902a2105c40187047c0460403020244
:0c500000010101010000000000000000a0
:020000040000fa
:10500c0070b50c1e0ed0002a0cd01500022801d948
:10501c00280070bd084b002b06d01100200000e0ca
:10502c0000bff5e70025f3e78e182078013400f077
:0c503c0058fab442f9d1ebe70000000084
:020000040000fa
:1050480070b50c4d20242d5d0024002d01d02000ca
:1050580070bd084ca080e360049b6361a16022617d
:105068000023a37023702122a3540021fff704fc1e
:085078000124ece748090020c7
:020000040000fa
:10508000436870b50400d80510d52569954200d94c
:1050900015002a00606900f0eefa226963695b1965
:1050a000551b0022636125611a7070bddb06fcd4bc
:0850b000200000f0bbfaf8e754
:020000040000fa
:1050b8000b4a137801210b43137053785bb2002b12
:1050c800fbdb074b00229a61da611a7802210a4356
:1050d8001a701a0053785bb2002bfbdb7047c0468e
:0450e800001800406c
:020000040000fa
:1050ec0010b50b4c2023e45c0023002c01d01800dd
:1050fc0010bd074b9880dc605c6199601a619c70f4
:10510c001c7021229c540021fff7b4fb0123eee715
:04511c00480900201e
:020000040000fa
:10512000f4464a1805d200f049f801d5c0174008e6
:10513000604701235b05d34206d200f03ff801d55a
:105140000120c0074042604701d10042f5d0d0178e
:04515000400870475c
:020000040000fa
:10515400f0b5050000200a4c4200165d002e02d175
:10516400a2185078f0bd296801300f78c0b2b74258
:1051740003d1a2180131507829600a28ecd9f1e74b
:04518400b85400001b
:020000040000fa
:1051880070b4012676054c005d00e6420cd8ee426c
:105198000ad825430543154303d0994204d19042c8
:1051a80002d1012070bc7047002070bc7047c04617
:020000040000fa
:1051b8004a0010d2520d03231b02ff33d21a0ad41d
:1051c80052421f3209d4400dc90208430123db07ac
:1051d8001843d040704700207047d0177047c0462a
:020000040000fa
:1051e800f8b5050001262c68344201d000200ee0f5
:1051f8002000fff7cbfe070000f04af92868a0421c
:10520800f1d1b043281a3900fff7c2fc0120f8bddc
:020000040000fa
:10521800084a1368002b09d007491818884202d891
:1052280010601800704701235b42fae7034b1360d4
:10523800f2e7c0465c0e002080100020800e00209f
:020000040000fa
:10524800f8b5050001276c683c4201d000200de04c
:105258002000fff79bfe060000f01af96b68a342d6
:0e526800f1d128003100fff793fc0120f8bdc2
:020000040000fa
:0252760070477f
:020000040000fa
:105278009e340000ce3400000835000040350000a0
:105288006a350000a8350000c83500009a340000cf
:0c5298009a340000ec350000f6350000f0
:020000040000fa
:1052a40070b500290fd0002a0dd01500002808d1b0
:1052b4000c008e18012000f00bf920700134b44268
:0c52c400f8d1280070bd0025fbe7c046b3
:020000040000fa
:1052d000020000234832d356591e0b431370042397
:1052e0004268134005d0102313434360012040421d
:0a52f00070470364c3631800fae777
:020000040000fa
:1052fa00002380290fdb812901dd83290bd10721b6
:10530a00136807338b431900083111601a685b6808
:0a531a000260436001231800704791
:020000040000fa
:10532400084b1b8a5b070bd0064b07221a829b7b18
:105334005b0705d5034b04211a8b9a7b0a42fbd1e8
:085344007047c046001400424e
:020000040000fa
:10534c0070b5084c80239b00e51802e00134a5429f
:10535c0006d021784420fef78ff80028f9d0f5e725
:08536c0070bdc04618060020c8
:020000040000fa
:10537400f7b5002507000c002e000192019b9e4208
:1053840001db2800febd626821683800fff788ff52
:0853940001362d180834f1e781
:020000040000fa
:10539c00f7b5002507000c002e000192019b9e42e0
:1053ac0001db2800febd626821683800fff728fe8b
:0853bc0001362d180834f1e759
:020000040000fa
:1053c400012370b544689c43651a102d0ad942180c
:1053d40019432b431160536008320351416010009c
:0653e400fef794fc70bd11
:020000040000fa
:0253ea0070470a
:020000040000fa
:1053ec0010b5064b987bc0b23b229a73044b1b68da
:1053fc00002b02d0024a5168984710bd002c004285
:04540c008c0d0020e3
:020000040000fa
:10541000064a136801331360054b8022d200da611b
:105420009c215a505201da617047c046f80d0020a5
:0454300000440041f3
:020000040000fa
:10543400d501a81fd30040ad8ed8052002a1c8da3b
:1054440010913f3f3f3f81bf82bfd9d2d808a4a665
:04545400af00c0469f
:020000040000fa
:1054580010b5040000f01ef9002804d1002c01d07a
:105468000123237010bd002cfcd002232370f9e720
:020000040000fa
:105478000fb407b5054b04aa1b6802ca1868019245
:1054880000f08af803b008bc04b01847900900205f
:020000040000fa
:10549800064b0130c000c258002a05d10200083a64
:1054a800d21819184a60c2507047c046100400202c
:020000040000fa
:1054b80068076c094c836a9074a07ac00080688879
:0c54c80000846c820081286e696c290051
:020000040000fa
:1054d40000b583b000230193012101a8fff786fae8
:0a54e4000028f9d0019803b000bdc4
:020000040000fa
:1054ee0000b583b06b46d87101216b46d81dfff70e
:0a54fe00e4fb0028f8d003b000bd65
:020000040000fa
:1055080070b505000c00222000f096f8280000f085
:0a55180093f8200000f090f870bd39
:020000040000fa
:1055220070b505000c00212000f089f8280000f079
:0a55320086f8200000f083f870bd39
:020000040000fa
:10553c0010b50400fff7c6fe002805d1a368e26889
:0a554c00a36163619b18a36210bd08
:020000040000fa
:10555800044a138802210b431380d37b5bb2002bd0
:08556800fbdb7047002c004240
:020000040000fa
:10557000044b80229200991800221a7001338b424a
:08558000fbd170471806002062
:020000040000fa
:1055880010b503210020fff7bbff83210420fff79c
:08559800c4fffff7e9ff10bd9d
:020000040000fa
:1055a00013b50400019201aafdf71afc6368db063b
:0855b00001d50120404216bda7
:020000040000fa
:1055b800d0400b1cd1409c46203ad340184352425d
:1055c80063469340184370479140031c90409c46a3
:1055d800203a9340194352426346d34019437047d7
:1055e80010b5002903d1fff7effc203002e0081cba
:0855f800fff7eafc10bdc046fc
:020000040000fa
:10560000006810b5002801da002010bdfff704fe85
:06561000431cfad1f8e78b
:020000040000fa
:1056180010b500f0b1f8024b1860586010bdc046d4
:04562800c40d00208d
:020000040000fa
:10562c00c36a10b5002b01d0984710bd0068fff776
:04563c00e7fcfae7a6
:020000040000fa
:1056400010b5040021004320fdf71cff0028f9d00d
:0256500010bd8b
:020000040000fa
:1056520010b504002020fff7f2ff2000fff7efff54
:0256620010bd79
:020000040000fa
:105664004a424a41802310b55200db00fff76afa30
:0256740010bd67
:020000040000fa
:10567600002310b59a4200d110bdcc5cc45401334e
:02568600f8e743
:020000040000fa
:1056880003000a7818001a7001310133002af8d192
:02569800704759
:020000040000fa
:10569c00024a2123d05cc0b27047c04648090020a2
:020000040000fa
:1056ac00f0b40125ed076b40004c20470b31000096
:020000040000fa
:1056bc0003001a78002a01d1181a70470133f8e751
:020000040000fa
:1056cc0010b5fff7a3fffff7d0fdfff7cefd10bd20
:020000040000fa
:1056dc0003001218934200d1704719700133f9e797
:020000040000fa
:1056ec00494e4600696e66004e414e006e616e007a
:1056fc00494e4600696e66004e414e006e616e006a
:020000040000fa
:10570c0010b5fdf7a3ff029a039bfdf7f5fc10bd46
:020000040000fa
