:020000040000fa
:10000000f07f0020a9350000a32a00007330000013
:1000100000000000000000000000000000000000e0
:10002000000000000000000000000000ab270000fe
:100030000000000000000000ab270000ab2700001c
:10004000ab270000ab270000ab270000ab27000068
:10005000ab270000ab270000ab270000ab27000058
:10006000ab270000311e0000ab270000ab270000cb
:10007000ab270000ab270000ab270000ab27000038
:100080009d3d0000ab270000ab270000ab27000020
:10009000ab270000ab270000ab270000ab27000018
:0400a000ab2700008a
:020000040000fa
:1000a400f8b5c046f8bc08bc9e46704789350000c8
:1000b400f8b5c046f8bc08bc9e46704761350000e0
:020000040000fa
:0800c400042600000100000009
:020000040000fa
:1000cc00541200201c000000000000000812002048
:1000dc002c0000000000000070120020080000003e
:1000ec00000000009e120020010000000000000033
:1000fc00d41000200400000000000000801200203a
:10010c000400000000000000841200200400000025
:10011c00000000009f120020010000000000000001
:10012c00a21200200100000000000000c80a0020fc
:10013c0004020000010000000000000000000000ac
:10014c0000000000000000000000000000000000a3
:10015c000000000000000000000000000000000093
:10016c000000000000000000000000000000000083
:10017c000000000000000000000000000000000073
:10018c000000000000000000000000000000000063
:10019c000000000000000000000000000000000053
:1001ac000000000000000000000000000000000043
:1001bc000000000000000000000000000000000033
:1001cc000000000000000000000000000000000023
:1001dc000000000000000000000000000000000013
:1001ec000000000000000000000000fefe0000fe09
:1001fc000202020204f80000fe0000000000fe22d1
:10020c00222222000000000000000000000000007c
:10021c0000000000000000000000000000000000d2
:10022c0000000000000000000000000000000000c2
:10023c0000000000000000000000000000000000b2
:10024c0000000000000000000000000000000000a2
:10025c000000000000000000000000000000000092
:10026c000000000000000000000000030300000379
:10027c000202020201000000030202020200030259
:10028c00020202000000000000000000000000005c
:10029c000000000000000000000000000000000052
:1002ac000000000000000000000000000000000042
:1002bc000000000000000000000000000000000032
:1002cc000000000000000000000000000000000022
:1002dc000000000000000000000000000000000012
:1002ec000000000000000000000000000000000002
:1002fc0000000000000000000000000000000000f2
:10030c0000000000000000000000000000000000e1
:10031c0000000000000000000000000000000000d1
:10032c0000000000000000000000000000000000c1
:10033c00000000000000000000000000cc0c0020b9
:10034c00040200000100000000000000000000009a
:10035c000000000000000000000000000000000091
:10036c000000000000000000000000000000000081
:10037c000000000000000000000000000000000071
:10038c000000000000000000000000000000000061
:10039c000000000000000000000000000000000051
:1003ac000000000000000000000000000000000041
:1003bc000000000000000000000000000000000031
:1003cc000000000000000000000000000000000021
:1003dc000000000000000000000000000000000011
:1003ec000000000000000000000000fe42424262db
:1003fc003c0000f018080808f00000788000201875
:10040c00c000c0380000f058484848700000f81090
:10041c00080800000000fe0000000000fe0000fec6
:10042c00424242623c00000000000000000000005c
:10043c0000000000000000000000000000000000b0
:10044c0000000000000000000000000000000000a0
:10045c000000000000000000000000000000000090
:10046c00000000000000000000000003000000007d
:10047c00000000010302020201000000030300005f
:10048c00010301000000010202020202000003004d
:10049c000000000000000001020202010000000345
:1004ac000000000000000000000000000000000040
:1004bc000000000000000000000000000000000030
:1004cc000000000000000000000000000000000020
:1004dc000000000000000000000000000000000010
:1004ec000000000000000000000000000000000000
:1004fc0000000000000000000000000000000000f0
:10050c0000000000000000000000000000000000df
:10051c0000000000000000000000000000000000cf
:10052c0000000000000000000000000000000000bf
:10053c0000000000000000000000000000000000af
:10054c00000000000000000000000000d00e0020a1
:10055c000402000001000000ffffefef0fefefefd0
:10056c007fbfbf7fffff3fbfbfffbf1fbfffffffaf
:10057c00ffffffffffffffff7f8f8f3fffffff3f5f
:10058c003fbf6f2fff7f3fbfbf7fff0f0fffffffef
:10059c00ffdfcf0fffffffdfefef1fffff3f7fbf3f
:1005ac00bf7fffbf1fbfbfffffff7f7fffffff03ab
:1005bc00ffffff03ffffff0303ffffff0303ffff2b
:1005cc00030303ff030303ffff0303f3f3f3f3f34b
:1005dc00f3f30303ffffffffffff7f7f7077fff84d
:1005ec00f0f5f5f4fef7f6f5f1fffff0f7ffffff7e
:1005fc00fffefefffffffff37cfdfdfcf1ffff7034
:10060c00fffff0f0fff8f5f5f5f4fff0f0ffffff5a
:10061c00fffffff0fffffff7f3f4f6f7ff80f3f7b0
:10062c007770787f7077777f7ffff7f77f7f7f78a2
:10063c007f7f7f787ffffff8f8fffffff8f8ffff61
:10064c00f8f8f8fff8f8f8ffffe0e0e7e7e7e7e78e
:10065c00e7e7e0e0ffffffffffffffffc0ffe3d591
:10066c00d5f3ffd1d5efe0ddfffffff7f7ffffff7d
:10067c00e3f4f4e3ffc1f9fdc1ffe3d5d5d3ffc02b
:10068c00ffffffe0decee1f9d6d6e0ff81dddde154
:10069c00fffdc0ddffffd9ffffffffffffffffffe7
:1006ac00ccc4c4c4c4c4c4c4c4ffffffefefefef99
:1006bc00efefefefefffffffffffffc7870767e7e6
:1006cc00e7e7e7270787e7ffff7f1f8fcfe7e7e71e
:1006dc00cf8f1f3ffffffffffffffde1fde3f3ffa8
:1006ec00f3efe3fffff7ffffeff1f1efe3ffe1f7cc
:1006fc00ebf7e5ffffe3edf3e3fde7c3fbe3ffe31c
:10070c00ffffebffffffffffffffffffffffffff01
:10071c00ffffffffffffffffffffffffffffffffdd
:10072c00dc9c9c9c9c9c9c9c9cffffffffffffff08
:10073c00fffffffffffffffffffffffffffef8e1e3
:10074c00c3c3f0fcfffffffffff8e0c7cf9f9f9fe5
:10075c00cfcfe0f0ffffffff00000000a31200204e
:10076c000100000000000000a012002002000000a8
:10077c0000000000a4120020010000000000000096
:10078c00881200200400000000000000000000207f
:10079c00b004000001000000000000000000000098
:1007ac00000000000000000000000000000000003d
:1007bc00000000000000000000000000000000002d
:1007cc00000000000000000000000000000000001d
:1007dc00000000000000000000000000000000000d
:1007ec0000000000000000000000000000000000fd
:1007fc0000000000000000000000000000000000ed
:10080c0000000000000000000000000000000000dc
:10081c0000000000000000000000000000000000cc
:10082c0000000000000000000000000000000000bc
:10083c0000000000000000007c008a009200a20072
:10084c007c0000008400fe0080000000000000001e
:10085c00000000000000000000000000000000008c
:10086c00000000000000000000000000000000007c
:10087c00000000000000000000000000000000006c
:10088c00000000000000000000000000000000005c
:10089c00000000000000000000000000000000004c
:1008ac00000000000000000000000000000000003c
:1008bc00000000000000000000000000000000002c
:1008cc00000000000000000000000000000000001c
:1008dc00000000000000000000000000000000000c
:1008ec000000f801240022002400f801fc0124017e
:1008fc0024012401d800f80004010401040188003b
:10090c00fc01040104010401f800fc012401240190
:10091c0024010401fc012400240024000400000034
:10092c0000000000000000000000000000000000bb
:10093c0000000000000000000000000000000000ab
:10094c00000000000000000000000000000000009b
:10095c00000000000000000000000000000000008b
:100c4c000000000000000000a512002001000000c0
:100c5c0001000000020000009c12002002000000b5
:100c6c0001000000400000008c1200200400000075
:100c7c0000000000b811002050000000000000002f
:100c8c00d81000207800000001000000e8100020bf
:100c9c00e0100020e8100020000000000000000020
:100cac0025000000b8040020000400000000000033
:100cbc000000000000000000000000000000000028
:100ccc000000000000000000000000008d4100004a
:100cdc000000000000000000000000000000000008
:100cec004531000000000000000000000000000082
:100cfc0000000000000000000000000000000000e8
:100d0c0000000000b00400200804000000000000f7
:100d1c00341200202000000001000000010000003f
:100d2c0003000000000000000000000000000000b4
:100d3c000000000000000000781200207812002053
:100d4c0008000000000000009012002004000000c9
:100d5c0000000000b8080020100200000000000095
:100d6c00501100206800000001000000010000008c
:100d7c000300000000000000000000000000000064
:100d8c000000000000000000a9310000000000007d
:100d9c000000000000000000614100009b3d0000cd
:100dac000000000000000000000000000000000037
:100dbc000000000000000000000000000000000027
:100dcc000000000000000000000000000000000017
:100ddc00000000009412002004000000000000003d
:100dec009812002004000000000000000000000029
:100dfc00000000002222222222222222222222224f
:020000040000fa
:100e0c00f0b59db016930b6854680a938b681790d5
:100e1c000b930b6910911a93cb684d68049313686c
:100e2c002100089300220023089802f081fc00287e
:100e3c000bd10a9b5b0737d408230a9a1a400b9be9
:100e4c000c9205930cd0202303e080231b06e4189e
:100e5c002d23049a13700b9b013b059301230c93d8
:100e6c000c99049a8c4608996244630011925b08b1
:100e7c00894a00291ad1934218d1169b874c413bc1
:100e8c002100192b00d9211d119803f05df9201dab
:100e9c0003f004f90a9b0200009304990b9b17982a
:100eac0002f06ef81db0f0bd2b23d2e7934203d8ad
:100ebc0011d1089b002b0ed0169b784c413b210086
:100ecc00192b06d80831119803f03ef920000c308c
:100edc00dee70c31f7e7002200230898210002f02e
:100eec00f9fd00266e4f00282fd00023039316988f
:100efc0003f004f9c3b20d93002d00dad4e106938c
:100f0c00672b00d0d9e0002d00d1c9e1039b04333d
:100f1c0003db039bab4200dacae06523dee0039bf4
:100f2c00069e079f0133039300225e4b300039006d
:100f3c0001f046f9089a23000690079102f0d8fbbd
:100f4c000028ecd00023069326e00390ece7039beb
:100f5c001a00554b9a4214da069b002b11d1002231
:100f6c00524b0898210001f02bf9504b08900c00c3
:100f7c0030003900002201f023f9012306000f0094
:100f8c000693484b30003900002201f06ffc06003c
:100f9c000f00039b013b039332003b000898210098
:100fac0002f0c6fb0028d2d1a1e708960997069b50
:100fbc00039c652b00d004e1002402e1089a099bf4
:100fcc000e98129901f052fc01f0b2fc149015919c
:100fdc0002f04cfd10220a9b1340034323d10d9bbe
:100fec00672b20d1002c2bda01358020000684469b
:100ffc0012990e9a61440b00149815990092019362
:10100c00089a099b03f072f880231b06cb180e90ec
:10101c001293089809990022224b01f027fc013cfd
:10102c0008900991d2e0002e0ad1002c08da059b19
:10103c00049a013b05932e2313990137535401361f
:10104c00ea193b009446302102e0049ad154013352
:10105c009c45fad16246059b0137013b5b1b05930e
:10106c00049b30307f1998540025bee7039831005b
:10107c0001f05cfd049b3031013c195503983100a3
:10108c0001f00afd059b0390013b0593cae0049a0d
:10109c00125c1a540138f6e00000f07fe8400000c2
:1010ac000000f03f00002440d4feffff000050433e
:1010bc00039b002b11da66230693069b0135662be6
:1010cc000dd1039b002b03da00230026794f0393e9
:1010dc000d9b672b01d0039bed1866230693089b91
:1010ec000e960f9712930023139414930e9a0f9b42
:1010fc001298139901f0bafb01f01afc189019918f
:10110c0002f0b4fc1b908020000684461399129abe
:10111c0061440b0018981999009201930e9a0f9b39
:10112c0002f0e4ff80231b06cb18129013930e9849
:10113c000f99614b002201f099fb149b0e900f91bb
:10114c00013314939d42d1d100225c4b01f038f84d
:10115c000e900f9102000b001298139902f0e8fa0e
:10116c0000280ad10e9a0f9b1298139902f0b2fc28
:10117c00002806d01b9bdb0703d4002200230e9211
:10118c000f930e9a0f9b0898210000f067fd002228
:10119c000e901291484b3000390001f011f80e9a64
:1011ac00129b0890099102f061fa002800d1fce62c
:1011bc00039b01330393069b662b00d0f7e6039c3d
:1011cc000135631b00252e000c9f1893189b139759
:1011dc00a34206d0109b1b691493053b9f4200d27f
:1011ec00ece6002e07d10a9bdb0604d52e23049acd
:1011fc001399013753540025049bdb1908931d7078
:10120c00069b652b31d11a9b5c1e049b1d55039bc1
:10121c00ab4202da5b420393013503261a9bf31aa5
:10122c000d930736039b002b00d01fe70d9b1b195a
:10123c00002b00dd1ae7621e2d23002d00d1023b8e
:10124c000499023c8b54169b413b192b01d8452326
:10125c000693049b1919069b0b70059b023b059387
:10126c00a74202da089802f06fff03230a9a134090
:10127c00022b13d1059b002b10dd049802f00efffe
:10128c00049b059a9b180c9a824200dcffe6059a97
:10129c003021119802f012ff00230b930498f7e50c
:1012ac00012533e6062531e60d9b672bfad0069314
:1012bc00062502e70000f03f000024400000144027
:020000040000fa
:1012cc00f0b51c000b6897b008934b6813900d9306
:1012dc008b6809930b690e93cb6802931368069382
:1012ec0053680698059300220023059902f020fa12
:1012fc0000280ad1089b5b073cd40820089b099a5c
:10130c00034004930ed0202306e08022120694465c
:10131c00059b634405932d23029a1370099b5a1e57
:10132c000123049302990498059b081806995b0005
:10133c00413c5b080c9400291ed1b5498b421bd152
:10134c00029a049b944663441800b24c0c9b2100f7
:10135c00192b00d9211d02f0f7fe201d02f09efe74
:10136c00089b020000930299099b139801f008fe58
:10137c0017b0f0bd2b23cfe7a5498b4203d80fd173
:10138c00069b002b0cd0a34c0c9b2100192b05d8d1
:10139c00083102f0d9fe20000c30dfe70c31f8e701
:1013ac00049b591c302303700c982833192800d93e
:1013bc00203304980230049002984354931e0793f0
:1013cc00002200230698059902f084fb002800d126
:1013dc006ee100230026904f03930d9b1293002b7c
:1013ec0001da1823129300230a960b97069d059c8d
:1013fc00109328000a9a0b9b210001f037fa01f098
:10140c0097fa0a9a0b9b1490159100f0d9fe0200e2
:10141c000b002800210002f039fe804b05000c0067
:10142c000a980b99002200f0cbfe109b0a900b91ae
:10143c0001330f930d9b002b07da002200232800a9
:10144c00210002f047fb002806d1129b109a934210
:10145c0000dd31e101330f9300220a980b99704b98
:10146c0000f0aefe0a900b9102000b002800210048
:10147c0002f05ef900280dd10a9a0b9b280021007e
:10148c0002f028fb002809d01498159902f0eefa06
:10149c00c30703d4002300240a930b940a9a0b9bd2
:1014ac000698059900f0dafb12914900069049085c
:1014bc00002803d1564b994200d141e70025049cea
:1014cc000a9505950e9b053ba34230dd3b0032008f
:1014dc000698129901f0caf901f02afa10901191ac
:1014ec0002f0c4fa031e00d0e8e0059a002a00d1ed
:1014fc00e4e001353200109811993b0000f060fed9
:10150c0002000b000698129902f0c0fd0022069012
:10151c001291424b3000390000f052fe059b060040
:10152c0001330593059a0f9b0f009342cad10a9b76
:10153c00002b1cd1029b1b19002d00d10ae10d9a26
:10154c00002a00dc06e1089ad20700d502e12e221f
:10155c0002991a702a198a18302159700133934252
:10156c00fbd12c19ed43079b0134eb180793002694
:10157c00029b1b191e7005930e9b5d1e029b5e55f4
:10158c00039bb34202da5b420393013602230a2720
:10159c000e9a9b1a0693039b002b00d0c4e0069b6b
:1015ac005b19012b00d1bfe06a1e2d23002e00d148
:1015bc00023b0299023d8b540c9a5023192a00d9f4
:1015cc002033029a51190b70ac4202da059802f0e2
:1015dc00bbfd0323089a1340022b17d1079c023c36
:1015ec00002c13dd029802f059fd029b1b19049a82
:1015fc00904200dba9e01300029a30219446634428
:10160c001800220002f05afd002309930298a5e667
:10161c000000f07fd84000000000f03f0000b03f19
:10162c000000204026002f00039b0133039332005f
:10163c003b003000390000f011fb04000d000200eb
:10164c000b000698059902f073f80028ead03200d6
:10165c003b000698059902f06bf8002800d1bce617
:10166c000022404b3000390000f0aafd002200237c
:10167c0002f030fa00280fd000223b4b300039002a
:10168c0000f09efd002206000f0006980599364bcf
:10169c0000f096fd06900591324b30003900002287
:1016ac0000f08efd039b0600013b0f000393cee779
:1016bc00039000262d4fbae70f9b99e60a9a002a51
:1016cc000bd1059a002a08d0079a0299013a079281
:1016dc002e220a552d3a01340a92291922008c46e1
:1016ec0003e030210298815401329445f9d118005d
:1016fc00029a013462441492079a6419013a521bfb
:10170c0007925730092b01dc303318000c9b192b36
:10171c0006d820230343613b192b01d802f0f5fcba
:10172c00149b00251870e5e60398390001f0fef9ca
:10173c00029b3031013d59550398390001f0acf949
:10174c00079b0390013b079325e7029a125c1a54fe
:10175c0001384ce7089ad20600d408e72e2201344f
:10176c001a7004e70000e03f000050430000f03f17
:020000040000fa
:10177c000023f0b506001500afb005910193059953
:10178c000b78002b00d10fe101235b420a930eabc7
:10179c0000240c93802309940b940d930b5d002b68
:1017ac0001d0252b2ad1002c06d02200300002f0cb
:1017bc00f1f8059b1b190593059b1a78252a00d077
:1017cc00e7e0013302930593022310219c4608277e
:1017dc00059803782b2b1bd025d8202b1bd0232b23
:1017ec001dd02a2b2ad001f0e3ff0b90059b1a7811
:1017fc00303a092a33d801330593f7e70134cde7a2
:10180c000122099b80180393134309930590dfe78a
:10181c000423099a0ee0099b03933b430be0099bbd
:10182c0003930b4307e02d2bead0302bd9d1624622
:10183c00099b0393134309930130e7e72b680130ad
:10184c001a1d1b6805902a600b93002b07da099a66
:10185c005b420392012203990b934a400992099b24
:10186c00da0702d5022293430993059b1a782e2a94
:10187c000ed10022581c0a9205905a782a2a28d197
:10188c00023305932b681a1d1b682a6003930a9375
:10189c0005a802f005f9059b0700187802f02efc4c
:1018ac00692800d183e035dc632800d1d6e01bdc4d
:1018bc00252800d1dfe0612859d0252306aa137012
:1018cc00029b0593002309930b93013b0a9302336c
:1018dc00b2e001f06dff0a90059b1a78303a092aa4
:1018ec00d6d801330593f7e7642860d06728e4dc89
:1018fc002a00390006a802f0d2f9002800d1a9e08c
:10190c00059b09a95a1c05921b7806aa3000fff703
:10191c0077fa3de0702800d17de016dc6e2800d10e
:10192c0091e06f28c9d12b000022390006a801f0e4
:10193c0007f9002800d18de0059b06aa013309a9ff
:10194c003000059301f058fb22e0752840d0782830
:10195c004fd07328b1d1802f00d07be0059b2a6833
:10196c0001330593131d2b601268002364e02a00d9
:10197c00390006a802f093f9002800d16ae0059b13
:10198c0009a95a1c05921b7806aa3000fff798fc8f
:10199c002418019b1c19a34200dc74e04f223b4b22
:1019ac001a6001235b42019301982fb0f0bd2b000c
:1019bc000122390006a801f0c3f800284ad0059b83
:1019cc0006aa013309a93000059301f00bf8dfe7f3
:1019dc002b000022390006a801f0b2f8002839d0fb
:1019ec00059b06aa013309a93000059301f0bcfc44
:1019fc00cee72b000022390006a801f0a1f8002840
:101a0c0028d0059b5a1c05921b7806aa09a9300000
:101a1c0000f03cfdbce72b000022f02106a801f0f1
:101a2c008ff8002816d0059b079a01330593069b67
:101a3c00134306d1164a163209a9300001f03afdbb
:101a4c00a6e77823e1e7019b39001a1906a82b00b9
:101a5c0001f03efb059b013305939ae7802ff9d1ea
:101a6c00059b013305932b681a1d1b682a6006aa77
:101a7c0013700123e0e7802fecd1059b06aa0133fc
:101a8c0005931070f5e7019479e6c0469412002096
:041a9c00843e000084
:020000040000fa
:101aa000f0b585b0002001f091fc0021614802f002
:101ab00045fb02f037fa00235f4a13605f4a136068
:101ac0005f4a13605f4a98334021d15000245b4f36
:101ad0005d4d083545e05c4802f0a6f9574b002201
:101ae0001a60574a1368013313603de0280002f082
:101af00005f9534b00221a60544b1b780133dbb2bb
:101b0000ff2b0ad0514a1370514b1b780133dbb2c3
:101b1000822b06d84e4a13702ae04c4b00221a70d2
:101b2000f2e74b4b00221a700026f0b202f00cfbd9
:101b3000042002f00ffa8424002002f070fa013c25
:101b4000002cf9d10136042eefd105343a4b1b6835
:101b5000002b06dd384b00221a60384a1368013327
:101b600013603b68092bb6dc354b1b68092bbddcc9
:101b7000062cebd8a300374ad3589f46364c260094
:101b80002136207802f042fa0134a642f9d101242c
:101b9000dce70321002002f09df98321042002f0fc
:101ba000a6f9002002f044fa2c4c81239b00e61891
:101bb000207802f034fa0134b442f9d10321002034
:101bc00002f088f98321042002f091f9002002f04c
:101bd0002ffa234c81239b00e618207802f01ffa8d
:101be0000134a642f9d10424b0e70321002002f019
:101bf00071f98321042002f07af9002002f018fa2a
:101c0000184c81239b00e618207802f008fa013472
:101c1000b442f9d10e4b04221a7001a80a4b0c33be
:101c2000020012cb12c21b781370042101f0fcffda
:101c300006248be78940000080120020d410002089
:101c400084120020004400413c3f00009f1200200d
:101c50009e120020683e0000c03d0000d00e002013
:081c6000cc0c0020c80a002092
:020000040000fa
:101c6800f0b40125ed070f005f405ad48b4200d134
:101c7800824205d950404240504059404b4059405b
:101c88004e18760ddf187f0d3bd0741c640529d0e3
:101c9800f41b352c26d80e0ddb022b43db0ac902b8
:101ca8002943c9121700202c1ed2e741e2405740b1
:101cb800e3415a40a340e3405a4000248018594168
:101cc8000ad3b21c520521d0c207012f6241170066
:101cd8004008cb0718434908013636054208af418a
:101ce80060417141f0bc7047203c06d01f00e741bd
:101cf800e3405f400024012a6741c0186141ebd3eb
:101d0800dfe7002eeed129400020ebe70136310550
:101d18000020e7e7e742e5d10020c143090dc904e7
:101d2800e0e76b400e00871a9e4104d26e40c01b4c
:101d3800b141d21973414e18df18ac0ae642e9d214
:101d4800760d7f0d31d0f41b362ccbd8b4460e0d52
:101d5800db022b43db0ac9022943c90a012c32d80a
:101d680004d1d4075208df073a435b08ef0a6442fc
:101d7800904199411ed0002239424dd12419404149
:101d880049410124394204d10134001849413942fa
:101d9800fad06246a24204d9361b013e360589199b
:101da800a0e7f10ac90700209ce736429ad1002033
:101db800002197e70200224394d0b842ded2010006
:101dc80020002024e3d1202c13dd203ce241170021
:101dd800a240e2405740e3415a40a340e3405a4002
:101de800012fbf410137174300227c42984191419e
:101df8000ce01700e741e2405740e3415a40a34056
:101e0800e3405a407c429041994100220f0303d29b
:101e1800013e241940414941013e36054708ac417d
:081e280050417141f0bc70470c
:020000040000fa
:101e300010b56b4b5b7b002b17d0694b1b8a9b0744
:101e400014d5684b2022ff2199540132fd39995451
:101e5000644a2023d35c5bb2013300d18fe0614a36
:101e60002023d35c062b00d1a2e010bd5c4b1b8a63
:101e7000db0707d55b4b2022ff2199540132fd3946
:101e80009954e5e7564b1b8a5b0707d5554b202233
:101e9000ff2199540132fe399954d9e7514a202340
:101ea000d35c5bb2032b47d0042b0fd0022bcfd1d6
:101eb0001369002b04d09088002101f0a5f9c7e731
:101ec000484b9888012101f09ff9c1e7454a936981
:101ed000126993420cd0434a9168581c9061ca5cc5
:101ee0003f4b1a761a00138a1bb2002bfbdbafe7bd
:101ef0003c4b5b69002b10d03a4b9b885b00012266
:101f00001343dbb2364a1375138a1bb2002bfbdb7b
:101f1000344a20230321d1549ae7314a5168c0231f
:101f20009b020b435360138a1bb2002bfbdb2d4a31
:101f300020230621d1548be72a4a5369013bd269f9
:101f40009a420dd0264a138a1bb2002bfbdb254b8d
:101f5000d968da69501cd861214b1b7e8b5477e716
:101f60001f4a5168e023db020b435360138a1bb204
:101f7000002bfbdb1b4a20230621d154e2e7202360
:101f80000021d154164a5168c0239b020b43536071
:101f9000138a1bb2002bfbdb114b03229a73114bec
:101fa0005b6a002b00d160e70e4a906a98475ce7b5
:101fb0001300002220215a5401315a54084b033295
:101fc0009a7319002d320b8a1340102bfbd1054b4d
:101fd0005b6a002b00d148e7024a906a984744e7c1
:081fe00000100042081200206d
:020000040000fa
:101fe80030b583b00400604b1a780a2a00d9b9e0ea
:101ff80093005e4ad3589f465d4d29005d4802f024
:1020080093f800232b7001225b493d2001f016fd57
:10201800442c04d0544b01221a7000207fe0524b0c
:1020280002221a7000207ae0544b5970504b1b78ea
:10203800012b08d04e4b1b780020022b6fd14a4b46
:1020480000221a706be04a4b00221a7002324b4988
:102058003d2001f0f3fc444b03221a7000205ee09f
:10206800474b5970424b1b78012b08d0404b1b78cb
:102078000020022b53d13c4b00221a704fe03c4bfe
:1020880000221a7002323e493d2001f0d7fc364b3f
:1020980003221a70002042e0354b1b78012b08d030
:1020a800334b1b780020022b39d12f4b0a221a7090
:1020b80035e02f4b00221a702b4b09321a70002082
:1020c8002de02b4b1b78012b12d0294b1b780020bd
:1020d800022b24d12b4b8022d2019a61244b00225f
:1020e8001a70013224493d3001f0a8fc002016e0a6
:1020f8001f4b00221a701c4b03321a7000200ee08e
:102108001b4b00221a70042300931f4b02321b49f9
:102118003d2001f025fc144b06221a70002003b064
:1021280030bd134b1b78012b08d0114b1b780020b6
:10213800022bf4d10c4b0a221a70f0e70a4b072243
:102148001a700020ebe70f4b8022d2015a61064b30
:1021580000221a700120e2e70a4b8022d2019a611c
:102168000120dce70020dae7a4120020fc3b000095
:10217800a5120020073e0000a3120020a012002094
:0c2188009c12002000440041881200203e
:020000040000fa
:1021940008d1002806d1f54204d801d3002a01d180
:1021a4006d0d09d10020c143090dc904f0bdf9d159
:1021b4001242f7d1640df5d00020c1434905490806
:1021c400a6e000206146f0bdf0b50127ff070e0030
:1021d4005e403e40b446be0a4c18dd18f442d7d2e5
:1021e400f542e4d2640decd06d0dead06419c90255
:1021f4003943460dc0023143db023b43db0a10b4d2
:102204008e4685b297b26f43140c6c433e0ca419ee
:10221400260c2404bfb227439cb26c43a419190ca6
:102224006943250ca4b249190d04090c6419000c66
:1022340095b245433e0c76193743bfb2360c150ca4
:102244004543ad19a6b2240cad192e0437432e0c08
:1022540036199db24543ad19acb22e0c89191d0c2b
:1022640045436d182e04290c3443704680b295b250
:1022740045433e0c76193743bfb2360c150c454323
:10228400ad19a6b2ad19240c2e0437432e0c361901
:102294009db24543ad19acb22e0c89191d0c4543b2
:1022a4006d182e043443290c75462d0c90b26843e6
:1022b4003e0c80190604bfb23e43070ca0b23f187f
:1022c400120c6a43d019020c80b2240ca4189ab2de
:1022d4006a43121914042043120c89181b0c6b4313
:1022e400c91810bc01273d05294203d1b619404144
:1022f4004941013cff077d0d013d641b0bdb6d0073
:10230400ac4209da240500254208be416841614116
:0a23140066463143f0bd54e74ee782
:020000040000fa
:02231e00704706
:020000040000fa
:10232000f0b587b0039003a801f028fa002802da7c
:10233000002007b0f0bd039b1b095d1e202d09d9ad
:102340004f49023b4f4a8b4224d8db08d318043b49
:102350001d7801352a000120002101f01ffe002414
:1023600043428c4100930194474f00983a687b6840
:102370001040020001990b401a433fd1039b05a86e
:102380001033059301f022fe002809d10c223f4ba7
:102390001a60cee7db09d318043b1d781135d9e765
:1023a0003b490c68a04206d0059b0400103b0593f6
:1023b0000123103483600125059be2180a602b433a
:1023c000083a083c28c26360002cb1d0200001f01c
:1023d000b7fb00280bd023686168ab43e31a5a6847
:1023e000aa4352185a606168a94362501c00200039
:1023f000039901f0bffc200008309ae7214a2549e3
:102400003c32002831d1584203404b43db0ed65cae
:102410002036300001f018fd731cdb00fc58083b2f
:10242000fb189c42a0d0272e25dd0235ae4201dcf0
:102430003f2e20d101226368039f9343dd1b2800b8
:10244000009301f019fa864215d1e268a168e319f8
:10245000da60996093609a68d360012217431f6025
:102460005d60009be5506760c1e7434203404b431a
:10247000db0ed65ccde73100200000f0f9ffb6e7b7
:10248000ff010000c0320000c008002094120020ac
:08249000b808002029e66b07e3
:020000040000fa
:10249800f0b58fb00d934b680c9008938b680d00c6
:1024a8000993cb6816000393089b0f68002b60db29
:1024b80002239f4310233b400a93336805937368b4
:1024c8000693099b04930a9b002b06d0059b069a4a
:1024d800134302d0099b023b049308233b400b9310
:1024e8005a1e9341049ad31a04932b69039a5c1ecb
:1024f80000231355089b0793012c10dd059b069ab2
:10250800134339d1079b002b36dc089a049b9b1a8e
:10251800079a9b18002b02dd02231f422cd10a9b2d
:10252800002b0bd00cce134308d0039b0d9a1b191c
:10253800013b1a703023039a023c13550b9b002b66
:1025480003d02023039a013c13552b6900975a1e88
:10255800039b121b19190c98099b00f013fd0c9b87
:102568005b68db0503d56b68984200da18000fb08a
:10257800f0bd012308939de70f22059b013c134002
:1025880018005730092b01dc303318000d9b413bf4
:10259800192b06d820230343613b192b01d801f0de
:1025a800b6fd039b1855079b013b0793069b1a072b
:1025b800059b1b091a43069b05921b0906939be77b
:020000040000fa
:1025c800304a136a30490b4002210b431362082337
:1025d800d1680b42fcd02b4b00229a612b4b2c4a22
:1025e8005a602c4a9a601a0053785bb2002bfbdbc6
:1025f800244a938c80218b4393841023d1680b4207
:10260800fcd0254b1a68920e3f2a38d0234b1b6802
:102618009b059b0d920213431a4a93621b4b82221d
:10262800d2015a80174a1023d1680b42fcd0154baf
:102638001b4ada621a001023d1680b42fcd0114bf6
:1026480006229a841a004023d1680b42fcd00f4b13
:10265800144a5a601a0053785bb2002bfbdb0b4b11
:10266800114a5a80114a5a80114a5a80114a5a808e
:10267800114b1f225a61da61104a1a627047203ad8
:10268800c4e7c046000800400000ffcf000c00402f
:102698000106010001fa0000246080002860800023
:1026a800dc05010400070100034000000f400000a2
:1026b80010400000144000000004004030080100f1
:020000040000fa
:1026c800f0b5060085b00f0015001c008b4265d8d8
:1026d80001d1824262d82100280001f067fc39004c
:1026e8000090300001f062fc009b21001b1a1a00c8
:1026f8002800039301f04efc00900191019bbb421e
:1027080046d802d1009bb34242d8009b019c039a51
:1027180001200021f61aa74101f03cfc039b002b85
:102728002fd0019b009adb0754081c43019b5d08ce
:10273800039b9c46bd422ed801d1b4422bd832000f
:102748003b00121bab41012692185b410027b618cb
:102758005f4101235b429c446346002bead1801908
:102768007941039a04000d003000390001f006fc9d
:10277800039a06000f0001f00dfc241a8d41200079
:1027880029000a9b002b01d01e605f6005b0f0bdd8
:1027980000200021c2e7b6197f41dae700200021b6
:0227a800efe759
:020000040000fa
:0227aa00fee748
:020000040000fa
:1027ac00f7b5002858d00838436801221e0096431c
:1027bc0085192a680400934200d0ffde01276b685c
:1027cc00226813403b420ed1200001f0b3f90028df
:1027dc0043d1280001f0f5f90028f0d06b68bb4319
:1027ec00f618ed18ebe73b003343636030002b60c9
:1027fc0001f03cf8019001f021fb6b68226813405a
:10280c003b42e1d0184b019a1868596801f0b4fbaf
:10281c00384212d1019a0120002101f0b9fb0b00c2
:10282c00002804d0104a126802430f480260002ba3
:10283c0003d00d4a53680b435360019b0a4a013382
:10284c00db00d3181a005b68083a66602e60e36000
:10285c00a260d460e3689c60f7bd2368bb43e41ab4
:0c286c006368bb43f618b4e7c008002006
:020000040000fa
:10287800f0b40125ed070c005c402c40a446ae0adc
:102888004c18df18f4423dd2f74245d2640d4cd0c3
:102898007f0d3cd0e41bc9022943cf0adb022b433e
:1028a800db0a0600b61a9f4104d2013cb6197f41e3
:1028b800b6185f416812800d241838dd001884426c
:1028c80025d8e80c0021b6197f41b61a9f4103d3d9
:1028d80040414941f7d304e0b6185f410018494127
:1028e800f1d32405b6197f41b61a9f4105d3374362
:1028f800c20717430022012f50416141624611432c
:10290800f0bc70470cd100280ad1f74208d2002049
:10291800c143490d0905f1e7002a01d1f74206d064
:102928000020c143090dc904eae77f0df8d0002053
:042938006146e5e728
:020000040000fa
:10293c004b005b0d264af0b55c1e944238d8254af4
:10294c009e1825d4332e22dc234a9b1827d4234ae5
:10295c00da400700214b9743f3403c000f00024044
:10296c009f4319403d000a430fd0002f0dda20235e
:10297c005b42f11824d480204003c840020080211f
:10298c004903f1400b00a4185d4120002900f0bd63
:10299c000020002901db0021f9e71149f7e720228b
:1029ac000e4b921b934001225242f2401a43d0e745
:1029bc00002becd10022c90fcb0710001900e6e761
:1029cc0020218020891b400388400200d7e7c046a5
:1029dc00fd07000001fcffffe1fbffffffff0f0005
:0429ec000000f0bf38
:020000040000fa
:1029f000f0b54b6889b005930b6807009c460793b8
:102a0000cb680c008e68049310685168cd0f44d0d9
:102a10000b000200002150429941059b002b08db6e
:102a20000222634693430793002d02d1079b5a0766
:102a30002ad5731e07aa02920a22009301920b0064
:102a40000200200000f0e7f9002d02d1079b5a0791
:102a50001ed501382d23002d00d1023b049a1354ba
:102a600023695a1e049b121a1918079b38000093f9
:102a7000330000f08bfa7b68db0503d5636898426e
:102a800000da180009b0f0bd1b07db0ff31ad1e71d
:102a90001b07e5d501382023e0e7059b002bbfdab3
:022aa000c4e789
:020000040000fa
:022aa200fee74d
:020000040000fa
:102aa400002941d010b4041c4c40a4460123002248
:102ab400002900d54942002800d5404288422cd341
:102ac40001242407a14204d2814202d209011b013c
:102ad400f8e7e400a14204d2814202d249005b003b
:102ae400f8e7884201d3401a1a434c08a04202d3a3
:102af400001b5c0822438c08a04202d3001b9c08e4
:102b04002243cc08a04202d3001bdc082243002845
:102b140003d01b0901d00909e3e7101c6446002c0b
:102b240000d5404210bc704701b5002001f030fbd5
:102b340002bdc0460029f7d003b5fff7b3ff0ebcb2
:082b44004243891a1847c046fc
:020000040000fa
:102b4c0030b5882933d015dc812941d003dc8029ac
:102b5c003ed0002030bd822911d08429f9d11c68c7
:102b6c0002cc1c60002a1ed009b20160c91741605a
:102b7c000120efe7a02923d00adc9029e9d1072412
:102b8c0019680731a14330c9196004604560efe74b
:102b9c00c02901d0f029dcd11a68111d1960136805
:102bac000360002312e089b201604260e0e71c6818
:102bbc0002cc1c60002a01d049b2d6e7c9b2f3e7b7
:102bcc001a68111d196013680360db174360cfe7a7
:102bdc0019680c1d1c600b680360002ae5d0f4e733
:020000040000fa
:102bec00f0b5c6461f4a204b00b50021934203d2d4
:102bfc00197001339342fbd10b231c4a9c46083bb2
:102c0c0098461368546819000026214311d0170008
:102c1c0091680c3700290fd11a19002c03d01e70a3
:102c2c0001339342fbd13a001368546819002143d5
:102c3c00edd104bc9046f0bd6146c91a1d1951185e
:102c4c00002c05d05a1c505c187013009542f9d119
:102c5c00434623405a1e9341a4081c19a4003f1953
:102c6c003a00e1e70000002000000020cc0000004a
:020000040000fa
:102c7c00f0b5c64600b580460e001d4b18701d4bb6
:102c8c0000221a700321002001f01ef93300203bb2
:102c9c009e00f3185b00184e9c190a36f618250096
:102cac00134f3878832101f01cf93b7801333b70ca
:102cbc00287801f0aef90235b542f2d1032101209a
:102ccc0001f002f90a4b42461a701d002878832144
:102cdc0001f007f92b7801332b702088000a01f0e2
:102cec0098f90234b442f1d104bc9046f0bdc04610
:0c2cfc009e120020a21200200000002008
:020000040000fa
:102d0800002934d00123002210b488422cd3012496
:102d18002407a14204d2814202d209011b01f8e72b
:102d2800e400a14204d2814202d249005b00f8e7e4
:102d3800884201d3401a1a434c08a04202d3001b10
:102d48005c0822438c08a04202d3001b9c08224343
:102d5800cc08a04202d3001bdc082243002803d081
:102d68001b0901d00909e3e7101c10bc704701b525
:102d7800002001f00bfa02bd0029f8d003b5fff7d7
:0c2d8800c1ff0ebc4243891a1847c04628
:020000040000fa
:102d9400f0b51600050002278369426987b00293e3
:102da400d31a03939b1904910596019302ac3a003c
:102db4002100286800f0c8ff019b984208d1ab6845
:102dc400ea68ab619a18aa626b61300007b0f0bd83
:102dd40000280cda102200236968ab620a43ab6155
:102de4006b616a60022f12d06368f61aede7019beb
:102df4001b1a01936368984202d9c01a0834013f30
:102e040023681b1823606368181a6060cfe71e00ec
:022e1400dbe7fa
:020000040000fa
:102e1600f0b5050085b019000c9b100001931a68e7
:102e26002b696c68013bef681d00002c00da012459
:102e36000026fe540a9e0123361b029602261640e1
:102e46000b9ad2170392002d04dc002b17d0280012
:102e560005b0f0bd02000a4307d1002c05dc029a3a
:102e66001219002af1dd002eefd00b9a039b00f019
:102e7600c2fc013d130030327a55013ce3e71023d2
:0e2e8600019a12689a431300019a1360dfe765
:020000040000fa
:102e940010b51c4b1c4a1a60422203219954413a32
:102ea40040315a5405315a5401315a5400214a20b0
:102eb4001954043019540130195405301a5404308b
:102ec4001a5401301a54253833241c540830113c48
:102ed4001c544430b22464011c5010308024a400db
:102ee4001c5030301a540630195403301954013030
:102ef40019540130ff3cff3c1c5401301954d131aa
:0c2f04005a5410bd0044004104c40000f9
:020000040000fa
:102f1000f8b5846a05000f001600002c0ad0ab6ad1
:102f20006a699b1ab3420cd2320039002800fff7bd
:102f300031ff05e000f0e8ff03002000002beed099
:102f4000f8bd002ef0d02b0034331b785bb2002b81
:102f50001adb3400dbb2621eb95c994212d1220046
:102f600039002800fff716ffa042e9d33f19341bb0
:102f700022003900686901f06df86b6930001c1996
:0c2f80006c61dde7141ee6d13400f1e7bf
:020000040000fa
:102f8c00f0b51e00012389b014000e9a07001a40f8
:102f9c000291019220d1b4421eda351b03952a000e
:102fac00102d00d91022202104a801f087f80f2d34
:102fbc001bdc0f22039b04a913401a00380000f0fd
:102fcc00e9fc019b002b04d122000299380000f08f
:102fdc00e1fc300009b0f0bd22000299380000f08d
:102fec00d9fcb442d9db2600f3e7102204a938003f
:082ffc0000f0d0fc103ddae703
:020000040000fa
:10300400f0b50b680c008f68cd68496887b006007e
:103014000593002902db02218b43059305a953681c
:10302400126802910821009701912000fff7f1fe38
:10303400059bdb0602d5302301382b54059b1b0767
:1030440002d5202301382b54236929185a1e059bc5
:10305400121a009330003b00fff796ff7368db05fc
:0e30640003d56368984200da180007b0f0bd8b
:020000040000fa
:02307200fee777
:020000040000fa
:10307400164b01221a601a00138a1bb2002bfbdbc9
:10308400124b802252005a601a00138a1bb2002b82
:10309400fbdb0e4be8225a810d4a1a601a00138a90
:1030a4001bb2002bfbdb094b10221a821a00138a75
:1030b4001bb2002bfbdb074b002221215a540139a0
:1030c4005a54024b03325a737047c04600100042f0
:0830d400160030000812002074
:020000040000fa
:1030dc0010b584291fd007dc812915d0822922d074
:1030ec00802911d0002010bd90291cd008dc882923
:1030fc00f8d119680c1d1c600b6803601a7010e085
:10310c00a02901d0c029edd119680c1d1c600b68d9
:10311c0003601a6005e019680c1d1c600b680360e5
:10312c001a800120dfe719680c1d1c600b68036016
:08313c001a60d2175a60f4e793
:020000040000fa
:103144007fb51600c2680d0013000091591e8b4113
:10315400f31a01938368040003926946022200680b
:10316400029300f0ddfd002808dc18220823024049
:103174005340626813436360060010e0019b83427e
:10318400fad2a268c01ae3681018e2632064002b24
:1031940005d0531ce3631378ad19013d2b70300047
:0431a40004b070bd46
:020000040000fa
:1031a80037b504000d00002801d100203ebd43685a
:1031b8009b0607d543698269934217d80023a36207
:1031c800a3616361e26b236c9a4206d20121d21a91
:1031d800d3170091206800f0dbff00232364e3632a
:1031e8009d42e2d0206800f0c5ffdfe70022c36af5
:1031f800110098476369002be0d101204042d5e7d0
:020000040000fa
:1032080010b5134b00229a61da61124b03329a739c
:103218005a68114c22405a601a00138a1bb2002bbc
:10322800fbdb00290ed00a4a20230324d454400093
:103238000143c9b2074b19751a00138a1bb2002b38
:10324800fbdb10bd024a20230424d454efe7c04618
:0c3258000812002000100042fffffbffe6
:020000040000fa
:1032640000230e4a10b513600d4a13600d4a136013
:103274000d4a13600d4a13600d4a53621361013302
:10328400936000f017ff00f068f90a4c0a4b9c4267
:1032940000d310bd08cc9847f8e7c0469012002030
:1032a400c4110020c0110020b8110020bc1100205e
:0c32b400c8110020b0000000b4000000b1
:020000040000fa
:1032c00020212223242425252626272728282828ac
:1032d000292929292a2a2a2a2b2b2b2b2c2c2c2c46
:1032e0002c2c2c2c2d2d2d2d2d2d2d2d2e2e2e2e0e
:1032f0002e2e2e2e2f2f2f2f2f2f2f2f0001170284
:103300001d1813031e1b190b1408040d1f161c1285
:0c3310001a0a070c1511090610050f0e13
:020000040000fa
:10331c0070b504000d000020002c21d000f0d4fc6e
:10332c00002d18d000200f4a0421072605e0138b2e
:10333c0023800234013085420ed0937b0b42fcd0ab
:10334c00138a334208d153683340012befd0138bcf
:10335c0023700134eee72800281a45426841c0b2b8
:08336c0070bdc04600140042d0
:020000040000fa
:10337400f0b50b680c008f68cd68496887b006000b
:103384000593002902db02218b43059305a95368a9
:10339400126802910a21009701912000fff739fd7c
:1033a400236929185a1e059b121a009330003b000a
:1033b400fff7eafd7368db0503d56368984200da1a
:0633c400180007b0f0bd87
:020000040000fa
:0233ca0070474a
:020000040000fa
:1033cc0010b5114b06225a60104b1b68186800216f
:1033dc0000f031fe0e4b1b681868002100f02bfe2c
:1033ec00fff752fdfff7eaf800f022fa00f094fe26
:1033fc00fff73afefef78dff00f004fb00f014f926
:10340c0000f056f910bdc04600400041dc10002011
:04341c00501200202a
:020000040000fa
:1034200070b5040016001d00022a1cd043689b06dc
:1034300019d4002908d1002d01d18025ed002800e4
:103440000830fef76dff010020236268a16013437e
:1034500063602300e5603433ff22012e00d10a228d
:103460001a70024be362002070bdc046112f0000ad
:020000040000fa
:1034700070b5c668856804000a00ae4211d101200b
:10348000002100f08bfdc043c943431c03d00b4b0c
:103490001a68104018604b1c03d0084a5368194042
:1034a0005160012319006268b56011439a43ee60d0
:1034b0006160a41822681343236070bdc008002017
:020000040000fa
:1034c000f0b50f0087b0039015001049072204a83b
:1034d0001c0000f0bffdbb687e6802933f68002db2
:1034e00000d104ad002c03d1280000f0ddfd040064
:1034f000002e02dbb44200d934000097029b220068
:1035000029000398fff742fd07b0f0bd8441000099
:020000040000fa
:1035100037b56b46dd1d836a04002970002b0cd083
:103520006369a26a93420fd3e36a01222900200053
:103530009847012805d1287805e000f0e5fc00282f
:10354000eed0012040423ebd22003432127828786d
:0e35500052b29042e8d05a1c62611870f3e744
:020000040000fa
:02355e007047b4
:020000040000fa
:1035600010b5064c2378002b07d1054b002b02d059
:10357000044800e000bf0123237010bd5412002056
:103580000000000000000000044b10b5002b03d029
:103590000349044800e000bf10bdc0460000000021
:0835a000581200200000000099
:020000040000fa
:1035a80010b50a4b98470a4b9847fff71bfb094b86
:1035b800ff229343084a9360084b9847084b984763
:1035c800084b9847fef768fafee7c046cb33000081
:1035d800cb3300000000000000ed00e06532000081
:0835e800cb330000cb330000df
:020000040000fa
:1035f00030b5002818d0002918d00d4a012407251d
:1036000004e003881383023000290bd00139937b37
:103610002342fcd053682b40012bf2d00378138354
:103620000130f1e7012030bd0020fce70120fae77e
:043630000014004240
:020000040000fa
:103634000e4b01221a801a00d37b5bb2002bfbdbfa
:103644000a4bec22d2001a80ea2252001a839a3ad8
:10365400ff3a9a73064a0021116001225a731a0034
:10366400d37b5bb2002bfbdb7047c046002c0042cf
:0436740070120020b0
:020000040000fa
:1036780030b401256d054c00e54215d85c00e542e3
:1036880012d80c001c436400044314430fd005d225
:1036980082428b418041013030bc70479042994151
:1036a8008041013030bc7047002030bc7047012099
:0436b80030bc70476b
:020000040000fa
:1036bc00bff35f8f62b60c4bc22080001a580b49c7
:1036cc001140c02212020a431a50802292001a6042
:1036dc00c42189005a58ff2082433f3802435a5074
:1036ec00802252021a60704700e100e0ff00ffffe9
:020000040000fa
:1036fc0030b401256d054c00e54215d85c00e5425f
:10370c0012d80c001c436400044314430cd005d2a3
:10371c0082428b418041404230bc7047904299417b
:10372c008041404230bc7047002030bc7047c046de
:020000040000fa
:10373c0030b401256d054c00e54215d85c00e5421e
:10374c0012d80c001c436400044314430cd005d263
:10375c00904299418041404230bc704782428b413b
:10376c008041404230bc7047002030bc7047c0469e
:020000040000fa
:10377c000c4a036810b5546a0b4a591e121b91422d
:10378c000bd9002b05d00c220120084b40421a60ab
:10379c0010bd102202600020fae70f22173393436a
:1037ac000360f8e7c8110020efffff7f94120020a0
:020000040000fa
:1037bc00030010b51a78202a0dd0110009390429fc
:1037cc0009d900212b2a02d02d2a01d10131013334
:1037dc0000200a2404e00133ece760430133801a33
:1037ec001a78303a092af8d9002900d1404210bd84
:020000040000fa
:1037fc00002b11d1002a0fd1002900d1002802d0b2
:10380c000021c943081c07b4024802a140180290c9
:10381c0003bdc0467509000003b4684601b50298a3
:10382c00fef74cff019b9e4602b00cbc7047c04695
:020000040000fa
:10383c000b4b0c4a1a600c4a5a81c02292025a60f5
:10384c001a00138a1bb2002bfbdb054a13680221fa
:10385c000b431360138a1bb2002bfbdb7047c04673
:0c386c0000140042040131402bf6ffff65
:020000040000fa
:103878000309013b1800202b07d90a4a934205d8af
:103888000948db08c318043b18787047e0223f203a
:1038980052019342f9d80448db09c318043b18784d
:0c38a8001030f2e7ff010000c032000009
:020000040000fa
:1038b4000b00496810b50200890603d4190000f012
:1038c40089f810bd190034310978c0b249b2814277
:1038d40007d059699c6aa14203d24c1c5c610a70ee
:0c38e400efe711001800fff711feeae703
:020000040000fa
:1038f0001c2101231b04984201d3000c10391b0a20
:10390000984201d3000a08391b09984201d30009e3
:10391000043902a2105c40187047c046040302023a
:0c39200001010101000000000000000097
:020000040000fa
:10392c0070b50c1e0ed0002a0cd01500022801d93f
:10393c00280070bd084b002b06d01100200000e0c1
:10394c0000bff5e70025f3e78e182078013400f06e
:0c395c00aefab442f9d1ebe70000000025
:020000040000fa
:1039680070b50c4d20242d5d0024002d01d02000c1
:1039780070bd084ca080e360049b6361a160226174
:103988000023a37023702122a3540021fff738fce1
:083998000124ece708120020f5
:020000040000fa
:1039a000436870b50400d80510d52569954200d943
:1039b00015002a00606900f04dfb226963695b19fc
:1039c000551b0022636125611a7070bddb06fcd4b3
:0839d000200000f011fbf8e7f4
:020000040000fa
:1039d80013b50b006a46d41d5a68c1b22170d205ce
:1039e80005d55a69c0b2541c5c61117016bd01221c
:1039f8002100180000f0fcfa002801d02078f5e733
:063a080001204042f2e73c
:020000040000fa
:023a0e007047ff
:020000040000fa
:103a10000b4a137801210b43137053785bb2002bd0
:103a2000fbdb074b00229a61da611a7802210a4314
:103a30001a701a0053785bb2002bfbdb7047c0464c
:043a4000001800402a
:020000040000fa
:103a440010b50b4c2023e45c0023002c01d018009b
:103a540010bd074b9880dc605c6199601a619c70b2
:103a64001c7021229c540021fff7ccfb0123eee7bc
:043a74000812002014
:020000040000fa
:103a7800f4464a1805d200f049f801d5c0174008a5
:103a8800604701235b05d34206d200f03ff801d519
:103a98000120c0074042604701d10042f5d0d0174d
:043aa800400870471b
:020000040000fa
:103aac00f0b5050000200a4c4200165d002e02d134
:103abc00a2185078f0bd296801300f78c0b2b74217
:103acc0003d1a2180131507829600a28ecd9f1e70a
:043adc00843e000024
:020000040000fa
:103ae00070b4012676054c005d00e6420cd8ee422b
:103af0000ad825430543154303d0994204d1904287
:103b000002d1012070bc7047002070bc7047c046d5
:020000040000fa
:103b10004a0010d2520d03231b02ff33d21a0ad4db
:103b200052421f3209d4400dc90208430123db076a
:103b30001843d040704700207047d0177047c046e8
:020000040000fa
:103b4000f8b5050001262c68344201d000200ee0b3
:103b50002000fff791fe070000f076f92868a042e8
:103b6000f1d1b043281a3900fff782fc0120f8bddb
:020000040000fa
:103b7000084a1368002b09d007491818884202d850
:103b800010601800704701235b42fae7034b136093
:103b9000f2e7c04698120020a8140020a8120020c6
:020000040000fa
:103ba00070b5140016000a004e430d00511e8a41e4
:103bb0005242144001003200180000f01dfa864203
:0e3bc00003d02900fff7a0f80400200070bd1c
:020000040000fa
:103bce00f8b5050001276c683c4201d000200de0dd
:103bde002000fff74afe060000f02ff96b68a342a3
:0e3bee00f1d128003100fff73cfc0120f8bdaa
:020000040000fa
:103bfc00002000003020000068200000a020000001
:103c0c00ca200000082100002a2100006c210000bd
:0c3c1c006c2100004e210000602100001f
:020000040000fa
:103c2800f8b505000e0000f03bfa00280bdd2c006b
:103c38002d18054f217838788019c0b2fff71af887
:0c3c48000134ac42f6d1f8bd9e12002001
:020000040000fa
:103c540070b500290fd0002a0dd01500002808d116
:103c64000c008e18012000f019f920700134b442c0
:0c3c7400f8d1280070bd0025fbe7c04619
:020000040000fa
:103c8000020000234832d356591e0b4313700423fd
:103c90004268134005d01023134343600120404283
:0a3ca00070470364c3631800fae7dd
:020000040000fa
:103caa00002380290fdb812901dd83290bd107211c
:103cba00136807338b431900083111601a685b686f
:0a3cca0002604360012318007047f8
:020000040000fa
:103cd400084b1b8a5b070bd0064b07221a829b7b7f
:103ce4005b0705d5034b04211a8b9a7b0a42fbd14f
:083cf4007047c04600140042b5
:020000040000fa
:103cfc0010b5084c2368196800f06ef801230028f1
:103d0c0005db23680a20196800f029fac30f584212
:083d1c0010bdc046501200204a
:020000040000fa
:103d2400f7b5002507000c002e000192019b9e426e
:103d340001db2800febd626821683800fff788ffb8
:083d440001362d180834f1e7e7
:020000040000fa
:103d4c00f7b5002507000c002e000192019b9e4246
:103d5c0001db2800febd626821683800fff7e0fd3a
:083d6c0001362d180834f1e7bf
:020000040000fa
:103d7400012370b544689c43651a102d0ad9421872
:103d840019432b4311605360083203514160100002
:063d9400fef70afd70bd00
:020000040000fa
:023d9a00704770
:020000040000fa
:103d9c0010b5064b987bc0b23b229a73044b1b6840
:103dac00002b02d0024a5168984710bd002c0042eb
:043dbc007012002061
:020000040000fa
:103dc000d501a81fd30040ad8ed8052002a1c8dac6
:103dd00010913f3f3f3f81bf82bfd9d2d808a4a6f0
:043de000af00c0462a
:020000040000fa
:103de40070b50e00050000f05df933000400020018
:103df40001212800fff7d2fe001b431e98414042d8
:023e040070bd8f
:020000040000fa
:103e060010b5040000f035f9002804d1002c01d0cb
:103e16000123237010bd002cfcd002232370f9e788
:020000040000fa
:103e28000fb407b5054b04aa1b6802ca18680192ab
:103e380000f098f803b008bc04b0184750120020ee
:020000040000fa
:103e4800064b0130c000c258002a05d10200083aca
:103e5800d21819184a60c2507047c046c0080020de
:020000040000fa
:103e68007c1b0000281b0000921b0000bc1b0000ec
:0c3e7800ea1b0000141c00004c1b0000a2
:020000040000fa
:103e840068076c094c836a9074a07ac000806888c3
:0c3e940000846c820081286e696c29009b
:020000040000fa
:103ea00000b583b000230193012101a8fff736fa82
:0a3eb0000028f9d0019803b000bd0e
:020000040000fa
:103eba0000b583b06b46d87101216b46d81dfff758
:0a3eca0092fb0028f8d003b000bd01
:020000040000fa
:103ed40070b505000c00222000f096f8280000f0d0
:0a3ee40093f8200000f090f870bd84
:020000040000fa
:103eee0070b505000c00212000f089f8280000f0c4
:0a3efe0086f8200000f083f870bd84
:020000040000fa
:103f080010b50400fff7b8fe002805d1a368e268e1
:0a3f1800a36163619b18a36210bd52
:020000040000fa
:103f2400044a138802210b431380d37b5bb2002b1a
:083f3400fbdb7047002c00428a
:020000040000fa
:103f3c003130306d7300000031730d004142434449
:083f4c00454630310000c0467b
:020000040000fa
:103f540010b504000f20204000f056f8240910206a
:083f6400204300f051f810bdec
:020000040000fa
:103f6c0013b50400019201aafdf702fc6368db069d
:083f7c0001d50120404216bdf1
:020000040000fa
:103f8400d0400b1cd1409c46203ad34018435242a7
:103f940063469340184370479140031c90409c46ed
:103fa400203a9340194352426346d3401943704721
:103fb40010b5002903d1fff799fc203002e0081c5a
:083fc400fff794fc10bdc0469c
:020000040000fa
:103fcc00006810b5002801da002010bdfff7cafd0b
:063fdc00431cfad1f8e7d6
:020000040000fa
:103fe40010b500f0c5f8024b1860586010bdc0460b
:043ff400781200201f
:020000040000fa
:103ff800c36a10b5002b01d0984710bd0068fff7c1
:0440080091fcfae746
:020000040000fa
:10400c0010b5040021004320fdf7e8ff0028f9d08b
:02401c0010bdd5
:020000040000fa
:10401e0010b5040021004420fdf7dfff0028f9d081
:02402e0010bdc3
:020000040000fa
:1040300010b504002020fff7e9ff2000fff7e6ff9e
:0240400010bdb1
:020000040000fa
:104042004a424a41802310b55200db00fff7e7f9ec
:0240520010bd9f
:020000040000fa
:10405400002310b59a4200d110bdcc5cc454013386
:02406400f8e77b
:020000040000fa
:1040660003000a7818001a7001310133002af8d1ca
:02407600704791
:020000040000fa
:10407800024a2123d05cc0b27047c0460812002013
:020000040000fa
:10408800024a1368013313607047c046801200204b
:020000040000fa
:10409800f0b40125ed076b40004c20476f1c000071
:020000040000fa
:1040a80003001a78002a01d1181a70470133f8e77b
:020000040000fa
:1040b80010b5fff793fffff7a6fcfff7a4fc10bdb0
:020000040000fa
:1040c80003001218934200d1704719700133f9e7c1
:020000040000fa
:1040d800494e4600696e66004e414e006e616e00a4
:1040e800494e4600696e66004e414e006e616e0094
:020000040000fa
:1040f80010b5fef767f8029a039bfdf7b1fd10bdf6
:020000040000fa
:0e4108000300413b192b01d8202318437047b8
:020000040000fa
:0e4116000300613b192b01d85f23184070474e
:020000040000fa
:0c412400014b82225a60704700400041ad
:020000040000fa
:0c413000014b5862996270470812002091
:020000040000fa
:0c413c00014b18605960704770120020a1
:020000040000fa
:0c41480010b5b0231843fff75dff10bd59
:020000040000fa
:0c41540010b50400fff785ff200010bd2f
:020000040000fa
:0a41600010b50068fff7e2fb10bd88
:020000040000fa
:08416a0010b5fff7a2fb10bd28
:020000040000fa
:084174000048704750110020c3
:020000040000fa
:08417c00012040427047c046db
:020000040000fa
:07418400286e756c6c290028
:020000040000fa
:06418c0000200021704735
:020000040000fa
:044194007047c0466a
:020000040000fa
:04419800002070474c
:020000040000fa
:0200000400807a
:0440000077c700d8a6
:020000040000fa
:0200000400807a
:044004005c01ffff5d
:00000001FF
