:020000040000fa
:10000000f07f0020c52f0000232600007f2800007d
:1000100000000000000000000000000000000000e0
:100020000000000000000000000000005b22000053
:1000300000000000000000005b2200005b220000c6
:100040005b2200005b2200005b2200005b220000bc
:100050005b2200005b2200005b2200005b220000ac
:100060005b220000e11800005b2200005b22000020
:100070005b2200005b2200005b2200005b2200008c
:10008000313700005b2200005b2200005b22000091
:100090005b2200005b2200005b2200005b2200006c
:0400a0005b220000df
:020000040000fa
:1000a400f8b5c046f8bc08bc9e467047a52f0000b2
:1000b400f8b5c046f8bc08bc9e4670477d2f0000ca
:020000040000fa
:0800c400b4200000010000005f
:020000040000fa
:1000cc000000000000000000000000000000002004
:1000dc0000200020002000200000002000500050d4
:1000ec00005000000000000000000050005000f81c
:1000fc00005000f8005000500020007800a0007064
:10010c00002800f0002000c000c8001000200040b3
:10011c0000980018004000a000a0004000a800902b
:10012c00006800300030002000400000000000009b
:10013c000010002000400040004000200010004053
:10014c00002000100010001000200040002000a82b
:10015c00007000f8007000a80020000000200020b3
:10016c0000f800200020000000000000000000004b
:10017c0000300030002000000000000000f80000fb
:10018c000000000000000000000000000000003033
:10019c00003000000008001000200040008000002b
:1001ac0000600090009000b000d000900060002033
:1001bc000060002000200020002000f00060009073
:1001cc00001000600080008000f000f000100020a3
:1001dc0000600010009000600020006000a000a0f3
:1001ec0000f0002000200070008000e000100010e3
:1001fc000090006000600090008000e00090009093
:10020c00006000f0001000100020002000400040b2
:10021c000060009000900060009000900060007002
:10022c000088008800780008001000e00000000042
:10023c000020000000200000000000000000002052
:10024c0000000020002000400008001000200040aa
:10025c000020001000080000000000f8000000f86a
:10026c0000000000004000200010000800100020da
:10027c0000400070008800080030002000000020c2
:10028c000070008800a800b800b000800078006002
:10029c0000900090009000f00090009000e0009022
:1002ac00009000e00090009000e000600090008062
:1002bc00008000800090006000e0009000900090b2
:1002cc000090009000e000f00080008000e00080d2
:1002dc00008000f000f00080008000e000800080d2
:1002ec00008000700080008000b0009000900070d2
:1002fc0000900090009000f000900090009000f0b2
:10030c000040004000400040004000f00010001091
:10031c00001000100010009000600090009000a0f1
:10032c0000c000a000900090008000800080008041
:10033c000080008000f000f000a800a800a800a831
:10034c0000a800a800e000900090009000900090a1
:10035c000090006000900090009000900090006071
:10036c0000f00090009000f00080008000800060a1
:10037c00009000900090009000b0007000e00090a1
:10038c00009000e0009000900090007000800080d1
:10039c0000600010001000e000f000400040004041
:1003ac0000400040004000900090009000900090b1
:1003bc00009000f000900090009000900090009051
:1003cc00006000af00af00af00af00af00af00f0b7
:1003dc0000900090006000900090009000900090c1
:1003ec000090009000700010001000e000f0001071
:1003fc00001000600080008000f000780040004099
:10040c0000400040004000780000008000400020c8
:10041c000010000800000078000800080008000820
:10042c000008007800200050008800000000000048
:10043c00000000000000000000000000000000f8b8
:10044c0000600060002000100000000000000000b0
:10045c0000000060001000700090007800800080a8
:10046c0000b000c8008800c800b000000000007098
:10047c000088008000880070000800080068009860
:10048c00008800980068000000000070008800f8e8
:10049c000080007000100028002000700020002058
:1004ac000020000000000070009800980068000810
:1004bc000080008000b000c8008800880088002000
:1004cc0000000060002000200020007000100000e0
:1004dc000010001000100090006000800080009060
:1004ec0000a000c000a000900060002000200020b0
:1004fc000020002000700000000000d000a800a820
:10050c0000a800a80000000000b000c80088008807
:10051c0000880000000000700088008800880070cf
:10052c000000000000b000c800c800b0008000004f
:10053c0000000068009800980068000800000000a7
:10054c0000b000c80080008000800000000000782f
:10055c0000800070000800f00020002000f800204f
:10056c00002000280010000000000088008800888f
:10057c000098006800000000008800880088005087
:10058c000020000000000088008800a800a800508f
:10059c00000000000088005000200050008800007f
:1005ac000000008800880078000800880000000027
:1005bc0000f800100020004000f80010002000207f
:1005cc00004000200020001000200020002000002f
:1005dc0000200020002000400020002000100020ff
:1005ec0000200040004000a80010000000000000a7
:0405fc000000c046f5
:020000040000fa
:10060000f0b59db016930b6854680a938b681790e9
:100610000b930b6910911a93cb684d680493136880
:100620002100089300220023089802f0b7fd00285b
:100630000bd10a9b5b0737d408230a9a1a400b9bfd
:100640000c9205930cd0202303e080231b06e418b2
:100650002d23049a13700b9b013b059301230c93ec
:100660000c99049a8c4608996244630011925b08c5
:10067000894a00291ad1934218d1169b874c413bd5
:100680002100192b00d9211d119803f027fa201df4
:1006900003f0cef90a9b0200009304990b9b179874
:1006a00002f0abf91db0f0bd2b23d2e7934203d883
:1006b00011d1089b002b0ed0169b784c413b21009a
:1006c000192b06d80831119803f008fa20000c30d5
:1006d000dee70c31f7e7002200230898210002f042
:1006e000f5fe00266e4f00282fd0002303931698a6
:1006f00003f0cef9c3b20d93002d00dad4e10693d6
:10070000672b00d0d9e0002d00d1c9e1039b043351
:1007100003db039bab4200dacae06523dee0039b08
:10072000069e079f0133039300225e4b3000390081
:1007300001f0a4fa089a23000690079102f00efd3a
:100740000028ecd00023069326e00390ece7039bff
:100750001a00554b9a4214da069b002b11d1002245
:10076000524b0898210001f089fa504b08900c0078
:1007700030003900002201f081fa012306000f0049
:100780000693484b30003900002201f035fe060088
:100790000f00039b013b039332003b0008982100ac
:1007a00002f0fcfc0028d2d1a1e708960997069b2d
:1007b000039c652b00d004e1002402e1089a099b08
:1007c0000e98129901f018fe01f078fe1490159120
:1007d00002f048fe10220a9b1340034323d10d9bd5
:1007e000672b20d1002c2bda0135802000068446af
:1007f00012990e9a61440b00149815990092019376
:10080000089a099b03f03cf980231b06cb180e9035
:100810001293089809990022224b01f0edfd013c4a
:1008200008900991d2e0002e0ad1002c08da059b2d
:10083000049a013b05932e23139901375354013633
:10084000ea193b009446302102e0049ad154013366
:100850009c45fad16246059b0137013b5b1b059322
:10086000049b30307f1998540025bee7039831006f
:1008700001f022ff049b3031013c195503983100ef
:1008800001f0d0fe059b0390013b0593cae0049a5a
:10089000125c1a540138f6e00000f07f703a000054
:1008a0000000f03f00002440d4feffff0000504352
:1008b000039b002b11da66230693069b0135662bfa
:1008c0000dd1039b002b03da00230026794f0393fd
:1008d0000d9b672b01d0039bed1866230693089ba5
:1008e0000e960f9712930023139414930e9a0f9b56
:1008f0001298139901f080fd01f0e0fd1890199114
:1009000002f0b0fd1b908020000684461399129ad5
:1009100061440b0018981999009201930e9a0f9b4d
:1009200003f0aef880231b06cb18129013930e9899
:100930000f99614b002201f05ffd149b0e900f9107
:10094000013314939d42d1d100225c4b01f096f902
:100950000e900f9102000b001298139902f01efcea
:1009600000280ad10e9a0f9b1298139902f0aefd3f
:10097000002806d01b9bdb0703d4002200230e9225
:100980000f930e9a0f9b0898210000f0c5fe0022dd
:100990000e901291484b3000390001f06ff90e9a19
:1009a000129b0890099102f097fb002800d1fce609
:1009b000039b01330393069b662b00d0f7e6039c51
:1009c0000135631b00252e000c9f1893189b13976d
:1009d000a34206d0109b1b691493053b9f4200d293
:1009e000ece6002e07d10a9bdb0604d52e23049ae1
:1009f0001399013753540025049bdb1908931d708c
:100a0000069b652b31d11a9b5c1e049b1d55039bd5
:100a1000ab4202da5b420393013503261a9bf31ab9
:100a20000d930736039b002b00d01fe70d9b1b196e
:100a3000002b00dd1ae7621e2d23002d00d1023ba2
:100a40000499023c8b54169b413b192b01d845233a
:100a50000693049b1919069b0b70059b023b05939b
:100a6000a74202da089803f039f803230a9a1340e0
:100a7000022b13d1059b002b10dd049802f0d8ff48
:100a8000049b059a9b180c9a824200dcffe6059aab
:100a90003021119802f0dcff00230b930498f7e556
:100aa000012533e6062531e60d9b672bfad0069328
:100ab000062502e70000f03f00002440000014403b
:020000040000fa
:100ac000f0b51c000b6897b008934b6813900d931a
:100ad0008b6809930b690e93cb6802931368069396
:100ae00053680698059300220023059902f056fbef
:100af00000280ad1089b5b073cd40820089b099a70
:100b0000034004930ed0202306e080221206944670
:100b1000059b634405932d23029a1370099b5a1e6b
:100b20000123049302990498059b081806995b0019
:100b3000413c5b080c9400291ed1b5498b421bd166
:100b4000029a049b944663441800b24c0c9b21000b
:100b5000192b00d9211d02f0c1ff201d02f068fff2
:100b6000089b020000930299099b139801f045ff2e
:100b700017b0f0bd2b23cfe7a5498b4203d80fd187
:100b8000069b002b0cd0a34c0c9b2100192b05d8e5
:100b9000083102f0a3ff20000c30dfe70c31f8e74a
:100ba000049b591c302303700c982833192800d952
:100bb000203304980230049002984354931e079304
:100bc000002200230698059902f080fc002800d13d
:100bd0006ee100230026904f03930d9b1293002b90
:100be00001da1823129300230a960b97069d059ca1
:100bf000109328000a9a0b9b210001f0fdfb01f0e5
:100c00005dfc0a9a0b9b1490159101f037f80200d5
:100c10000b002800210002f003ff804b05000c00b0
:100c20000a980b99002201f029f8109b0a900b9169
:100c300001330f930d9b002b07da002200232800bd
:100c4000210002f043fc002806d1129b109a934227
:100c500000dd31e101330f9300220a980b99704bac
:100c600001f00cf80a900b9102000b002800210003
:100c700002f094fa00280dd10a9a0b9b280021005b
:100c800002f024fc002809d01498159902f0eafb20
:100c9000c30703d4002300240a930b940a9a0b9be6
:100ca0000698059900f038fd129149000690490810
:100cb000002803d1564b994200d141e70025049cfe
:100cc0000a9505950e9b053ba34230dd3b003200a3
:100cd0000698129901f090fb01f0f0fb1090119131
:100ce00002f0c0fb031e00d0e8e0059a002a00d104
:100cf000e4e001353200109811993b0000f0beff8e
:100d000002000b000698129902f08afe002206905b
:100d10001291424b3000390000f0b0ff059b0600f5
:100d200001330593059a0f9b0f009342cad10a9b8a
:100d3000002b1cd1029b1b19002d00d10ae10d9a3a
:100d4000002a00dc06e1089ad20700d502e12e2233
:100d500002991a702a198a18302159700133934266
:100d6000fbd12c19ed43079b0134eb1807930026a8
:100d7000029b1b191e7005930e9b5d1e029b5e5508
:100d8000039bb34202da5b420393013602230a2734
:100d90000e9a9b1a0693039b002b00d0c4e0069b7f
:100da0005b19012b00d1bfe06a1e2d23002e00d15c
:100db000023b0299023d8b540c9a5023192a00d908
:100dc0002033029a51190b70ac4202da059802f0f6
:100dd00085fe0323089a1340022b17d1079c023c7f
:100de000002c13dd029802f023fe029b1b19049acb
:100df000904200dba9e01300029a3021944663443c
:100e00001800220002f024fe002309930298a5e6b0
:100e10000000f07f603a00000000f03f0000b03fab
:100e20000000204026002f00039b01330393320073
:100e30003b003000390000f06ffc04000d000200a0
:100e40000b000698059902f0a9f90028ead03200b3
:100e50003b000698059902f0a1f9002800d1bce6f4
:100e60000022404b3000390000f008ff0022002330
:100e700002f02cfb00280fd000223b4b3000390041
:100e800000f0fcfe002206000f0006980599364b84
:100e900000f0f4fe06900591324b3000390000223c
:100ea00000f0ecfe039b0600013b0f000393cee72e
:100eb000039000262d4fbae70f9b99e60a9a002a65
:100ec0000bd1059a002a08d0079a0299013a079295
:100ed0002e220a552d3a01340a92291922008c46f5
:100ee00003e030210298815401329445f9d1180071
:100ef000029a013462441492079a6419013a521b0f
:100f000007925730092b01dc303318000c9b192b4a
:100f100006d820230343613b192b01d802f0bffd03
:100f2000149b00251870e5e60398390001f0c4fb16
:100f3000029b3031013d59550398390001f072fb95
:100f4000079b0390013b079325e7029a125c1a5412
:100f500001384ce7089ad20600d408e72e22013463
:100f60001a7004e70000e03f000050430000f03f2b
:020000040000fa
:100f70000023f0b506001500afb005910193059967
:100f80000b78002b00d10fe101235b420a930eabdb
:100f900000240c93802309940b940d930b5d002b7c
:100fa00001d0252b2ad1002c06d02200300002f0df
:100fb00009fa059b1b190593059b1a78252a00d071
:100fc000e7e0013302930593022310219c46082792
:100fd000059803782b2b1bd025d8202b1bd0232b37
:100fe0001dd02a2b2ad002f019f90b90059b1a78f4
:100ff000303a092a33d801330593f7e70134cde7b6
:101000000122099b80180393134309930590dfe79e
:101010000423099a0ee0099b03933b430be0099bd1
:1010200003930b4307e02d2bead0302bd9d1624636
:10103000099b0393134309930130e7e72b680130c1
:101040001a1d1b6805902a600b93002b07da099a7a
:101050005b420392012203990b934a400992099b38
:10106000da0702d5022293430993059b1a782e2aa8
:101070000ed10022581c0a9205905a782a2a28d1ab
:10108000023305932b681a1d1b682a6003930a9389
:1010900005a802f001fa059b0700187802f0f8fc99
:1010a000692800d183e035dc632800d1d6e01bdc61
:1010b000252800d1dfe0612859d0252306aa137026
:1010c000029b0593002309930b93013b0a93023380
:1010d000b2e002f0a3f80a90059b1a78303a092a88
:1010e000d6d801330593f7e7642860d06728e4dc9d
:1010f0002a00390006a802f0a2fa002800d1a9e0cf
:10110000059b09a95a1c05921b7806aa3000fff717
:1011100077fa3de0702800d17de016dc6e2800d122
:1011200091e06f28c9d12b000022390006a801f0f8
:10113000cdfa002800d18de0059b06aa013309a94c
:101140003000059301f095fc22e0752840d0782806
:101150004fd07328b1d1802f00d07be0059b2a6847
:1011600001330593131d2b601268002364e02a00ed
:10117000390006a802f063fa002800d16ae0059b56
:1011800009a95a1c05921b7806aa3000fff798fca3
:101190002418019b1c19a34200dc74e04f223b4b36
:1011a0001a6001235b42019301982fb0f0bd2b0020
:1011b0000122390006a801f089fa00284ad0059bcf
:1011c00006aa013309a93000059301f0d1f9dfe740
:1011d0002b000022390006a801f078fa002839d047
:1011e000059b06aa013309a93000059301f0f8fd1b
:1011f000cee72b000022390006a801f067fa00288c
:1012000028d0059b5a1c05921b7806aa09a9300014
:1012100000f09afebce72b000022f02106a801f0a6
:1012200055fa002816d0059b079a01330593069bb3
:10123000134306d1164a163209a9300001f076fe92
:10124000a6e77823e1e7019b39001a1906a82b00cd
:1012500001f07afc059b013305939ae7802ff9d1c1
:10126000059b013305932b681a1d1b682a6006aa8b
:1012700013700123e0e7802fecd1059b06aa013310
:1012800005931070f5e7019479e6c046100a002036
:04129000143800000e
:020000040000fa
:10129400940900201c000000000000004809002000
:1012a4002c00000000000000d40900200800000009
:1012b40000000000f4090020040000000000000009
:1012c400f80900200400000000000000fc090020d0
:1012d4000400000000000000b00900200c00000021
:1012e400010000004142434445464748494a4b00f7
:1012f400bc0900200b000000010000003031323333
:101304003435363738390000000a00200400000064
:10131400010000004f464600c809002009000000f3
:1013240001000000504f5745522055500000000066
:10133400180600200002000000000000ec09002054
:101344000600000000000000c709002001000000a2
:10135400000000001c0a0020020000000000000041
:10136400f20900200100000000000000040a00202f
:101374000400000000000000dc0900200800000058
:101384000100000005070000cc000000f309002064
:10139400010000000100000002000000180a002003
:1013a400020000000100000040000000080a0020c4
:1013b4000400000000000000f808002050000000b5
:1013c4000000000018080020780000000100000060
:1013d4002808002020080020280800200000000021
:1013e40000000000250000000800002000040000a8
:1013f40000000000000000000000000000000000e9
:1014040000000000000000000000000000000000d8
:101414000d3b000000000000000000000000000080
:1014240000000000b12b00000000000000000000dc
:1014340000000000000000000000000000000000a8
:10144400000000000000000000000020080400006c
:1014540000000000740900202000000001000000ca
:101464000100000003000000000000000000000074
:10147400000000000000000000000000e40900205b
:10148400e409002008000000000000000c0a00200d
:101494000400000000000000080400201002000006
:1014a4000000000090080020680000000100000017
:1014b4000100000003000000000000000000000024
:1014c400000000000000000000000000152c0000d7
:1014d400000000000000000000000000e93a0000e5
:1014e400f7370000000000000000000000000000ca
:1014f40000000000000000000000000000000000e8
:1015040000000000000000000000000000000000d7
:101514000000000000000000100a00200400000089
:1015240000000000140a0020040000000000000075
:101534000000000000000000222222222222222297
:020000040000fa
:10154400f0b583b0002001f075fc0021654802f07d
:10155400b7fa02f0adf90023634a1360634a1360db
:10156400634a1360634b8022d2019a61982240211e
:101574009950802212019a6100245f4d5a4e2b002b
:10158400103301932ae0012428e0019802f002f9c3
:10159400564b00221a60564a1368013313603ae02e
:1015a400564c27002137207802f002fa0134bc425d
:1015b400f9d1012412e00321002002f051f9832122
:1015c400042002f05af9002002f0fbf90121002066
:1015d40002f07cfa02f090f902f058f8454b1b6acd
:1015e400db020ad5434a9c2380214901d1500134ae
:1015f400e4b22100280002f0cdf83368002b06dda8
:10160400394b00221a60394a136801331360374b8f
:101614001b68092bb9dc052cb5d8a300384ad3586c
:101624009f460321002002f01bf98321042002f0cd
:1016340024f9002002f0c5f90a21142002f046fa28
:1016440002f05af92f4802f0c5f802f01ff8c5e776
:101654000321002002f004f98321042002f00df993
:10166400002002f0aef902f047f90a21002002f04e
:101674002dfa254802f0aef802f008f8aee703218f
:10168400002002f0edf88321042002f0f6f8002097
:1016940002f097f90121002002f018fa02f02cf967
:1016a4001321002002f012fa184802f093f801f016
:1016b400edff93e70321002002f0d2f883210420f8
:1016c40002f0dbf8002002f07cf913211e2002f066
:1016d400fdf902f011f90e4802f07cf801f0d6ff92
:1016e4007ce7c046f9370000f8090020f40900201f
:1016f400fc09002000440041e43800005437000095
:10170400cc380000000a0020c8090020bc090020d1
:04171400b0090020f8
:020000040000fa
:10171800f0b40125ed070f005f405ad48b4200d189
:10172800824205d950404240504059404b405940b0
:101738004e18760ddf187f0d3bd0741c640529d038
:10174800f41b352c26d80e0ddb022b43db0ac9020d
:101758002943c9121700202c1ed2e741e240574006
:10176800e3415a40a340e3405a40002480185941bd
:101778000ad3b21c520521d0c207012f62411700bb
:101788004008cb0718434908013636054208af41df
:1017980060417141f0bc7047203c06d01f00e74112
:1017a800e3405f400024012a6741c0186141ebd340
:1017b800dfe7002eeed129400020ebe701363105a6
:1017c8000020e7e7e742e5d10020c143090dc9043d
:1017d800e0e76b400e00871a9e4104d26e40c01ba2
:1017e800b141d21973414e18df18ac0ae642e9d26a
:1017f800760d7f0d31d0f41b362ccbd8b4460e0da8
:10180800db022b43db0ac9022943c90a012c32d85f
:1018180004d1d4075208df073a435b08ef0a644251
:10182800904199411ed0002239424dd1241940419e
:1018380049410124394204d101340018494139424f
:10184800fad06246a24204d9361b013e36058919f0
:10185800a0e7f10ac90700209ce736429ad1002088
:10186800002197e70200224394d0b842ded201005b
:1018780020002024e3d1202c13dd203ce241170076
:10188800a240e2405740e3415a40a340e3405a4057
:10189800012fbf410137174300227c4298419141f3
:1018a8000ce01700e741e2405740e3415a40a340ab
:1018b800e3405a407c429041994100220f0303d2f1
:1018c800013e241940414941013e36054708ac41d3
:0818d80050417141f0bc704762
:020000040000fa
:1018e00010b56b4b5b7b002b17d0694b1b8a9b079a
:1018f00014d5684b2022ff2199540132fd399954a7
:10190000644a2023d35c5bb2013300d18fe0614a8b
:101910002023d35c062b00d1a2e010bd5c4b1b8ab8
:10192000db0707d55b4b2022ff2199540132fd399b
:101930009954e5e7564b1b8a5b0707d5554b202288
:10194000ff2199540132fe399954d9e7514a202395
:10195000d35c5bb2032b47d0042b0fd0022bcfd12b
:101960001369002b04d09088002101f083f9c7e7a8
:10197000484b9888012101f07df9c1e7454a9369f8
:10198000126993420cd0434a9168581c9061ca5c1a
:101990003f4b1a761a00138a1bb2002bfbdbafe712
:1019a0003c4b5b69002b10d03a4b9b885b000122bb
:1019b0001343dbb2364a1375138a1bb2002bfbdbd1
:1019c000344a20230321d1549ae7314a5168c02375
:1019d0009b020b435360138a1bb2002bfbdb2d4a87
:1019e00020230621d1548be72a4a5369013bd2694f
:1019f0009a420dd0264a138a1bb2002bfbdb254be3
:101a0000d968da69501cd861214b1b7e8b5477e76b
:101a10001f4a5168e023db020b435360138a1bb259
:101a2000002bfbdb1b4a20230621d154e2e72023b5
:101a30000021d154164a5168c0239b020b435360c6
:101a4000138a1bb2002bfbdb114b03229a73114b41
:101a50005b6a002b00d160e70e4a906a98475ce70a
:101a60001300002220215a5401315a54084b0332ea
:101a70009a7319002d320b8a1340102bfbd1054ba2
:101a80005b6a002b00d148e7024a906a984744e716
:081a900000100042480900208b
:020000040000fa
:101a980030b583b00400604b1a780a2a00d9b9e03f
:101aa80093005e4ad3589f465d4d29005d4801f07a
:101ab800ffff00232b7001225b493d2001f0b4fc9d
:101ac800442c04d0544b01221a7000207fe0524b62
:101ad80002221a7000207ae0544b5970504b1b7840
:101ae800012b08d04e4b1b780020022b6fd14a4b9c
:101af80000221a706be04a4b00221a7002324b49de
:101b08003d2001f091fc444b03221a7000205ee056
:101b1800474b5970424b1b78012b08d0404b1b7820
:101b28000020022b53d13c4b00221a704fe03c4b53
:101b380000221a7002323e493d2001f075fc364bf6
:101b480003221a70002042e0354b1b78012b08d085
:101b5800334b1b780020022b39d12f4b0a221a70e5
:101b680035e02f4b00221a702b4b09321a700020d7
:101b78002de02b4b1b78012b12d0294b1b78002012
:101b8800022b24d12b4b8022d2019a61244b0022b4
:101b98001a70013224493d3001f046fc002016e05d
:101ba8001f4b00221a701c4b03321a7000200ee0e3
:101bb8001b4b00221a70042300931f4b02321b494f
:101bc8003d2001f0dffb144b06221a70002003b001
:101bd80030bd134b1b78012b08d0114b1b7800200c
:101be800022bf4d10c4b0a221a70f0e70a4b072299
:101bf8001a700020ebe70f4b8022d2015a61064b86
:101c080000221a700120e2e70a4b8022d2019a6171
:101c18000120dce70020dae7f2090020bc350000eb
:101c2800f309002079370000c70900201c0a0020aa
:0c1c3800180a002000440041040a0020ab
:020000040000fa
:101c440008d1002806d1f54204d801d3002a01d1d5
:101c54006d0d09d10020c143090dc904f0bdf9d1ae
:101c64001242f7d1640df5d00020c143490549085b
:101c7400a6e000206146f0bdf0b50127ff070e0085
:101c84005e403e40b446be0a4c18dd18f442d7d23a
:101c9400f542e4d2640decd06d0dead06419c902aa
:101ca4003943460dc0023143db023b43db0a10b427
:101cb4008e4685b297b26f43140c6c433e0ca41944
:101cc400260c2404bfb227439cb26c43a419190cfc
:101cd4006943250ca4b249190d04090c6419000cbc
:101ce40095b245433e0c76193743bfb2360c150cfa
:101cf4004543ad19a6b2240cad192e0437432e0c5e
:101d040036199db24543ad19acb22e0c89191d0c80
:101d140045436d182e04290c3443704680b295b2a5
:101d240045433e0c76193743bfb2360c150c454378
:101d3400ad19a6b2ad19240c2e0437432e0c361956
:101d44009db24543ad19acb22e0c89191d0c454307
:101d54006d182e043443290c75462d0c90b268433b
:101d64003e0c80190604bfb23e43070ca0b23f18d4
:101d7400120c6a43d019020c80b2240ca4189ab233
:101d84006a43121914042043120c89181b0c6b4368
:101d9400c91810bc01273d05294203d1b619404199
:101da4004941013cff077d0d013d641b0bdb6d00c8
:101db400ac4209da240500254208be41684161416c
:0a1dc40066463143f0bd54e74ee7d8
:020000040000fa
:021dce0070475c
:020000040000fa
:101dd000f0b587b0039003a801f000fa002802dafa
:101de000002007b0f0bd039b1b095d1e202d09d903
:101df0004f49023b4f4a8b4224d8db08d318043b9f
:101e00001d7801352a000120002101f09bfd0024ee
:101e100043428c4100930194474f00983a687b6895
:101e20001040020001990b401a433fd1039b05a8c3
:101e30001033059301f09efd002809d10c223f4b81
:101e40001a60cee7db09d318043b1d781135d9e7ba
:101e50003b490c68a04206d0059b0400103b05934b
:101e60000123103483600125059be2180a602b438f
:101e7000083a083c28c26360002cb1d0200001f071
:101e800055fb00280bd023686168ab43e31a5a68fe
:101e9000aa4352185a606168a94362501c0020008e
:101ea000039901f031fc200008309ae7214a2549c6
:101eb0003c32002831d1584203404b43db0ed65c04
:101ec0002036300001f078fc731cdb00fc58083b26
:101ed000fb189c42a0d0272e25dd0235ae4201dc46
:101ee0003f2e20d101226368039f9343dd1b28000e
:101ef000009301f0f1f9864215d1e268a168e31977
:101f0000da60996093609a68d360012217431f607a
:101f10005d60009be5506760c1e7434203404b436f
:101f2000db0ed65ccde73100200000f0d7ffb6e72e
:101f3000ff0100002c2d000010040020100a0020da
:081f40000804002029e66b07ec
:020000040000fa
:101f4800f0b58fb00d934b680c9008938b680d001b
:101f58000993cb6816000393089b0f68002b60db7e
:101f680002239f4310233b400a9333680593736809
:101f78000693099b04930a9b002b06d0059b069a9f
:101f8800134302d0099b023b049308233b400b9365
:101f98005a1e9341049ad31a04932b69039a5c1e20
:101fa80000231355089b0793012c10dd059b069a07
:101fb800134339d1079b002b36dc089a049b9b1ae4
:101fc800079a9b18002b02dd02231f422cd10a9b83
:101fd800002b0bd00cce134308d0039b0d9a1b1972
:101fe800013b1a703023039a023c13550b9b002bbc
:101ff80003d02023039a013c13552b6900975a1ede
:10200800039b121b19190c98099b00f0f2fc0c9bfe
:102018005b68db0503d56b68984200da18000fb0df
:10202800f0bd012308939de70f22059b013c134057
:1020380018005730092b01dc303318000d9b413b49
:10204800192b06d820230343613b192b01d801f033
:1020580022fd039b1855079b013b0793069b1a0714
:10206800059b1b091a43069b05921b0906939be7d0
:020000040000fa
:10207800304a136a30490b4002210b43136208238c
:10208800d1680b42fcd02b4b00229a612b4b2c4a77
:102098005a602c4a9a601a0053785bb2002bfbdb1b
:1020a800244a938c80218b4393841023d1680b425c
:1020b800fcd0254b1a68920e3f2a38d0234b1b6858
:1020c8009b059b0d920213431a4a93621b4b822273
:1020d800d2015a80174a1023d1680b42fcd0154b05
:1020e8001b4ada621a001023d1680b42fcd0114b4c
:1020f80006229a841a004023d1680b42fcd00f4b69
:10210800144a5a601a0053785bb2002bfbdb0b4b66
:10211800114a5a80114a5a80114a5a80114a5a80e3
:10212800114b1f225a61da61104a1a627047203a2d
:10213800c4e7c046000800400000ffcf000c004084
:102148000106010001fa0000246080002860800078
:10215800dc05010400070100034000000f400000f7
:102168001040000014400000000400403008010046
:020000040000fa
:10217800f0b5060085b00f0015001c008b4265d82d
:1021880001d1824262d82100280001f0e3fb390026
:102198000090300001f0defb009b21001b1a1a00a2
:1021a8002800039301f0cafb00900191019bbb42f8
:1021b80046d802d1009bb34242d8009b019c039aa7
:1021c80001200021f61aa74101f0b8fb039b002b60
:1021d8002fd0019b009adb0754081c43019b5d0824
:1021e800039b9c46bd422ed801d1b4422bd8320065
:1021f8003b00121bab41012692185b410027b61821
:102208005f4101235b429c446346002bead180195d
:102218007941039a04000d003000390001f082fb77
:10222800039a06000f0001f089fb241a8d41200053
:1022380029000a9b002b01d01e605f6005b0f0bd2d
:1022480000200021c2e7b6197f41dae7002000210b
:02225800efe7ae
:020000040000fa
:02225a00fee79d
:020000040000fa
:10225c00f0b5de4657464e464546e0b583b02e4bac
:10226c001b781a0001931e002c4b1b889446634468
:10227c00802b49dc284b5a780092284b5b8894467b
:10228c006344202b40dc002a38dd203850434000ca
:10229c00214b5b689b4683440025204b9a4699460c
:1022ac0023e0534659884919c9b218880019c0b29d
:1022bc00012200f0e9fe0134a6420fdd3b00a340f1
:1022cc0042461342edd04b4659884919c9b2188879
:1022dc000019c0b2002200f0d7feece70135022352
:1022ec009c46e344009bab4208dd5b461f88002ef6
:1022fc00f4dd002480231b029846dfe7074a13888d
:10230c0001998c466344138003b03cbc90469946bb
:10231c00a246ab46f0bdc046dc090020ec0900200b
:020000040000fa
:10232c00f7b5002858d00838436801221e009643a0
:10233c0085192a680400934200d0ffde01276b68e0
:10234c00226813403b420ed1200001f0e9f800282e
:10235c0043d1280001f014f90028f0d06b68bb437e
:10236c00f618ed18ebe73b003343636030002b604d
:10237c0000f0acff019001f019fa6b682268134071
:10238c003b42e1d0184b019a1868596801f0c8fa21
:10239c00384212d1019a0120002101f0cdfa0b0034
:1023ac00002804d0104a126802430f480260002b28
:1023bc0003d00d4a53680b435360019b0a4a013307
:1023cc00db00d3181a005b68083a66602e60e36085
:1023dc00a260d460e3689c60f7bd2368bb43e41a39
:0c23ec006368bb43f618b4e7100400203f
:020000040000fa
:1023f800f0b40125ed070c005c402c40a446ae0a61
:102408004c18df18f4423dd2f74245d2640d4cd047
:102418007f0d3cd0e41bc9022943cf0adb022b43c2
:10242800db0a0600b61a9f4104d2013cb6197f4167
:10243800b6185f416812800d241838dd00188442f0
:1024480025d8e80c0021b6197f41b61a9f4103d35d
:1024580040414941f7d304e0b6185f4100184941ab
:10246800f1d32405b6197f41b61a9f4105d33743e6
:10247800c20717430022012f5041614162461143b0
:10248800f0bc70470cd100280ad1f74208d20020ce
:10249800c143490d0905f1e7002a01d1f74206d0e9
:1024a8000020c143090dc904eae77f0df8d00020d8
:0424b8006146e5e7ad
:020000040000fa
:1024bc004b005b0d264af0b55c1e944238d8254a79
:1024cc009e1825d4332e22dc234a9b1827d4234a6a
:1024dc00da400700214b9743f3403c000f000240c9
:1024ec009f4319403d000a430fd0002f0dda2023e3
:1024fc005b42f11824d480204003c84002008021a4
:10250c004903f1400b00a4185d4120002900f0bde7
:10251c000020002901db0021f9e71149f7e720220f
:10252c000e4b921b934001225242f2401a43d0e7c9
:10253c00002becd10022c90fcb0710001900e6e7e5
:10254c0020218020891b400388400200d7e7c04629
:10255c00fd07000001fcffffe1fbffffffff0f0089
:04256c000000f0bfbc
:020000040000fa
:10257000f0b54b6889b005930b6807009c4607933c
:10258000cb680c008e68049310685168cd0f44d05e
:102590000b000200002150429941059b002b08dbf3
:1025a0000222634693430793002d02d1079b5a07eb
:1025b0002ad5731e07aa02920a22009301920b00e9
:1025c0000200200000f09cf9002d02d1079b5a0761
:1025d0001ed501382d23002d00d1023b049a13543f
:1025e00023695a1e049b121a1918079b380000937e
:1025f000330000f002fa7b68db0503d5636898427c
:1026000000da180009b0f0bd1b07db0ff31ad1e7a1
:102610001b07e5d501382023e0e7059b002bbfda37
:02262000c4e70d
:020000040000fa
:02262200fee7d1
:020000040000fa
:10262400002941d010b4041c4c40a44601230022cc
:10263400002900d54942002800d5404288422cd3c5
:1026440001242407a14204d2814202d209011b01c0
:10265400f8e7e400a14204d2814202d249005b00bf
:10266400f8e7884201d3401a1a434c08a04202d327
:10267400001b5c0822438c08a04202d3001b9c0868
:102684002243cc08a04202d3001bdc0822430028ca
:1026940003d01b0901d00909e3e7101c6446002c90
:1026a40000d5404210bc704701b5002001f030fa5b
:1026b40002bdc0460029f7d003b5fff7b3ff0ebc37
:0826c4004243891a1847c04681
:020000040000fa
:1026cc0030b5882933d015dc812941d003dc802931
:1026dc003ed0002030bd822911d08429f9d11c684c
:1026ec0002cc1c60002a1ed009b20160c9174160df
:1026fc000120efe7a02923d00adc9029e9d1072497
:10270c0019680731a14330c9196004604560efe7cf
:10271c00c02901d0f029dcd11a68111d1960136889
:10272c000360002312e089b201604260e0e71c689c
:10273c0002cc1c60002a01d049b2d6e7c9b2f3e73b
:10274c001a68111d196013680360db174360cfe72b
:10275c0019680c1d1c600b680360002ae5d0f4e7b7
:020000040000fa
:10276c00f0b5c6461f4a204b00b50021934203d258
:10277c00197001339342fbd10b231c4a9c46083b36
:10278c0098461368546819000026214311d017008d
:10279c0091680c3700290fd11a19002c03d01e7028
:1027ac0001339342fbd13a0013685468190021435a
:1027bc00edd104bc9046f0bd6146c91a1d195118e3
:1027cc00002c05d05a1c505c187013009542f9d19e
:1027dc00434623405a1e9341a4081c19a4003f19d8
:1027ec003a00e1e7000000200000002094120000f5
:020000040000fa
:1027fc00f0b51600050002278369426987b0029381
:10280c00d31a03939b1904910596019302ac3a00d9
:10281c002100286800f05eff019b984208d1ab684c
:10282c00ea68ab619a18aa626b61300007b0f0bd20
:10283c0000280cda102200236968ab620a43ab61f2
:10284c006b616a60022f12d06368f61aede7019b88
:10285c001b1a01936368984202d9c01a0834013fcd
:10286c0023681b1823606368181a6060cfe71e008a
:02287c00dbe798
:020000040000fa
:02287e00fee773
:020000040000fa
:1028800030b51d4b1d4a1a6042220321995402396a
:1028900001329954053299540132995400224a2048
:1028a0001a5401301a5403301a5401301a544d3856
:1028b000542418550434195501341955253c332531
:1028c0001d550834113d1d554434b2256d011d516f
:1028d00010348025ad001d513034195506341a5579
:1028e00003341a5501341a5501341855ca301a5494
:1028f000d132995430bdc0460044004104cc0000a0
:020000040000fa
:10290000f0b5050085b019000c9b100001931a6802
:102910002b696c68013bef681d00002c00da012474
:102920000026fe540a9e0123361b029602261640fc
:102930000b9ad2170392002d04dc002b17d028002d
:1029400005b0f0bd02000a4307d1002c05dc029a55
:102950001219002af1dd002eefd00b9a039b00f034
:102960007dfc013d130030327a55013ce3e7102332
:0e297000019a12689a431300019a1360dfe780
:020000040000fa
:10297e00f8b5846a05000f001600002c0ad0ab6a69
:10298e006a699b1ab3420cd2320039002800fff755
:10299e002eff05e000f079ff03002000002beed0a3
:1029ae00f8bd002ef0d02b0034331b785bb2002b19
:1029be001adb3400dbb2621eb95c994212d12200de
:1029ce0039002800fff713ffa042e9d33f19341b4b
:1029de0022003900686901f001f86b6930001c199a
:0c29ee006c61dde7141ee6d13400f1e757
:020000040000fa
:1029fa00f0b51e00012389b014000e9a07001a4090
:102a0a000291019220d1b4421eda351b03952a00a5
:102a1a00102d00d91022202104a801f014f80f2d3e
:102a2a001bdc0f22039b04a913401a00380000f094
:102a3a00c4fc019b002b04d122000299380000f04b
:102a4a00bcfc300009b0f0bd22000299380000f049
:102a5a00b4fcb442d9db2600f3e7102204a93800fb
:082a6a0000f0abfc103ddae7bf
:020000040000fa
:102a7200f0b50b680c008f68cd68496887b0060016
:102a82000593002902db02218b43059305a95368b4
:102a9200126802910821009701912000fff72fff91
:102aa200059bdb0602d5302301382b54059b1b07ff
:102ab20002d5202301382b54236929185a1e059b5d
:102ac200121a009330003b00fff796ff7368db0594
:0e2ad20003d56368984200da180007b0f0bd23
:020000040000fa
:102ae000164b01221a601a00138a1bb2002bfbdb63
:102af000124b802252005a601a00138a1bb2002b1c
:102b0000fbdb0e4be8225a810d4a1a601a00138a29
:102b10001bb2002bfbdb094b10221a821a00138a0e
:102b20001bb2002bfbdb074b002221215a54013939
:102b30005a54024b03325a737047c0460010004289
:082b40001600300048090020d6
:020000040000fa
:102b480010b584291fd007dc812915d0822922d00d
:102b5800802911d0002010bd90291cd008dc8829bc
:102b6800f8d119680c1d1c600b6803601a7010e01e
:102b7800a02901d0c029edd119680c1d1c600b6873
:102b880003601a6005e019680c1d1c600b6803607f
:102b98001a800120dfe719680c1d1c600b680360b0
:082ba8001a60d2175a60f4e72d
:020000040000fa
:102bb0007fb51600c2680d0013000091591e8b41ad
:102bc000f31a0193836804000392694602220068a5
:102bd000029300f071fd002808dc1822082302404f
:102be0005340626813436360060010e0019b834218
:102bf000fad2a268c01ae3681018e2632064002bbe
:102c000005d0531ce3631378ad19013d2b703000e0
:042c100004b070bddf
:020000040000fa
:102c140037b504000d00002801d100203ebd4368f3
:102c24009b0607d543698269934217d80023a362a0
:102c3400a3616361e26b236c9a4206d20121d21a2a
:102c4400d3170091206800f065ff00232364e36339
:102c54009d42e2d0206800f04fffdfe70022c36a04
:102c6400110098476369002be0d101204042d5e769
:020000040000fa
:102c740010b5134b00229a61da61124b03329a7336
:102c84005a68114c22405a601a00138a1bb2002b56
:102c9400fbdb00290ed00a4a20230324d45440002d
:102ca4000143c9b2074b19751a00138a1bb2002bd2
:102cb400fbdb10bd024a20230424d454efe7c046b2
:0c2cc4004809002000100042fffffbff49
:020000040000fa
:102cd00000230e4a10b513600d4a13600d4a1360ad
:102ce0000d4a13600d4a13600d4a5362136101339c
:102cf000936000f0a5fe00f060fc0a4c0a4b9c4279
:102d000000d310bd08cc9847f8e7c0460c0a002055
:102d10000409002000090020f8080020fc08002019
:0c2d200008090020b0000000b400000012
:020000040000fa
:102d2c002021222324242525262627272828282845
:102d3c00292929292a2a2a2a2b2b2b2b2c2c2c2cdf
:102d4c002c2c2c2c2d2d2d2d2d2d2d2d2e2e2e2ea7
:102d5c002e2e2e2e2f2f2f2f2f2f2f2f000117021d
:102d6c001d1813031e1b190b1408040d1f161c121f
:0c2d7c001a0a070c1511090610050f0ead
:020000040000fa
:102d880070b504000d000020002c21d000f068fc74
:102d9800002d18d000200f4a0421072605e0138bc8
:102da80023800234013085420ed0937b0b42fcd045
:102db800138a334208d153683340012befd0138b69
:102dc80023700134eee72800281a45426841c0b252
:082dd80070bdc046001400426a
:020000040000fa
:102de000f0b50b680c008f68cd68496887b00600a5
:102df0000593002902db02218b43059305a9536843
:102e0000126802910a21009701912000fff778fdd6
:102e1000236929185a1e059b121a009330003b00a3
:102e2000fff7ebfd7368db0503d56368984200dab2
:062e3000180007b0f0bd20
:020000040000fa
:022e36007047e3
:020000040000fa
:102e380010b5114b06225a60104b1b681868002108
:102e480000f0c6fd0e4b1b681868002100f0c0fd9d
:102e5800fff712fdfff70cf900f01cfa00f022fe54
:102e6800fff73afefef7afff00f0c4fa00f0ecf807
:102e780000f050f910bdc046004000411c08002079
:042e8800900900208d
:020000040000fa
:102e8c0070b5040016001d00022a1cd043689b0676
:102e9c0019d4002908d1002d01d18025ed0028007e
:102eac000830fef78fff010020236268a1601343f6
:102ebc0063602300e5603433ff22012e00d10a2227
:102ecc001a70024be362002070bdc0467f290000df
:020000040000fa
:102edc0070b5c668856804000a00ae4211d10120a5
:102eec00002100f029fdc043c943431c03d00b4b08
:102efc001a68104018604b1c03d0084a53681940dc
:102f0c005160012319006268b56011439a43ee6069
:102f1c006160a41822681343236070bd1004002064
:020000040000fa
:102f2c00f0b50f0087b0039015001049072204a8d4
:102f3c001c0000f054fdbb687e6802933f68002db6
:102f4c0000d104ad002c03d1280000f06bfd04006f
:102f5c00002e02dbb44200d934000097029b220001
:102f6c0029000398fff743fd07b0f0bd043b0000b8
:020000040000fa
:102f7c0010b5064c2378002b07d1054b002b02d043
:102f8c00044800e000bf0123237010bd9409002009
:102f9c000000000000000000044b10b5002b03d013
:102fac000349044800e000bf10bdc046000000000b
:082fbc0098090020000000004c
:020000040000fa
:102fc40010b50a4b98470a4b9847fff7cdfb094bbe
:102fd400ff229343084a9360084b9847084b98474d
:102fe400084b9847fef7acfafee7c046372e0000c0
:102ff400372e00000000000000ed00e0d12c00009e
:08300400372e0000372e0000fa
:020000040000fa
:10300c0030b5002818d0002918d00d4a0124072506
:10301c0004e003881383023000290bd00139937b21
:10302c002342fcd053682b40012bf2d0037813833e
:10303c000130f1e7012030bd0020fce70120fae768
:04304c00001400422a
:020000040000fa
:103050000d4b01221a801a00d37b5bb2002bfbdbe5
:10306000094bec22d2001a80084a1a833b229a7339
:10307000074a0021116001225a731a00d37b5bb208
:10308000002bfbdb7047c046002c00421bb7ffff44
:04309000d40900203f
:020000040000fa
:1030940010b543b2002b0edb1f290cd8002a0bd12c
:1030a400cb08db0118180a4a07231940063b8b405a
:1030b400115c0b43135410bdcb08db011818044cee
:1030c4000723194001228a40235c93432354f2e7e7
:0430d40018060020ba
:020000040000fa
:1030d80030b401256d054c00e54215d85c00e54289
:1030e80012d80c001c436400044314430fd005d2cb
:1030f80082428b418041013030bc704790429941f7
:103108008041013030bc7047002030bc704701203e
:0431180030bc704710
:020000040000fa
:10311c00bff35f8f62b60c4bc22080001a580b496c
:10312c001140c02212020a431a50802292001a60e7
:10313c00c42189005a58ff2082433f3802435a5019
:10314c00802252021a60704700e100e0ff00ffff8e
:020000040000fa
:10315c0030b401256d054c00e54215d85c00e54204
:10316c0012d80c001c436400044314430cd005d249
:10317c0082428b418041404230bc70479042994121
:10318c008041404230bc7047002030bc7047c04684
:020000040000fa
:10319c0030b401256d054c00e54215d85c00e542c4
:1031ac0012d80c001c436400044314430cd005d209
:1031bc00904299418041404230bc704782428b41e1
:1031cc008041404230bc7047002030bc7047c04644
:020000040000fa
:1031dc000c4a036810b5546a0b4a591e121b9142d3
:1031ec000bd9002b05d00c220120084b40421a6051
:1031fc0010bd102202600020fae70f221733934310
:10320c000360f8e708090020efffff7f100a002099
:020000040000fa
:10321c00030010b51a78202a0dd0110009390429a1
:10322c0009d900212b2a02d02d2a01d101310133d9
:10323c0000200a2404e00133ece760430133801ad8
:10324c001a78303a092af8d9002900d1404210bd29
:020000040000fa
:10325c00002b11d1002a0fd1002900d1002802d057
:10326c000021c943081c07b4024802a1401802906f
:10327c0003bdc0469508000003b4684601b502982a
:10328c00fef774ff019b9e4602b00cbc7047c04613
:020000040000fa
:10329c000b4b0c4a1a600c4a5a81c02292025a609b
:1032ac001a00138a1bb2002bfbdb054a13680221a0
:1032bc000b431360138a1bb2002bfbdb7047c04619
:0c32cc0000140042040131402bf6ffff0b
:020000040000fa
:1032d8000309013b1800202b07d90a4a934205d855
:1032e8000948db08c318043b18787047e0223f20e0
:1032f80052019342f9d80448db09c318043b1878f3
:0c3308001030f2e7ff0100002c2d000047
:020000040000fa
:103314001c2101231b04984201d3000c10391b0a01
:10332400984201d3000a08391b09984201d30009c5
:10333400043902a2105c40187047c046040302021c
:0c33440001010101000000000000000079
:020000040000fa
:1033500070b50c1e0ed0002a0cd01500022801d921
:10336000280070bd084b002b06d01100200000e0a3
:1033700000bff5e70025f3e78e182078013400f050
:0c33800064fab442f9d1ebe70000000051
:020000040000fa
:10338c0070b50c4d20242d5d0024002d01d02000a3
:10339c0070bd084ca080e360049b6361a160226156
:1033ac000023a37023702122a3540021fff75cfc9f
:0833bc000124ece748090020a0
:020000040000fa
:1033c400436870b50400d80510d52569954200d925
:1033d40015002a00606900f006fb226963695b1925
:1033e400551b0022636125611a7070bddb06fcd495
:0833f400200000f0d3faf8e715
:020000040000fa
:1033fc000b4a137801210b43137053785bb2002beb
:10340c00fbdb074b00229a61da611a7802210a432e
:10341c001a701a0053785bb2002bfbdb7047c04666
:04342c000018004044
:020000040000fa
:1034300010b50b4c2023e45c0023002c01d01800b5
:1034400010bd074b9880dc605c6199601a619c70cc
:103450001c7021229c540021fff70cfc0123eee795
:0434600048090020f7
:020000040000fa
:10346400f4464a1805d200f049f801d5c0174008bf
:10347400604701235b05d34206d200f03ff801d533
:103484000120c0074042604701d10042f5d0d01767
:043494004008704735
:020000040000fa
:10349800f0b5050000200a4c4200165d002e02d14e
:1034a800a2185078f0bd296801300f78c0b2b74231
:1034b80003d1a2180131507829600a28ecd9f1e724
:0434c80014380000b4
:020000040000fa
:1034cc0070b4012676054c005d00e6420cd8ee4245
:1034dc000ad825430543154303d0994204d19042a1
:1034ec0002d1012070bc7047002070bc7047c046f0
:020000040000fa
:1034fc004a0010d2520d03231b02ff33d21a0ad4f6
:10350c0052421f3209d4400dc90208430123db0784
:10351c001843d040704700207047d0177047c04602
:020000040000fa
:10352c00f8b5050001262c68344201d000200ee0cd
:10353c002000fff7cbfe070000f038f92868a04206
:10354c00f1d1b043281a3900fff7c2fc0120f8bdb5
:020000040000fa
:10355c00084a1368002b09d007491818884202d86a
:10356c0010601800704701235b42fae7034b1360ad
:10357c00f2e7c046140a0020200c0020200a00208c
:020000040000fa
:10358c00f8b5050001276c683c4201d000200de025
:10359c002000fff79bfe060000f008f96b68a342c1
:0e35ac00f1d128003100fff793fc0120f8bd9b
:020000040000fa
:0235ba00704758
:020000040000fa
:1035bc00b01a0000e01a0000181b0000501b00009d
:1035cc007a1b0000b81b0000da1b00001c1c00005a
:0c35dc001c1c0000fe1b0000101c000066
:020000040000fa
:1035e80070b500290fd0002a0dd01500002808d189
:1035f8000c008e18012000f017f920700134b44235
:0c360800f8d1280070bd0025fbe7c0468b
:020000040000fa
:10361400020000234832d356591e0b43137004236f
:103624004268134005d010231343436001204042f5
:0a36340070470364c3631800fae74f
:020000040000fa
:10363e00002380290fdb812901dd83290bd107218e
:10364e00136807338b431900083111601a685b68e1
:0a365e00026043600123180070476a
:020000040000fa
:10366800084b1b8a5b070bd0064b07221a829b7bf1
:103678005b0705d5034b04211a8b9a7b0a42fbd1c1
:083688007047c0460014004227
:020000040000fa
:1036900070b5084c80239b00e51802e00134a54278
:1036a00006d021784420fef7f7f90028f9d0f5e795
:0836b00070bdc04618060020a1
:020000040000fa
:1036b800f7b5002507000c002e000192019b9e42e1
:1036c80001db2800febd626821683800fff788ff2b
:0836d80001362d180834f1e75a
:020000040000fa
:1036e000f7b5002507000c002e000192019b9e42b9
:1036f00001db2800febd626821683800fff728fe64
:0837000001362d180834f1e731
:020000040000fa
:10370800012370b544689c43651a102d0ad94218e4
:1037180019432b4311605360083203514160100074
:06372800fef700fe70bd7b
:020000040000fa
:02372e007047e2
:020000040000fa
:1037300010b5064b987bc0b23b229a73044b1b68b2
:10374000002b02d0024a5168984710bd002c00425d
:04375000d409002078
:020000040000fa
:10375400d501a81fd30040ad8ed8052002a1c8da38
:1037640010913f3f3f3f81bf82bfd9d2d808a4a662
:04377400af00c0469c
:020000040000fa
:1037780010b5040000f048f9002804d1002c01d04d
:103788000123237010bd002cfcd002232370f9e71d
:020000040000fa
:103798000fb407b5054b04aa1b6802ca1868019242
:1037a80000f0b4f803b008bc04b018479009002032
:020000040000fa
:1037b800064b0130c000c258002a05d10200083a61
:1037c800d21819184a60c2507047c0461004002029
:020000040000fa
:1037d80070b5050000f028f9002807dd2c002d1829
:0e37e8002078fef737fd0134ac42f9d170bdf8
:020000040000fa
:0237f60070471a
:020000040000fa
:1037f800044a136801331360034b8022d201da6153
:0c3808007047c046f80900200044004151
:020000040000fa
:1038140068076c094c836a9074a07ac00080688839
:0c38240000846c820081286e696c290011
:020000040000fa
:1038300000b583b000230193012101a8fff7a4fa8a
:0a3840000028f9d0019803b000bd84
:020000040000fa
:10384a0000b583b06b46d87101216b46d81dfff7ce
:0a385a00d8fb0028f8d003b000bd31
:020000040000fa
:1038640070b505000c00222000f0a2f8280000f03a
:0a3874009ff8200000f09cf870bde2
:020000040000fa
:10387e0070b505000c00212000f095f8280000f02e
:0a388e0092f8200000f08ff870bde2
:020000040000fa
:1038980010b50400fff7bafe002805d1a368e26856
:0a38a800a36163619b18a36210bdc9
:020000040000fa
:1038b400044a138802210b431380d37b5bb2002b91
:0838c400fbdb7047002c004201
:020000040000fa
:1038cc00a4150000ba1500002616000054160000be
:0838dc0082160000b81600007e
:020000040000fa
:1038e4005374617465203d3d2025640d0a00000079
:0838f4003130306d7300c04655
:020000040000fa
:1038fc00044b80229200991800221a7001338b42db
:08390c00fbd1704718060020f2
:020000040000fa
:1039140013b50400019201aafdf728fb6368db06d6
:0839240001d50120404216bd4f
:020000040000fa
:10392c00d0400b1cd1409c46203ad3401843524205
:10393c0063469340184370479140031c90409c464b
:10394c00203a9340194352426346d340194370477f
:10395c0010b5002903d1fff7d7fc203002e0081c7a
:08396c00fff7d2fc10bdc046bc
:020000040000fa
:10397400006810b5002801da002010bdfff7ecfd47
:06398400431cfad1f8e734
:020000040000fa
:10398c0010b500f0b1f8024b1860586010bdc0467d
:04399c00e40900201a
:020000040000fa
:1039a000c36a10b5002b01d0984710bd0068fff71f
:0439b000cffcfae767
:020000040000fa
:1039b40010b5040021004320fef76cf80028f9d06c
:0239c40010bd34
:020000040000fa
:1039c60010b504002020fff7f2ff2000fff7effffd
:0239d60010bd22
:020000040000fa
:1039d8004a424a41802310b55200db00fff752faf1
:0239e80010bd10
:020000040000fa
:1039ea00002310b59a4200d110bdcc5cc4540133f7
:0239fa00f8e7ec
:020000040000fa
:1039fc0003000a7818001a7001310133002af8d13b
:023a0c00704701
:020000040000fa
:103a1000024a2123d05cc0b27047c046480900204a
:020000040000fa
:103a2000f0b40125ed076b40004c20471f17000044
:020000040000fa
:103a300003001a78002a01d1181a70470133f8e7f9
:020000040000fa
:103a400010b5fff7a3fffff772fefff770fe10bd82
:020000040000fa
:103a500003001218934200d1704719700133f9e73f
:020000040000fa
:103a6000494e4600696e66004e414e006e616e0022
:103a7000494e4600696e66004e414e006e616e0012
:020000040000fa
:103a800010b5fef7fbf8029a039bfdf745fe10bd4b
:020000040000fa
:0e3a90000300413b192b01d820231843704737
:020000040000fa
:0e3a9e000300613b192b01d85f2318407047cd
:020000040000fa
:0c3aac00014b82225a607047004000412c
:020000040000fa
:0c3ab800014b58629962704748090020d9
:020000040000fa
:0c3ac400014b186059607047d4090020c5
:020000040000fa
:0c3ad000014b188059807047ec09002061
:020000040000fa
:0c3adc0010b50400fff78cff200010bda7
:020000040000fa
:0a3ae80010b50068fff730fc10bdb8
:020000040000fa
:083af400004870479008002013
:020000040000fa
:083afc00012040427047c04662
:020000040000fa
:073b0400286e756c6c2900ae
:020000040000fa
:063b0c00002000217047bb
:020000040000fa
:043b14007047c046f0
:020000040000fa
:043b180000207047d2
:020000040000fa
:0200000400807a
:0440000077c700d8a6
:020000040000fa
:0200000400807a
:044004005c01ffff5d
:00000001FF
