:020000040000fa
:10000000f07f0020a12200000f1b0000c72000008d
:1000100000000000000000000000000000000000e0
:10002000000000000000000000000000fb190000bc
:100030000000000000000000fb190000fb19000098
:10004000fb190000fb190000fb190000fb19000060
:10005000fb190000fb190000fb190000fb19000050
:10006000fb190000250c0000fb190000fb19000023
:10007000fb190000fb190000fb190000fb19000030
:10008000f1280000fb190000fb190000fb1900001b
:10009000fb190000fb190000fb190000fb19000010
:0400a000fb19000048
:020000040000fa
:1000a400f8b5c046f8bc08bc9e46704781220000e3
:1000b400f8b5c046f8bc08bc9e46704759220000fb
:020000040000fa
:0800c400d0140000010000004f
:020000040000fa
:1000cc000000000000000000000000000000002004
:1000dc0000200020002000200000002000500050d4
:1000ec00005000000000000000000050005000f81c
:1000fc00005000f8005000500020007800a0007064
:10010c00002800f0002000c000c8001000200040b3
:10011c0000980018004000a000a0004000a800902b
:10012c00006800300030002000400000000000009b
:10013c000010002000400040004000200010004053
:10014c00002000100010001000200040002000a82b
:10015c00007000f8007000a80020000000200020b3
:10016c0000f800200020000000000000000000004b
:10017c0000300030002000000000000000f80000fb
:10018c000000000000000000000000000000003033
:10019c00003000000008001000200040008000002b
:1001ac0000600090009000b000d000900060002033
:1001bc000060002000200020002000f00060009073
:1001cc00001000600080008000f000f000100020a3
:1001dc0000600010009000600020006000a000a0f3
:1001ec0000f0002000200070008000e000100010e3
:1001fc000090006000600090008000e00090009093
:10020c00006000f0001000100020002000400040b2
:10021c000060009000900060009000900060007002
:10022c000088008800780008001000e00000000042
:10023c000020000000200000000000000000002052
:10024c0000000020002000400008001000200040aa
:10025c000020001000080000000000f8000000f86a
:10026c0000000000004000200010000800100020da
:10027c0000400070008800080030002000000020c2
:10028c000070008800a800b800b000800078006002
:10029c0000900090009000f00090009000e0009022
:1002ac00009000e00090009000e000600090008062
:1002bc00008000800090006000e0009000900090b2
:1002cc000090009000e000f00080008000e00080d2
:1002dc00008000f000f00080008000e000800080d2
:1002ec00008000700080008000b0009000900070d2
:1002fc0000900090009000f000900090009000f0b2
:10030c000040004000400040004000f00010001091
:10031c00001000100010009000600090009000a0f1
:10032c0000c000a000900090008000800080008041
:10033c000080008000f000f000a800a800a800a831
:10034c0000a800a800e000900090009000900090a1
:10035c000090006000900090009000900090006071
:10036c0000f00090009000f00080008000800060a1
:10037c00009000900090009000b0007000e00090a1
:10038c00009000e0009000900090007000800080d1
:10039c0000600010001000e000f000400040004041
:1003ac0000400040004000900090009000900090b1
:1003bc00009000f000900090009000900090009051
:1003cc00006000af00af00af00af00af00af00f0b7
:1003dc0000900090006000900090009000900090c1
:1003ec000090009000700010001000e000f0001071
:1003fc00001000600080008000f000780040004099
:10040c0000400040004000780000008000400020c8
:10041c000010000800000078000800080008000820
:10042c000008007800200050008800000000000048
:10043c00000000000000000000000000000000f8b8
:10044c0000600060002000100000000000000000b0
:10045c0000000060001000700090007800800080a8
:10046c0000b000c8008800c800b000000000007098
:10047c000088008000880070000800080068009860
:10048c00008800980068000000000070008800f8e8
:10049c000080007000100028002000700020002058
:1004ac000020000000000070009800980068000810
:1004bc000080008000b000c8008800880088002000
:1004cc0000000060002000200020007000100000e0
:1004dc000010001000100090006000800080009060
:1004ec0000a000c000a000900060002000200020b0
:1004fc000020002000700000000000d000a800a820
:10050c0000a800a80000000000b000c80088008807
:10051c0000880000000000700088008800880070cf
:10052c000000000000b000c800c800b0008000004f
:10053c0000000068009800980068000800000000a7
:10054c0000b000c80080008000800000000000782f
:10055c0000800070000800f00020002000f800204f
:10056c00002000280010000000000088008800888f
:10057c000098006800000000008800880088005087
:10058c000020000000000088008800a800a800508f
:10059c00000000000088005000200050008800007f
:1005ac000000008800880078000800880000000027
:1005bc0000f800100020004000f80010002000207f
:1005cc00004000200020001000200020002000002f
:1005dc0000200020002000400020002000100020ff
:1005ec0000200040004000a80010000000000000a7
:0405fc000000c046f5
:020000040000fa
:100600000023f0b506001500afb0059101930599e0
:100610000b78002b00d10fe101235b420a930eab54
:1006200000240c93802309940b940d930b5d002bf5
:1006300001d0252b2ad1002c06d02200300001f059
:10064000ebff059b1b190593059b1a78252a00d003
:10065000e7e0013302930593022310219c4608270b
:10066000059803782b2b1bd025d8202b1bd0232bb0
:100670001dd02a2b2ad001f0bdfe0b90059b1a78c5
:10068000303a092a33d801330593f7e70134cde72f
:100690000122099b80180393134309930590dfe718
:1006a0000423099a0ee0099b03933b430be0099b4b
:1006b00003930b4307e02d2bead0302bd9d16246b0
:1006c000099b0393134309930130e7e72b6801303b
:1006d0001a1d1b6805902a600b93002b07da099af4
:1006e0005b420392012203990b934a400992099bb2
:1006f000da0702d5022293430993059b1a782e2a22
:100700000ed10022581c0a9205905a782a2a28d124
:10071000023305932b681a1d1b682a6003930a9302
:1007200005a801f0c9ff059b0700187802f056faea
:10073000692800d183e035dc632800d1d6e01bdcda
:10074000252800d1dfe0612859d0252306aa13709f
:10075000029b0593002309930b93013b0a930233f9
:10076000b2e001f047fe0a90059b1a78303a092a58
:10077000d6d801330593f7e7642860d06728e4dc16
:100780002a00390006a802f025f8002800d1a9e0c7
:10079000059b09a95a1c05921b7806aa300002f095
:1007a00052fa3de0702800d17de016dc6e2800d1c1
:1007b00091e06f28c9d12b000022390006a801f072
:1007c00082f8002800d18de0059b06aa013309a913
:1007d0003000059301f095fa22e0752840d0782882
:1007e0004fd07328b1d1802f00d07be0059b2a68c1
:1007f00001330593131d2b601268002364e02a0067
:10080000390006a801f0e6ff002800d16ae0059b48
:1008100009a95a1c05921b7806aa300002f013faa7
:100820002418019b1c19a34200dc74e04f223b4baf
:100830001a6001235b42019301982fb0f0bd2b0099
:100840000122390006a801f03ef800284ad0059b95
:1008500006aa013309a93000059300f0dbffdfe7aa
:100860002b000022390006a801f02df8002839d00d
:10087000059b06aa013309a93000059301f0f8fb96
:10088000cee72b000022390006a801f01cf8002852
:1008900028d0059b5a1c05921b7806aa09a930008e
:1008a00000f0eefcbce72b000022f02106a801f0ce
:1008b0000af8002816d0059b079a01330593069b7a
:1008c000134306d1164a163209a9300001f026fc5e
:1008d000a6e77823e1e7019b39001a1906a82b0047
:1008e00001f07afa059b013305939ae7802ff9d13d
:1008f000059b013305932b681a1d1b682a6006aa05
:1009000013700123e0e7802fecd1059b06aa013389
:1009100005931070f5e7019479e6c0462c0a002093
:04092000d4290000d6
:020000040000fa
:10092400940900201c000000000000004809002079
:100934002c00000000000000e00900200800000076
:1009440000000000080a002004000000000000006d
:100954000c0a00200400000000000000100a00201f
:10096400040000000000000018060020000200003f
:1009740000000000f809002006000000000000004c
:10098400c70900200100000000000000380a002010
:100994000200000000000000d20900200100000055
:1009a40000000000140a0020040000000000000001
:1009b400b00900200c000000010000004142434443
:1009c40045464748494a4b00e80900200800000012
:1009d4000100000005070000cc000000000a002010
:1009e40005000000010000004d454e5500000000c8
:1009f400180a0020040000000100000044115a1be2
:100a0400bc0900200b00000001000000303132332b
:100a140034353637383900001c0a00200400000041
:100a2400010000004f464600d409002009000000e0
:100a340001000000504f574552205550000000005f
:100a4400c80900200a0000000100000052554e2091
:100a54004359434c45000000200a002004000000d4
:100a6400010000001211411bd30900200100000005
:100a74000100000002000000340a0020020000000f
:100a84000100000040000000240a002004000000cf
:100a940000000000f80800205000000000000000e2
:100aa4001808002078000000010000002808002039
:100ab400200800202808002000000000000000009a
:100ac40025000000080000200004000000000000d1
:100ad4000000000000000000000000000000000012
:100ae400000000000000000000000000412c000095
:100af40000000000000000000000000000000000f2
:100b0400411e000000000000000000000000000082
:100b140000000000000000000000000000000000d1
:100b24000000000000000020080400000000000095
:100b340074090020200000000100000001000000f2
:100b4400030000000000000000000000000000009e
:100b54000000000000000000f0090020f00900205f
:100b64000800000000000000280a00200400000023
:100b7400000000002c0a0020040000000000000017
:100b8400080400201002000000000000900800206b
:100b940068000000010000000100000003000000e4
:100ba4000000000000000000000000000000000041
:100bb40000000000a51e000000000000000000006e
:100bc400000000001d2c0000732a0000000000003b
:100bd4000000000000000000000000000000000011
:100be4000000000000000000000000000000000001
:100bf40000000000000000000000000000000000f1
:100c0400300a002004000000000000000000000082
:100c14000000000022222222222222222222222238
:020000040000fa
:100c240010b56b4b5b7b002b17d0694b1b8a9b0762
:100c340014d5684b2022ff2199540132fd3999546f
:100c4400644a2023d35c5bb2013300d18fe0614a54
:100c54002023d35c062b00d1a2e010bd5c4b1b8a81
:100c6400db0707d55b4b2022ff2199540132fd3964
:100c74009954e5e7564b1b8a5b0707d5554b202251
:100c8400ff2199540132fe399954d9e7514a20235e
:100c9400d35c5bb2032b47d0042b0fd0022bcfd1f4
:100ca4001369002b04d09088002101f029f9c7e7cb
:100cb400484b9888012101f023f9c1e7454a93691b
:100cc400126993420cd0434a9168581c9061ca5ce3
:100cd4003f4b1a761a00138a1bb2002bfbdbafe7db
:100ce4003c4b5b69002b10d03a4b9b885b00012284
:100cf4001343dbb2364a1375138a1bb2002bfbdb9a
:100d0400344a20230321d1549ae7314a5168c0233d
:100d14009b020b435360138a1bb2002bfbdb2d4a4f
:100d240020230621d1548be72a4a5369013bd26917
:100d34009a420dd0264a138a1bb2002bfbdb254bab
:100d4400d968da69501cd861214b1b7e8b5477e734
:100d54001f4a5168e023db020b435360138a1bb222
:100d6400002bfbdb1b4a20230621d154e2e720237e
:100d74000021d154164a5168c0239b020b4353608f
:100d8400138a1bb2002bfbdb114b03229a73114b0a
:100d94005b6a002b00d160e70e4a906a98475ce7d3
:100da4001300002220215a5401315a54084b0332b3
:100db4009a7319002d320b8a1340102bfbd1054b6b
:100dc4005b6a002b00d148e7024a906a984744e7df
:080dd400001000424809002054
:020000040000fa
:100ddc0030b583b004005c4b1a780a2a03d8930010
:100dec005a4ad3589f460020ace0594d2900594827
:100dfc0001f002ff00232b70012257493d2001f026
:100e0c003bfc442c04d0504b01221a70002099e07a
:100e1c004d4b02221a70002094e0504b59704c4bf1
:100e2c001b78012b09d04a4b1b780020022b00d0d9
:100e3c0088e0454b00221a7084e0454b00221a7062
:100e4c00023246493d2001f017fc3f4b03221a7039
:100e5c00002077e0424b59703d4b1b78012b08d09a
:100e6c003b4b1b780020022b6cd1374b00221a70a5
:100e7c0068e0374b00221a70023239493d2001f0ec
:100e8c00fbfb314b03221a7000205be0304b1b78cc
:100e9c00012b08d02e4b1b780020022b52d12a4b51
:100eac000a221a704ee02a4b00221a70264b093285
:100ebc001a70002046e0264b1b78012b12d0244bd5
:100ecc001b780020022b3dd1264b8022d2019a6147
:100edc001f4b00221a7001321f493d3001f0ccfb30
:100eec0000202fe01a4b00221a70174b03321a7095
:100efc00002027e0164b00221a70042300931a4b93
:100f0c00023216493d2001f065fb0f4b06221a7088
:100f1c00002017e00e4b1b78012b08d00c4b1b78d4
:100f2c000020022b0ed1084b0a221a700ae0064b45
:100f3c0007221a70002005e0034b00221a700120d2
:100f4c0000e0012003b030bdd20900207c27000056
:100f5c00d309002039290000c7090020380a0020d5
:0c0f6c00340a002000440041140a002058
:020000040000fa
:100f780070b50c00062821d88000564b1b589f4698
:100f8800554c25002135207801f0d8fd0134ac42bc
:100f9800f9d113e00321002001f040fd8321042052
:100fa80001f049fd002001f0d2fd4c4b00221a80cf
:100fb80001325a8001f066fd01f046fc70bd032144
:100fc800002001f02bfd8321042001f034fd0020d6
:100fd80001f0bdfd414b14221a800a3a5a8001f0f3
:100fe80051fd3f4801f0d4fc01f02efce6e7032157
:100ff800002001f013fd8321042001f01cfd0020d6
:1010080001f0a5fd01f03efd344b00221a800a32a2
:101018005a80344801f0bcfc01f016fccee70321ed
:10102800002001f0fbfc8321042001f004fd0020d6
:1010380001f08dfd294c0023238001f023fd1323ab
:101048006380294801f0a4fc01f0fefbb6e7032108
:10105800002001f0e3fc8321042001f0ecfc0020d7
:1010680001f075fd1d4b1e221a800b3a5a8001f0c3
:1010780009fd1e4801f08cfc01f0e6fb9ee7032108
:10108800002001f0cbfc8321042001f0d4fc0020d7
:1010980001f05dfd114b14221a80013a5a8001f0cb
:1010a800f1fc134801f074fc002c0ed1114b1868a8
:1010b80001f0a8f8094b46221a80333a5a800e48a4
:1010c80001f066fc01f0c0fb78e70c4b186801f0f2
:1010d80099f8efe7b829000014290000f809002062
:1010e8001c0a0020d4090020bc090020b0090020f7
:1010f800c8090020200a0020000a0020180a002041
:020000040000fa
:10110800f0b587b0039003a801f090f9002802da3f
:10111800002007b0f0bd039b1b095d1e202d09d9d7
:101128004f49023b4f4a8b4224d8db08d318043b73
:101138001d7801352a000120002101f0c7fc002498
:1011480043428c4100930194474f00983a687b686a
:101158001040020001990b401a433fd1039b05a898
:101168001033059301f0cafc002809d10c223f4b2b
:101178001a60cee7db09d318043b1d781135d9e78f
:101188003b490c68a04206d0059b0400103b059320
:101198000123103483600125059be2180a602b4364
:1011a800083a083c28c26360002cb1d0200001f046
:1011b80099fa00280bd023686168ab43e31a5a6890
:1011c800aa4352185a606168a94362501c00200063
:1011d800039901f075fb200008309ae7214a254958
:1011e8003c32002831d1584203404b43db0ed65cd9
:1011f8002036300001f0bcfb731cdb00fc58083bb8
:10120800fb189c42a0d0272e25dd0235ae4201dc1a
:101218003f2e20d101226368039f9343dd1b2800e2
:10122800009301f07ff9864215d1e268a168e319bd
:10123800da60996093609a68d360012217431f604f
:101248005d60009be5506760c1e7434203404b4344
:10125800db0ed65ccde73100200000f0abffb6e72f
:10126800ff010000bc1f0000100400202c0a002011
:081278000804002029e66b07c1
:020000040000fa
:10128000f0b58fb00d934b680c9008938b680d00f0
:101290000993cb6816000393089b0f68002b60db53
:1012a00002239f4310233b400a93336805937368de
:1012b0000693099b04930a9b002b06d0059b069a74
:1012c000134302d0099b023b049308233b400b933a
:1012d0005a1e9341049ad31a04932b69039a5c1ef5
:1012e00000231355089b0793012c10dd059b069adc
:1012f000134339d1079b002b36dc089a049b9b1ab9
:10130000079a9b18002b02dd02231f422cd10a9b57
:10131000002b0bd00cce134308d0039b0d9a1b1946
:10132000013b1a703023039a023c13550b9b002b90
:1013300003d02023039a013c13552b6900975a1eb2
:10134000039b121b19190c98099b00f09efc0c9b27
:101350005b68db0503d56b68984200da18000fb0b4
:10136000f0bd012308939de70f22059b013c13402c
:1013700018005730092b01dc303318000d9b413b1e
:10138000192b06d820230343613b192b01d801f008
:101390002cfc039b1855079b013b0793069b1a07e0
:1013a000059b1b091a43069b05921b0906939be7a5
:020000040000fa
:1013b000304a136a30490b4002210b431362082361
:1013c000d1680b42fcd02b4b00229a612b4b2c4a4c
:1013d0005a602c4a9a601a0053785bb2002bfbdbf0
:1013e000244a938c80218b4393841023d1680b4231
:1013f000fcd0254b1a68920e3f2a38d0234b1b682d
:101400009b059b0d920213431a4a93621b4b822247
:10141000d2015a80174a1023d1680b42fcd0154bd9
:101420001b4ada621a001023d1680b42fcd0114b20
:1014300006229a841a004023d1680b42fcd00f4b3d
:10144000144a5a601a0053785bb2002bfbdb0b4b3b
:10145000114a5a80114a5a80114a5a80114a5a80b8
:10146000114b1f225a61da61104a1a627047203a02
:10147000c4e7c046000800400000ffcf000c004059
:101480000106010001fa000024608000286080004d
:10149000dc05010400070100034000000f400000cc
:1014a000104000001440000000040040300801001b
:020000040000fa
:1014b000f8b5002000f008fe00212f4801f0a8fb3d
:1014c00001f0d8fa00232d4a13602d4a13602d4aeb
:1014d00013602d4b8022d2019a61d2089a610021bb
:1014e0000020fff749fd00240026244d274f03e08c
:1014f000244b1b68092b32dc2968380001f02cfad8
:101500001f4b1968224801f027fa1e4b1968380052
:10151000283001f021fa1c4b1b6adb0208d51a4a5d
:101520009c2380214901d15063425c41e4b20626ec
:10153000124b1b68002b06dd104b00221a60104a6c
:101540001368013313600e4b1b68092bd0dd0c4b65
:1015500000221a600b4a136801331360c8e7f0b227
:101560002100fff709fd084b8022d201da61054b0b
:1015700000221a60c0e7c0469d2b00000c0a002024
:10158000080a0020100a002000440041f024000056
:04159000042500002e
:020000040000fa
:10159400f0b5060085b00f0015001c008b4265d81d
:1015a40001d1824262d82100280001f09dfa39005d
:1015b4000090300001f098fa009b21001b1a1a00d9
:1015c4002800039301f084fa00900191019bbb422f
:1015d40046d802d1009bb34242d8009b019c039a97
:1015e40001200021f61aa74101f072fa039b002b97
:1015f4002fd0019b009adb0754081c43019b5d0814
:10160400039b9c46bd422ed801d1b4422bd8320054
:101614003b00121bab41012692185b410027b61810
:101624005f4101235b429c446346002bead180194d
:101634007941039a04000d003000390001f03cfaae
:10164400039a06000f0001f043fa241a8d4120008a
:1016540029000a9b002b01d01e605f6005b0f0bd1d
:1016640000200021c2e7b6197f41dae700200021fb
:02167400efe79e
:020000040000fa
:021676007047bb
:020000040000fa
:10167800f0b5de4657464e464546e0b583b02e4b9c
:101688001b781a0001931e002c4b1b889446634458
:10169800802b49dc284b5a780092284b5b8894466b
:1016a8006344202b40dc002a38dd203850434000ba
:1016b800214b5b689b4683440025204b9a469946fc
:1016c80023e0534659884919c9b218880019c0b28d
:1016d800012200f049fe0134a6420fdd3b00a34081
:1016e80042461342edd04b4659884919c9b2188869
:1016f8000019c0b2002200f037feece701350223e2
:101708009c46e344009bab4208dd5b461f88002ee5
:10171800f4dd002480231b029846dfe7074a13887c
:1017280001998c466344138003b03cbc90469946ab
:10173800a246ab46f0bdc046e8090020f8090020e3
:020000040000fa
:10174800f7b5002858d00838436801221e00964390
:1017580085192a680400934200d0ffde01276b68d0
:10176800226813403b420ed1200000f0bbff002846
:1017780043d1280000f0e6ff0028f0d06b68bb4397
:10178800f618ed18ebe73b003343636030002b603d
:1017980000f0c8fe019001f0ebf86b682268134076
:1017a8003b42e1d0184b019a1868596801f082f958
:1017b800384212d1019a0120002101f087f90b006b
:1017c800002804d0104a126802430f480260002b18
:1017d80003d00d4a53680b435360019b0a4a0133f7
:1017e800db00d3181a005b68083a66602e60e36075
:1017f800a260d460e3689c60f7bd2368bb43e41a29
:0c1808006368bb43f618b4e7100400202e
:020000040000fa
:10181400f0b54b6889b005930b6807009c460793a5
:10182400cb680c008e68049310685168cd0f44d0c7
:101834000b000200002150429941059b002b08db5c
:101844000222634693430793002d02d1079b5a0754
:101854002ad5731e07aa02920a22009301920b0052
:101864000200200000f092f9002d02d1079b5a07d4
:101874001ed501382d23002d00d1023b049a1354a8
:1018840023695a1e049b121a1918079b38000093e7
:10189400330000f0f8f97b68db0503d563689842f0
:1018a40000da180009b0f0bd1b07db0ff31ad1e70b
:1018b4001b07e5d501382023e0e7059b002bbfdaa1
:0218c400c4e777
:020000040000fa
:1018c60030b5882933d015dc812941d003dc802945
:1018d6003ed0002030bd822911d08429f9d11c6860
:1018e60002cc1c60002a1ed009b20160c9174160f3
:1018f6000120efe7a02923d00adc9029e9d10724ab
:1019060019680731a14330c9196004604560efe7e3
:10191600c02901d0f029dcd11a68111d196013689d
:101926000360002312e089b201604260e0e71c68b0
:1019360002cc1c60002a01d049b2d6e7c9b2f3e74f
:101946001a68111d196013680360db174360cfe73f
:1019560019680c1d1c600b680360002ae5d0f4e7cb
:020000040000fa
:10196600f0b5de4657464e464546e0b583b0040020
:101976000d00904619000193171afa17bf18574021
:101986005b1bda179818504044459b4102221a40c7
:10199600934601235b429c46e3448d429b410222cf
:1019a6001a409246e24400903e1a0022404600f059
:1019b600dcfc00984342994610e0002229002000f2
:1019c60000f0d3fc7300994503da009ab61a5c441a
:1019d600e4b29f4202ddf6195544edb24445ecd11e
:1019e600019b9d42e9d103b03cbc90469946a24674
:0419f600ab46f0bd4f
:020000040000fa
:0219fa00fee706
:020000040000fa
:1019fc00f0b5c6461f4a204b00b50021934203d2d6
:101a0c00197001339342fbd10b231c4a9c46083bb3
:101a1c0098461368546819000026214311d017000a
:101a2c0091680c3700290fd11a19002c03d01e70a5
:101a3c0001339342fbd13a001368546819002143d7
:101a4c00edd104bc9046f0bd6146c91a1d19511860
:101a5c00002c05d05a1c505c187013009542f9d11b
:101a6c00434623405a1e9341a4081c19a4003f1955
:101a7c003a00e1e7000000200000002024090000eb
:020000040000fa
:101a8c00f0b51600050002278369426987b00293fe
:101a9c00d31a03939b1904910596019302ac3a0057
:101aac002100286800f0f6fe019b984208d1ab6833
:101abc00ea68ab619a18aa626b61300007b0f0bd9e
:101acc0000280cda102200236968ab620a43ab6170
:101adc006b616a60022f12d06368f61aede7019b06
:101aec001b1a01936368984202d9c01a0834013f4b
:101afc0023681b1823606368181a6060cfe71e0008
:021b0c00dbe715
:020000040000fa
:021b0e00fee7f0
:020000040000fa
:101b100030b51d4b1d4a1a604222032199540239e7
:101b200001329954053299540132995400224a20c5
:101b30001a5401301a5403301a5401301a544d38d3
:101b4000542418550434195501341955253c3325ae
:101b50001d550834113d1d554434b2256d011d51ec
:101b600010348025ad001d513034195506341a55f6
:101b700003341a5501341a5501341855ca301a5411
:101b8000d132995430bdc0460044004104cc00001d
:020000040000fa
:101b9000f0b5050085b019000c9b100001931a6880
:101ba0002b696c68013bef681d00002c00da0124f2
:101bb0000026fe540a9e0123361b0296022616407a
:101bc0000b9ad2170392002d04dc002b17d02800ab
:101bd00005b0f0bd02000a4307d1002c05dc029ad3
:101be0001219002af1dd002eefd00b9a039b00f0b2
:101bf00041fc013d130030327a55013ce3e71023ec
:0e1c0000019a12689a431300019a1360dfe7fd
:020000040000fa
:101c0e00f8b5846a05000f001600002c0ad0ab6ae6
:101c1e006a699b1ab3420cd2320039002800fff7d2
:101c2e002eff05e000f011ff03002000002beed088
:101c3e00f8bd002ef0d02b0034331b785bb2002b96
:101c4e001adb3400dbb2621eb95c994212d122005b
:101c5e0039002800fff713ffa042e9d33f19341bc8
:101c6e0022003900686900f081ff6b6930001c1991
:0c1c7e006c61dde7141ee6d13400f1e7d4
:020000040000fa
:101c8a00f0b51e00012389b014000e9a07001a400d
:101c9a000291019220d1b4421eda351b03952a0023
:101caa00102d00d91022202104a800f07aff0f2d50
:101cba001bdc0f22039b04a913401a00380000f012
:101cca00a6fc019b002b04d122000299380000f0e7
:101cda009efc300009b0f0bd22000299380000f0e5
:101cea0096fcb442d9db2600f3e7102204a9380097
:081cfa0000f08dfc103ddae75b
:020000040000fa
:101d0200f0b50b680c008f68cd68496887b0060093
:101d12000593002902db02218b43059305a9536831
:101d2200126802910821009701912000fff72fff0e
:101d3200059bdb0602d5302301382b54059b1b077c
:101d420002d5202301382b54236929185a1e059bda
:101d5200121a009330003b00fff796ff7368db0511
:0e1d620003d56368984200da180007b0f0bda0
:020000040000fa
:101d7000164b01221a601a00138a1bb2002bfbdbe0
:101d8000124b802252005a601a00138a1bb2002b99
:101d9000fbdb0e4be8225a810d4a1a601a00138aa7
:101da0001bb2002bfbdb094b10221a821a00138a8c
:101db0001bb2002bfbdb074b002221215a540139b7
:101dc0005a54024b03325a737047c0460010004207
:081dd000160030004809002054
:020000040000fa
:101dd80010b584291fd007dc812915d0822922d08b
:101de800802911d0002010bd90291cd008dc88293a
:101df800f8d119680c1d1c600b6803601a7010e09c
:101e0800a02901d0c029edd119680c1d1c600b68f0
:101e180003601a6005e019680c1d1c600b680360fc
:101e28001a800120dfe719680c1d1c600b6803602d
:081e38001a60d2175a60f4e7aa
:020000040000fa
:101e40007fb51600c2680d0013000091591e8b412a
:101e5000f31a019383680400039269460222006822
:101e6000029300f009fd002808dc18220823024034
:101e70005340626813436360060010e0019b834295
:101e8000fad2a268c01ae3681018e2632064002b3b
:101e900005d0531ce3631378ad19013d2b7030005e
:041ea00004b070bd5d
:020000040000fa
:101ea40037b504000d00002801d100203ebd436871
:101eb4009b0607d543698269934217d80023a3621e
:101ec400a3616361e26b236c9a4206d20121d21aa8
:101ed400d3170091206800f0b9fe00232364e36364
:101ee4009d42e2d0206800f0a1fedfe70022c36a31
:101ef400110098476369002be0d101204042d5e7e7
:020000040000fa
:101f040010b5134b00229a61da61124b03329a73b3
:101f14005a68114c22405a601a00138a1bb2002bd3
:101f2400fbdb00290ed00a4a20230324d4544000aa
:101f34000143c9b2074b19751a00138a1bb2002b4f
:101f4400fbdb10bd024a20230424d454efe7c0462f
:0c1f54004809002000100042fffffbffc6
:020000040000fa
:101f600000230e4a10b513600d4a13600d4a13602a
:101f70000d4a13600d4a13600d4a53621361013319
:101f8000936000f023fe00f0b2fc0a4c0a4b9c4226
:101f900000d310bd08cc9847f8e7c046280a0020b7
:101fa0000409002000090020f8080020fc08002097
:0c1fb00008090020b0000000b400000090
:020000040000fa
:101fbc0020212223242425252626272728282828c3
:101fcc00292929292a2a2a2a2b2b2b2b2c2c2c2c5d
:101fdc002c2c2c2c2d2d2d2d2d2d2d2d2e2e2e2e25
:101fec002e2e2e2e2f2f2f2f2f2f2f2f000117029b
:101ffc001d1813031e1b190b1408040d1f161c129d
:0c200c001a0a070c1511090610050f0e2a
:020000040000fa
:1020180070b504000d000020002c21d000f000fc59
:10202800002d18d000200f4a0421072605e0138b45
:1020380023800234013085420ed0937b0b42fcd0c2
:10204800138a334208d153683340012befd0138be6
:1020580023700134eee72800281a45426841c0b2cf
:0820680070bdc04600140042e7
:020000040000fa
:10207000f0b50b680c008f68cd68496887b0060022
:102080000593002902db02218b43059305a95368c0
:10209000126802910a21009701912000fff778fd54
:1020a000236929185a1e059b121a009330003b0021
:1020b000fff7ebfd7368db0503d56368984200da30
:0620c000180007b0f0bd9e
:020000040000fa
:0220c600fee733
:020000040000fa
:1020c80010b5114b06225a60104b1b681868002186
:1020d80000f046fd0e4b1b681868002100f040fd1b
:1020e800fff712fdfff760f900f0e0f900f080fd5e
:1020f800fff73afefff7bbfa00f0a6fa00f012f974
:1021080000f054f910bdc046004000411c080020f2
:04211800900900200a
:020000040000fa
:10211c00f0b50f0087b0039015001049072204a8f2
:10212c001c0000f024fdbb687e6802933f68002d04
:10213c0000d104ad002c03d1280000f039fd0400bf
:10214c00002e02dbb44200d934000097029b22001f
:10215c0029000398fff793fd07b0f0bd382c000061
:020000040000fa
:10216c0070b5040016001d00022a1cd043689b06a3
:10217c0019d4002908d1002d01d18025ed002800ab
:10218c000830fef7bbff010020236268a1601343f7
:10219c0063602300e5603433ff22012e00d10a2254
:1021ac001a70024be362002070bdc0460f1c000089
:020000040000fa
:1021bc0070b5c668856804000a00ae4211d10120d2
:1021cc00002100f081fcc043c943431c03d00b4bde
:1021dc001a68104018604b1c03d0084a5368194009
:1021ec005160012319006268b56011439a43ee6097
:1021fc006160a41822681343236070bd1004002092
:020000040000fa
:10220c00f0b583b00400240a05002d0c07000190e2
:10221c00c6b2e4b2edb23f0e23002a00210030001a
:10222c00fff79bfb3b002a0021002800fff795fbe2
:10223c003b00320039002800fff78ffb23003200ef
:0c224c0039003000fff789fb03b0f0bd43
:020000040000fa
:1022580010b5064c2378002b07d1054b002b02d074
:10226800044800e000bf0123237010bd940900203a
:102278000000000000000000044b10b5002b03d044
:102288000349044800e000bf10bdc046000000003c
:0822980098090020000000007d
:020000040000fa
:1022a00010b50a4b98470a4b9847fff7a7fb094b15
:1022b000ff229343084a9360084b9847084b98477e
:1022c000084b9847fff7f4f8fee7c0467b2700006d
:1022d0007b2700000000000000ed00e0611f00000f
:0822e0007b2700007b270000b2
:020000040000fa
:1022e80030b5002818d0002918d00d4a0124072538
:1022f80004e003881383023000290bd00139937b53
:102308002342fcd053682b40012bf2d0037813836f
:102318000130f1e7012030bd0020fce70120fae799
:04232800001400425b
:020000040000fa
:10232c000e4b01221a801a00d37b5bb2002bfbdb15
:10233c000a4bec22d2001a80ea2252001a839a3af3
:10234c00ff3a9a73064a0021116001225a731a004f
:10235c00d37b5bb2002bfbdb7047c046002c0042ea
:04236c00e009002064
:020000040000fa
:1023700010b543b2002b0edb1f290cd8002a0bd15d
:10238000cb08db0118180a4a07231940063b8b408b
:10239000115c0b43135410bdcb08db011818044c1f
:1023a0000723194001228a40235c93432354f2e718
:0423b00018060020eb
:020000040000fa
:1023b400bff35f8f62b60c4bc22080001a580b49e2
:1023c4001140c02212020a431a50802292001a605d
:1023d400c42189005a58ff2082433f3802435a508f
:1023e400802252021a60704700e100e0ff00ffff04
:020000040000fa
:1023f400030010b51a78202a0dd0110009390429d8
:1024040009d900212b2a02d02d2a01d1013101330f
:1024140000200a2404e00133ece760430133801a0e
:102424001a78303a092af8d9002900d1404210bd5f
:020000040000fa
:102434000c4a036810b5546a0b4a591e121b914288
:102444000bd9002b05d00c220120084b40421a6006
:1024540010bd102202600020fae70f2217339343c5
:102464000360f8e708090020efffff7f2c0a002033
:020000040000fa
:10247400002b11d1002a0fd1002900d1002802d04d
:102484000021c943081c07b4024802a14018029065
:1024940003bdc046b507000003b4684601b5029801
:1024a400fff776f8019b9e4602b00cbc7047c0460d
:020000040000fa
:1024b4000b4b0c4a1a600c4a5a81c02292025a6091
:1024c4001a00138a1bb2002bfbdb054a1368022196
:1024d4000b431360138a1bb2002bfbdb7047c0460f
:0c24e40000140042040131402bf6ffff01
:020000040000fa
:1024f000636f756e74657231306d733a2025640dab
:102500000a000000636f756e7465723130306d7350
:102510003a2025640d0a0000636f756e7465723190
:0c252000733a2025640d0a0d0a00c04625
:020000040000fa
:10252c000309013b1800202b07d90a4a934205d80e
:10253c000948db08c318043b18787047e0223f2099
:10254c0052019342f9d80448db09c318043b1878ac
:0c255c001030f2e7ff010000bc1f00007f
:020000040000fa
:102568001c2101231b04984201d3000c10391b0abb
:10257800984201d3000a08391b09984201d300097f
:10258800043902a2105c40187047c04604030202d6
:0c25980001010101000000000000000033
:020000040000fa
:1025a40070b50c1e0ed0002a0cd01500022801d9db
:1025b400280070bd084b002b06d01100200000e05d
:1025c40000bff5e70025f3e78e182078013400f00a
:0c25d4001afab442f9d1ebe70000000055
:020000040000fa
:1025e00070b50c4d20242d5d0024002d01d020005d
:1025f00070bd084ca080e360049b6361a160226110
:102600000023a37023702122a3540021fff77afc3a
:082610000124ece74809002059
:020000040000fa
:10261800436870b50400d80510d52569954200d9de
:1026280015002a00606900f0a4fa226963695b1941
:10263800551b0022636125611a7070bddb06fcd44e
:08264800200000f071faf8e730
:020000040000fa
:102650000b4a137801210b43137053785bb2002ba4
:10266000fbdb074b00229a61da611a7802210a43e8
:102670001a701a0053785bb2002bfbdb7047c04620
:0426800000180040fe
:020000040000fa
:1026840010b50b4c2023e45c0023002c01d018006f
:1026940010bd074b9880dc605c6199601a619c7086
:1026a4001c7021229c540021fff72afc0123eee731
:0426b40048090020b1
:020000040000fa
:1026b800f0b5050000200a4c4200165d002e02d13c
:1026c800a2185078f0bd296801300f78c0b2b7421f
:1026d80003d1a2180131507829600a28ecd9f1e712
:0426e800d4290000f1
:020000040000fa
:1026ec00f8b5050001262c68344201d000200ee01c
:1026fc002000fff715ff070000f038f92868a0420a
:10270c00f1d1b043281a3900fff752fd0120f8bd72
:020000040000fa
:10271c00084a1368002b09d007491818884202d8b8
:10272c0010601800704701235b42fae7034b1360fb
:10273c00f2e7c046300a0020400c0020400a00207e
:020000040000fa
:10274c00f8b5050001276c683c4201d000200de073
:10275c002000fff7e5fe060000f008f96b68a342c5
:0e276c00f1d128003100fff723fd0120f8bd58
:020000040000fa
:02277a007047a6
:020000040000fa
:10277c00f60d0000260e0000600e0000980e000002
:10278c00c20e0000000f0000200f0000f20d000030
:0c279c00f20d0000440f00004e0f000082
:020000040000fa
:1027a80070b500290fd0002a0dd01500002808d1d7
:1027b8000c008e18012000f017f920700134b44283
:0c27c800f8d1280070bd0025fbe7c046da
:020000040000fa
:1027d400002380290fdb812901dd83290bd1072107
:1027e400136807338b431900083111601a685b685a
:0a27f40002604360012318007047e3
:020000040000fa
:1027fe00020000234832d356591e0b431370042394
:10280e004268134005d01023134343600120404219
:0a281e0070470364c3631800fae773
:020000040000fa
:10282800084b1b8a5b070bd0064b07221a829b7b3f
:102838005b0705d5034b04211a8b9a7b0a42fbd10f
:082848007047c0460014004275
:020000040000fa
:1028500070b5084c80239b00e51802e00134a542c6
:1028600006d021784420fef7b9fa0028f9d0f5e720
:0828700070bdc04618060020ef
:020000040000fa
:10287800f7b5002507000c002e000192019b9e422f
:1028880001db2800febd626821683800fff788ff79
:0828980001362d180834f1e7a8
:020000040000fa
:1028a000f7b5002507000c002e000192019b9e4207
:1028b00001db2800febd626821683800fff772fe68
:0828c00001362d180834f1e780
:020000040000fa
:1028c800012370b544689c43651a102d0ad9421833
:1028d80019432b43116053600832035141601000c3
:0628e800fef72eff70bd9b
:020000040000fa
:0228ee00704731
:020000040000fa
:1028f00010b5064b987bc0b23b229a73044b1b6801
:10290000002b02d0024a5168984710bd002c0042ab
:04291000e0090020ba
:020000040000fa
:10291400d501a81fd30040ad8ed8052002a1c8da86
:1029240010913f3f3f3f81bf82bfd9d2d808a4a6b0
:04293400af00c046ea
:020000040000fa
:1029380010b5040000f026f9002804d1002c01d0bd
:102948000123237010bd002cfcd002232370f9e76b
:020000040000fa
:102958000fb407b5054b04aa1b6802ca1868019290
:1029680000f09cf803b008bc04b018479009002098
:020000040000fa
:10297800064b0130c000c258002a05d10200083aaf
:10298800d21819184a60c2507047c0461004002077
:020000040000fa
:1029980070b5050000f00ef9002807dd2c002d1891
:0e29a8002078fef765fe0134ac42f9d170bd17
:020000040000fa
:0229b600704768
:020000040000fa
:1029b800880f00009c0f0000c60f0000f60f0000f3
:0c29c800261000005610000086100000d1
:020000040000fa
:1029d40068076c094c836a9074a07ac00080688888
:0c29e40000846c820081286e696c290060
:020000040000fa
:1029f00000b583b000230193012101a8fff70cfb70
:0a2a00000028f9d0019803b000bdd2
:020000040000fa
:102a0a0000b583b06b46d87101216b46d81dfff71c
:0a2a1a0066fc0028f8d003b000bdf0
:020000040000fa
:102a240070b505000c00222000f08af8280000f0a0
:0a2a340087f8200000f084f870bd60
:020000040000fa
:102a3e0070b505000c00212000f07df8280000f094
:0a2a4e007af8200000f077f870bd60
:020000040000fa
:102a580010b50400fff7cffe002805d1a368e2688f
:0a2a6800a36163619b18a36210bd17
:020000040000fa
:022a72007047ab
:020000040000fa
:102a7400044a138802210b431380d37b5bb2002bdf
:082a8400fbdb7047002c00424f
:020000040000fa
:102a8c00044b80229200991800221a7001338b4259
:082a9c00fbd170471806002071
:020000040000fa
:102aa40013b50400019201aafdf7a8fd6368db06d3
:082ab40001d50120404216bdce
:020000040000fa
:102abc00d0400b1cd1409c46203ad3401843524284
:102acc0063469340184370479140031c90409c46ca
:102adc00203a9340194352426346d34019437047fe
:102aec0010b5002903d1fff739fd203002e0081c96
:082afc00fff734fd10bdc046d8
:020000040000fa
:102b0400006810b5002801da002010bdfff704feac
:062b1400431cfad1f8e7b2
:020000040000fa
:102b1c0010b500f083f8024b1860586010bdc04629
:042b2c00f00900208c
:020000040000fa
:102b3000c36a10b5002b01d0984710bd0068fff79d
:042b400031fdfae782
:020000040000fa
:102b440010b5040021004320fef746f90028f9d00f
:022b540010bdb2
:020000040000fa
:102b560010b504002020fff7f2ff2000fff7efff7b
:022b660010bda0
:020000040000fa
:102b68004a424a41802310b55200db00fff7fafac7
:022b780010bd8e
:020000040000fa
:102b7a00002310b59a4200d110bdcc5cc454013375
:022b8a00f8e76a
:020000040000fa
:102b8c00024a2123d05cc0b27047c04648090020dd
:020000040000fa
:102b9c00024a1368013313607047c0460c0a0020c8
:020000040000fa
:102bac0003001218934200d1704719700133f9e7f2
:020000040000fa
:102bbc0003001a78002a01d1181a70470133f8e77c
:020000040000fa
:102bcc0010b5fff7a5fffff7f0fefff7eefe10bd07
:020000040000fa
:0e2bdc000300413b192b01d8202318437047fa
:020000040000fa
:0e2bea000300613b192b01d85f231840704790
:020000040000fa
:0c2bf800014b82225a60704700400041ef
:020000040000fa
:0c2c0400014b586299627047480900209b
:020000040000fa
:0c2c1000014b186059607047e00900207b
:020000040000fa
:0a2c1c0010b50068fff7c0fc10bd02
:020000040000fa
:082c28000048704790080020ed
:020000040000fa
:082c3000012040427047c0463c
:020000040000fa
:072c3800286e756c6c290089
:020000040000fa
:062c400000200021704796
:020000040000fa
:042c460000207047b3
:020000040000fa
:042c4c007047c046c7
:020000040000fa
:042c500000207047a9
:020000040000fa
:0200000400807a
:0440000077c700d8a6
:020000040000fa
:0200000400807a
:044004005c01ffff5d
:00000001FF
