:020000040000fa
:10000000f07f00204d3100005b2b00002736000000
:1000100000000000000000000000000000000000e0
:10002000000000000000000000000000cb260000df
:100030000000000000000000cb260000cb260000de
:10004000cb260000cb260000cb260000cb260000ec
:10005000cb260000cb260000cb260000cb260000dc
:10006000cb260000f51b0000cb260000cb260000ad
:10007000cb260000cb260000cb260000cb260000bc
:100080009d370000cb260000cb260000cb260000c9
:10009000cb260000cb260000cb260000cb2600009c
:0400a000cb2600006b
:020000040000fa
:1000a400f8b5c046f8bc08bc9e4670472d31000028
:1000b400f8b5c046f8bc08bc9e4670470531000040
:020000040000fa
:0800c4002c22000001000000e5
:020000040000fa
:1000cc0070b582b0162820d88000db4b1b589f4699
:1000dc00da4c25002135207803f078fc0134a54258
:1000ec00f9d10321002003f0e1fb8321042003f06c
:1000fc00eafb002003f073fcd14b00221a80013282
:10010c005a8003f007fc03f0f3fa02b070bd032130
:10011c00002003f0cbfb8321042003f0d4fb002050
:10012c0003f05dfcc64b00221a8001325a8003f0aa
:10013c00f1fb03f0ddfae8e70321002003f0b6fb46
:10014c008321042003f0bffb002003f048fc03f0e4
:10015c00e1fbbb4b00221a800a325a800021b948bd
:10016c0002f0aefa03f0c4facfe70321002003f04b
:10017c009dfb8321042003f0a6fb002003f02ffc41
:10018c00af4c00252580658003f0c4fb0021ae48f0
:10019c0002f096fa2580092363800021ab4802f017
:1001ac008ffa03f0a5fab0e70321002003f07efbe1
:1001bc008321042003f087fb002003f010fc03f0e4
:1001cc00a9fb9f4c0025258065800021a04802f0ea
:1001dc0077fa202323800126668000219d4802f0b7
:1001ec006ffa51232380668000219b4802f068fa45
:1001fc0025800c3666800021984802f061fa6a234b
:10020c00238066800021964802f05afa0f2323803f
:10021c000a3666800121934802f052fa5b23238050
:10022c0066800021904802f04bfa00218f4b186831
:10023c0002f06afe8e48c378827841780078009587
:10024c0002f088fa8b48c378827841780078009560
:10025c0002f080fa8848c37882784178007800955b
:10026c0002f078fa8548c378827841780078009556
:10027c0002f070fa8248c378827841780078009551
:10028c0002f068fa03f034fa3fe70321002003f090
:10029c000dfb8321042003f016fb002003f09ffbd1
:1002ac0003f038fb664c00252580658000216848ea
:1002bc0002f006fa2023238001266680002165487f
:1002cc0002f0fef95123238066800021624802f07f
:1002dc00f7f925800c3666800021604802f0f0f9b1
:1002ec006a232380668000215d4802f0e9f90f2320
:1002fc0023800a36668000215a4802f0e1f95b231c
:10030c00238066800121584802f0daf900215d4b08
:10031c00186802f0f9fd5648c37882784178007865
:10032c00009502f017fa5348c37882784178007828
:10033c00009502f00ffa5048c37882784178007823
:10034c00009502f007fa03f0d3f9dee60321002052
:10035c0003f0acfa8321042003f0b5fa002003f07b
:10036c003efb03f0d7fa364c01252580022363802f
:10037c000021454802f0a4f925800c23638000215c
:10038c00424802f09df925801623638000214048e5
:10039c0002f096f903f0acf9b7e60321002003f064
:1003ac0085fa8321042003f08efa002003f017fb5a
:1003bc0003f0b0fa224c0125258002236380002132
:1003cc00344802f07df925800c23638000213248eb
:1003dc0002f076f925801623638000212f4802f065
:1003ec006ff903f085f990e60321002003f05efa23
:1003fc008321042003f067fa002003f0f0fa03f0e5
:10040c0089fa0f4c012525800223638000212148a5
:10041c0002f056f925800c2363800021204802f05d
:10042c004ff925801623638000211c4802f048f9ff
:10043c0003f05ef969e6c046a82d0000e437000021
:10044c00a80c0020640c00205c0a0020340c002056
:10045c00d00c0020980c00204c0c0020480b0020e5
:10046c00b00c0020580c0020b80c0020f00c002020
:10047c00ec0c0020d80c0020e00c0020e80c002034
:10048c00f40c0020e40c0020780b0020e80a00207b
:10049c00080a0020400a0020180b0020cc0a00207b
:1004ac00940900200321002003f000fa832104208a
:1004bc0003f009fa002003f092fa03f02bfaf54c42
:1004cc0001252580022363800021f34802f0f8f80f
:1004dc0025800c2363800021f04802f0f1f8258080
:1004ec00162363800021ee4802f0eaf803f000f9cd
:1004fc000be60321002003f0d9f98321042003f03b
:10050c00e2f9002003f06bfa03f004fae14c012548
:10051c002580022363800021df4802f0d1f825807a
:10052c000c2363800021df4802f0caf825801623d3
:10053c0063800021da4802f0c3f803f0d9f8e4e54f
:10054c000321002003f0b2f98321042003f0bbf94e
:10055c00002003f044fa03f0ddf9ce4c0125258090
:10056c00022363800021cc4802f0aaf825800c23da
:10057c0063800021cc4802f0a3f825801623638009
:10058c000021c74802f09cf803f0b2f8bde5032146
:10059c00002003f08bf98321042003f094f9002050
:1005ac0003f01dfa03f0b6f9ba4c0125258002239d
:1005bc0063800021b84802f083f825800c23638007
:1005cc000021ba4802f07cf82580162363800021b4
:1005dc00b34802f075f803f08bf896e50321002080
:1005ec0003f064f98321042003f06df9002003f07b
:1005fc00f6f903f08ff9a74c0125258002236380bf
:10060c000021a54802f05cf825800c2363800021b2
:10061c00a74802f055f82580162363800021a048d6
:10062c0002f04ef803f064f86fe50321002003f0ac
:10063c003df98321042003f046f9002003f0cff9a3
:10064c0003f068f9934c0125258002236380002177
:10065c00984802f035f825801623638000219648cf
:10066c0002f02ef803f044f84fe50321002003f0cc
:10067c001df98321042003f026f9002003f0aff9c3
:10068c0003f048f9834c0125258002236380002167
:10069c008a4802f015f825801623638000218648cd
:1006ac0002f00ef803f024f82fe50321002003f0ec
:1006bc00fdf88321042003f006f9002003f08ff9e4
:1006cc0003f028f9734c0125258002236380002157
:1006dc007b4801f0f5ff25801623638000217648c6
:1006ec0001f0eeff03f004f80fe50321002003f006
:1006fc00ddf88321042003f0e6f8002003f06ff905
:10070c0003f008f9634c0125258002236380002146
:10071c006c4801f0d5ff25801535658001216a48ac
:10072c0001f0ceff4623238065800021674801f04d
:10073c00c7ff0021664b186802f0e6fb02f0d8fff9
:10074c00e3e40321002003f0b1f88321042003f03b
:10075c00baf8002003f043f903f0dcf84d4c012506
:10076c002580022363800021564801f0a9ff2580d3
:10077c00153565800021544801f0a2ff46232380e3
:10078c0065800121514801f09bff0021514b1868f5
:10079c0002f0bafb02f0acffb7e40321002003f037
:1007ac0085f88321042003f08ef8002003f017f95c
:1007bc0003f0b0f8374c012525800223638000211b
:1007cc00454801f07dff25800c23638000214348c0
:1007dc0001f076ff2580162363800021404801f04c
:1007ec006fff02f085ff90e40321002003f05ef818
:1007fc008321042003f067f8002003f0f0f803f0e5
:10080c0089f8244c0125258002236380002135487a
:10081c0001f056ff25800c2363800021324801f043
:10082c004fff2580162363800021304801f048ffdc
:10083c0002f05eff69e40321002003f037f8832106
:10084c00042003f040f8002003f0c9f803f062f82c
:10085c00104c01252580022363800021214801f0e2
:10086c002fff25800c2363800021214801f028fff5
:10087c002580162363800021094801f021ff02f036
:10088c0037ff42e4034b01221a8001325a8002f0f6
:10089c002fff3ae4a80c0020400a0020940a002004
:1008ac00cc0a0020cc0b0020a40b0020b80b00209d
:1008bc00600b0020040c0020d0090020900b0020bd
:1008cc00240a0020780a0020140c0020240c00209c
:1008dc00dc0c0020d40c0020b00a0020e00b00201f
:1008ec00ec090020f40b0020300b0020400c002001
:0408fc00000b0020cd
:020000040000fa
:10090000b40900201c00000000000000480900207d
:100910002c00000000000000700c00200800000007
:1009200000000000c00c00200400000000000000d7
:10093000c40c00200400000000000000c80c0020cf
:100940000400000000000000180600200002000063
:1009500000000000a80c00200600000000000000bd
:100960003f0a002001000000000000000c0d0020e4
:1009700002000000000000005b0a002001000000ef
:1009800000000000cc0c002004000000000000006b
:100990005c0a00201a0000000100000041424344ac
:1009a00045464748494a4b4c4d4e4f50515253547f
:1009b0005556575859000000780c002008000000d8
:1009c0000100000002070000b0100000800c0020b1
:1009d000080000000100000004070000b010000043
:1009e000880c00200800000001000000050700003e
:1009f000b0100000900c0020080000000100000072
:100a000006070000b0100000d00c00200400000019
:100a10000100000061626300780a00201a000000f3
:100a20000100000043414e43454c205448452043bb
:100a3000555252454e54204359434c453f00000007
:100a4000240c00200d0000000100000043414e4333
:100a5000454c204359434c4500000000d40c002075
:100a6000040000000100000045157e1df40b00206d
:100a700010000000010000004359434c4520434151
:100a80004e43454c4c454400940a00201900000098
:100a90000100000043415345204d495353494e47ff
:100aa0003a494e53455254204341534500000000fb
:100ab0004c0c00200b000000010000004341544892
:100ac0002d37307c39390000a40b002013000000c2
:100ad00001000000434154484554455220455848c0
:100ae0004155535445440000d80c00200400000038
:100af0000100000074007408cc0b002011000000fd
:100b0000010000004341544845544552204d49538b
:100b100053494e4700000000040c00201000000064
:100b2000010000005354415455533a434c45414e43
:100b3000494e4700b00a00201900000001000000e3
:100b40005354415455533a434c45414e494e472026
:100b5000434f4d504c45544500000000140c0020fc
:100b60000f00000001000000434f4e54494e554510
:100b7000204359434c450000dc0c002004000000d9
:100b8000010000000015411de00b002011000000d5
:100b90000100000030397c30317c323032322d306f
:100ba000393a333000000000900b002014000000a0
:100bb000010000005354415455533a444953494e9f
:100bc00046454354494f4e00240a00201b000000b4
:100bd000010000005354415455533a445259494e70
:100be000472020202020202020202020202000001e
:100bf000000b00201700000001000000454d50547c
:100c00005920414e4420524546494c4c20574154ae
:100c100045520000d00900201c0000000100000027
:100c2000484f4c442053454c45435420544f204397
:100c3000414e43454c204359434c4500e00c0020b5
:100c40000400000001000000000a7f0ab80b002029
:100c500012000000010000004c45414b2043484574
:100c6000434b204641494c4544000000b80c00204d
:100c700005000000010000004d454e550000000039
:100c8000e40c002004000000010000005a166f1e52
:100c9000e80c00200400000001000000470c47148d
:100ca000340c00200c000000010000005a303132ea
:100cb0003334353637383900400c00200c00000042
:100cc00001000000504c4541534520574149540014
:100cd000980c00200800000001000000504f442d37
:100ce000347c3500940900201d0000000100000044
:100cf000504f44204558485541535445443a494e75
:100d000053455254204e455720504f440000000098
:100d1000ec0c002004000000010000003a003a0042
:100d2000180b00201700000001000000504f442065
:100d30004d495353494e473a494e5345525420501a
:100d40004f440000ec0900201c00000001000000de
:100d5000505245535320454a45435420544f205543
:100d6000534520434154484554455200cc0a002085
:100d70001900000001000000505245535320534514
:100d80004c45435420544f20434f4e54494e5545f3
:100d900000000000300b00201700000001000000e0
:100da000434f4d504c4554494e47205055524745ae
:100db000204359434c450000640c0020090000000a
:100dc00001000000504f57455220555000000000d0
:100dd000480b00201700000001000000524550524f
:100de0004f4345535345442d30387c32397c3230a3
:100df00032320000600b00201700000001000000ec
:100e00005245534552564f495220434845434b2083
:100e10004641494c45440000580c00200a0000009f
:100e20000100000052554e204359434c450000003c
:100e3000f00c002004000000010000000e16381e17
:100e4000780b0020150000000100000053544154ad
:100e500055533a53595354454d5320434845434bfa
:100e600000000000e80a0020180000000100000057
:100e7000434c45414e494e472041424f5554205422
:100e80004f20535441525400080a00201c00000017
:100e900001000000484f4c442053454c454354202a
:100ea000544f2043414e43454c204359434c450049
:100eb000400a00201b000000010000005354415470
:100ec00055533a53595354454d20434845434b20bd
:100ed0004641494c45440000b00c0020060000008b
:100ee0000100000030393a3330000000170b0020b9
:100ef000010000000100000002000000080d0020b9
:100f0000020000000100000040000000f40c00207e
:100f10000400000001000000530c5314f80c0020e2
:100f20000400000000000000f8080020500000004d
:100f300000000000180800207800000001000000f8
:100f400028080020200800202808002000000000b9
:100f50000000000025000000080000200004000040
:100f60000000000000000000000000000000000081
:100f70000000000000000000000000000000000071
:100f8000c53a000000000000000000000000000062
:100f9000000000002d2c00000000000000000000f8
:100fa0000000000000000000000000000000000041
:100fb0000000000000000000000000200804000005
:100fc0000000000074090020200000000100000063
:100fd000010000000300000000000000000000000d
:100fe000000000000000000000000000a00c002035
:100ff000a00c00200800000000000000fc0c0020f5
:101000000400000000000000000d002004000000ab
:101010000000000008040020100200000000000092
:10102000900800206800000001000000010000009e
:1010300003000000000000000000000000000000ad
:101040000000000000000000912c000000000000e3
:101050000000000000000000a13a0000ab3a0000d0
:101060000000000000000000000000000000000080
:101070000000000000000000000000000000000070
:101080000000000000000000000000000000000060
:1010900000000000040d002004000000000000001b
:1010a0000000000000000000222222222222222230
:020000040000fa
:1010b0000000000000000000000000000000002010
:1010c00000200020002000200000002000500050e0
:1010d000005000000000000000000050005000f828
:1010e000005000f8005000500020007800a0007070
:1010f000002800f0002000c000c8001000200040c0
:1011000000980018004000a000a0004000a8009037
:1011100000680030003000200040000000000000a7
:10112000001000200040004000400020001000405f
:10113000002000100010001000200040006000f0af
:1011400000f000f000f000f000f0000000200020af
:1011500000f8002000200000000000000000000057
:10116000003000300020000000000000007000008f
:10117000000000000000000000000000000000303f
:101180000030000000080010002000400080000037
:1011900000600090009000b000d00090006000203f
:1011a0000060002000200020002000f0006000907f
:1011b000001000600080008000f000f000100020af
:1011c00000600010009000600020006000a000a0ff
:1011d00000f0002000200070008000e000100010ef
:1011e0000090006000600090008000e0009000909f
:1011f000006000f0001000100020002000400040bf
:10120000006000900090006000900090006000601e
:1012100000900090007000100010006000000000be
:10122000008000000080000000000000000000209e
:1012300000000020002000400008001000200040b6
:101240000020001000080000000000f8000000f876
:1012500000000000004000200010000800100020e6
:1012600000400070008800080030002000000020ce
:101270000070008800a800b800b00080007800600e
:1012800000900090009000f00090009000e000902e
:10129000009000e00090009000e00060009000806e
:1012a000008000800090006000e0009000900090be
:1012b0000090009000e000f00080008000e00080de
:1012c000008000f000f00080008000e000800080de
:1012d000008000700080008000b0009000900070de
:1012e00000900090009000f000900090009000e0ce
:1012f0000040004000400040004000e000100010ae
:10130000001000100010009000600090009000a0fd
:1013100000c000a00090009000800080008000804d
:101320000080008000f000f000a800a800a800a83d
:1013300000a800a800e000900090009000900090ad
:10134000009000600090009000900090009000607d
:1013500000e00090009000e00080008000800060cd
:10136000009000900090009000b0007000e00090ad
:10137000009000e0009000900090007000800080dd
:1013800000600010001000e000e00040004000405d
:1013900000400040004000900090009000900090bd
:1013a000009000f00090009000900090009000905d
:1013b000006000a800a800a800a800a800a800706d
:1013c00000900090009000600090009000900090cd
:1013d0000090009000700010001000e000f000107d
:1013e000001000600080008000f0007800400040a5
:1013f00000400040004000780000008000400020d5
:10140000001000080000007800080008000800082c
:101410000008007800200050008800000000000054
:10142000000000000000000000000000000000f8c4
:10143000006000600020001000000000000000f8c4
:1014400000f800f800f800f800f800f800f80008cc
:10145000000800080008000800f8000000000080f4
:10146000008000800000000000080008006800986c
:10147000008800980068000000000070008800f8f4
:101480000080007000100028002000700020002064
:10149000002000000000007000980098006800081c
:1014a0000080008000b000c800880088008800200c
:1014b00000000060002000200020007000100000ec
:1014c000001000100010009000600080008000906c
:1014d00000a000c000a000900060002000200020bc
:1014e0000020002000700000000000d000a800a82c
:1014f00000a800a80000000000b000c80088008814
:1015000000880000000000700088008800880070db
:101510000000000000b000c800c800b0008000005b
:1015200000000068009800980068000800000000b3
:1015300000b000c80080008000800000000000783b
:1015400000800070000800f00020002000f800205b
:10155000002000280010000000000088008800889b
:101560000098006800000000008800880088005093
:101570000020000000000088008800a800a800509b
:10158000000000000088005000200050008800008b
:101590000000008800880078000800880000000033
:1015a00000f800100020004000f80010002000208b
:1015b000004000200020001000800080008000809b
:1015c00000800080008000800020002000100020ab
:1015d00000200040004000a80010000000000000b3
:0415e0000000c04601
:020000040000fa
:1015e4000023f0b506001500afb0059101930599ed
:1015f4000b78002b00d10fe101235b420a930eab61
:1016040000240c93802309940b940d930b5d002b01
:1016140001d0252b2ad1002c06d02200300001f065
:101624004fff059b1b190593059b1a78252a00d0ab
:10163400e7e0013302930593022310219c46082717
:10164400059803782b2b1bd025d8202b1bd0232bbc
:101654001dd02a2b2ad001f021fe0b90059b1a786d
:10166400303a092a33d801330593f7e70134cde73b
:101674000122099b80180393134309930590dfe724
:101684000423099a0ee0099b03933b430be0099b57
:1016940003930b4307e02d2bead0302bd9d16246bc
:1016a400099b0393134309930130e7e72b68013047
:1016b4001a1d1b6805902a600b93002b07da099a00
:1016c4005b420392012203990b934a400992099bbe
:1016d400da0702d5022293430993059b1a782e2a2e
:1016e4000ed10022581c0a9205905a782a2a28d131
:1016f400023305932b681a1d1b682a6003930a930f
:1017040005a801f02dff059b0700187802f0a6f943
:10171400692800d183e035dc632800d1d6e01bdce6
:10172400252800d1dfe0612859d0252306aa1370ab
:10173400029b0593002309930b93013b0a93023305
:10174400b2e001f0abfd0a90059b1a78303a092a01
:10175400d6d801330593f7e7642860d06728e4dc22
:101764002a00390006a801f089ff002800d1a9e069
:10177400059b09a95a1c05921b7806aa300002f0a1
:10178400a2f93de0702800d17de016dc6e2800d17e
:1017940091e06f28c9d12b000022390006a800f07f
:1017a40042ff002800d18de0059b06aa013309a958
:1017b4003000059301f098f922e0752840d078288c
:1017c4004fd07328b1d1802f00d07be0059b2a68cd
:1017d40001330593131d2b601268002364e02a0073
:1017e400390006a801f04aff002800d16ae0059bf1
:1017f40009a95a1c05921b7806aa300002f063f965
:101804002418019b1c19a34200dc74e04f223b4bbb
:101814001a6001235b42019301982fb0f0bd2b00a5
:101824000122390006a800f0fefe00284ad0059bdc
:1018340006aa013309a93000059300f09bfedfe7f7
:101844002b000022390006a800f0edfe002839d054
:10185400059b06aa013309a93000059301f083fb17
:10186400cee72b000022390006a800f0dcfe002899
:1018740028d0059b5a1c05921b7806aa09a930009a
:1018840000f01cfcbce72b000022f02106a800f0ad
:10189400cafe002816d0059b079a01330593069bc0
:1018a400134306d1164a163209a9300001f0b0fbe1
:1018b400a6e77823e1e7019b39001a1906a82b0053
:1018c40001f07ef9059b013305939ae7802ff9d146
:1018d400059b013305932b681a1d1b682a6006aa11
:1018e40013700123e0e7802fecd1059b06aa013396
:1018f40005931070f5e7019479e6c046000d0020c9
:04190400683800003f
:020000040000fa
:10190800f0b5de464f464646c0b582b0002001f02d
:1019180053fb0021ad4802f0b9f801f0f1ff0023b4
:10192800ab4a1360ab4a1360ab4a1360ab4b8022df
:10193800d2019a61d2089a610020fef7c3fb002306
:101948009946984600259b460e3301930027a44ede
:10195800a24c03e0a04b1b68092b5fdc9c4b196869
:10196800300001f05dff9b4b19689e4801f058ff5d
:10197800994b19683000283001f052ff236adb02c6
:1019880006d59c2380225201e2506b425d41edb2a4
:10199800236a5b0702d58023db01e361236a1b010d
:1019a80005d58023db01e3616b425d41edb2a023e5
:1019b800e3581b0502d500239b460327a023e358c1
:1019c8005b0008d59c2380225201e25043465a42cc
:1019d8005341dbb29846236a1b0708d59c23802213
:1019e8005201e2504b465a425341dbb29946784b7a
:1019f8001b68002b06dd764b00221a60754a1368b7
:101a080001331360734b1b68092ba3dd714b002254
:101a18001a60714a1368013313609be7162f00d9c7
:101a2800bfe0bb00704ad3589f465b46042b00dcde
:101a3800b7e00427b5e05b46022b00dcb1e00427e1
:101a4800afe04346012b09d0a846012d00d0a8e0fd
:101a58000023984600259b460627a2e00527f3e7c2
:101a68004346012b08d0a846012d00d099e0002359
:101a7800984600259b4694e00427f4e75b46042b30
:101a880000dc8ee000239b460e278ae0012d00d063
:101a980087e00025042784e0012d00d081e000259f
:101aa80004277ee0012d7cd10025042779e0012d53
:101ab80077d10025042774e0012d72d10025042771
:101ac8006fe0012d6dd1002504276ae0012d68d152
:101ad8000025042765e0012d07d000255b46042b6f
:101ae8005fdd00239b460f275be0019700239946a3
:101af80098461127f1e7012d07d000255b46042bf6
:101b08004fdd00239b4610274be0019700239946a1
:101b180098461127f1e7012d07d000255b46042bd5
:101b28003fdd00239b4613273be00197002399469e
:101b380098461127f1e7012d08d04346012b3ad0ea
:101b48004b46012b06d0c8464d462ae0019f00238c
:101b58009b46f2e7c1464546122722e0012d07d0f1
:101b68004346012b2dd04b46012b05d0c84618e023
:101b780000239b461427f3e7c146112711e05b4673
:101b8800042b0edd00239b4615270ae004225b4642
:101b9800db0fd117584682424b415b425a461a40e6
:101ba80093463800fef78efa0b4b00221a60012389
:101bb8009c46e344d2e6002399469846002512271e
:101bc800efe70023994698461127eae7c137000056
:101bd800c40c0020c00c0020c80c002000440041a8
:0c1be8009c330000b03300004c2d0000c6
:020000040000fa
:101bf40010b56b4b5b7b002b17d0694b1b8a9b0783
:101c040014d5684b2022ff2199540132fd3999548f
:101c1400644a2023d35c5bb2013300d18fe0614a74
:101c24002023d35c062b00d1a2e010bd5c4b1b8aa1
:101c3400db0707d55b4b2022ff2199540132fd3984
:101c44009954e5e7564b1b8a5b0707d5554b202271
:101c5400ff2199540132fe399954d9e7514a20237e
:101c6400d35c5bb2032b47d0042b0fd0022bcfd114
:101c74001369002b04d09088002101f037f8c7e7de
:101c8400484b9888012101f031f8c1e7454a93692e
:101c9400126993420cd0434a9168581c9061ca5c03
:101ca4003f4b1a761a00138a1bb2002bfbdbafe7fb
:101cb4003c4b5b69002b10d03a4b9b885b000122a4
:101cc4001343dbb2364a1375138a1bb2002bfbdbba
:101cd400344a20230321d1549ae7314a5168c0235e
:101ce4009b020b435360138a1bb2002bfbdb2d4a70
:101cf40020230621d1548be72a4a5369013bd26938
:101d04009a420dd0264a138a1bb2002bfbdb254bcb
:101d1400d968da69501cd861214b1b7e8b5477e754
:101d24001f4a5168e023db020b435360138a1bb242
:101d3400002bfbdb1b4a20230621d154e2e720239e
:101d44000021d154164a5168c0239b020b435360af
:101d5400138a1bb2002bfbdb114b03229a73114b2a
:101d64005b6a002b00d160e70e4a906a98475ce7f3
:101d74001300002220215a5401315a54084b0332d3
:101d84009a7319002d320b8a1340102bfbd1054b8b
:101d94005b6a002b00d148e7024a906a984744e7ff
:081da400001000424809002074
:020000040000fa
:101dac0030b583b004005c4b1a780a2a03d8930030
:101dbc005a4ad3589f460020ace0594d2900594847
:101dcc0001f05cfe00232b70012257493d2001f0ed
:101ddc00a9fb442c04d0504b01221a70002099e02e
:101dec004d4b02221a70002094e0504b59704c4b12
:101dfc001b78012b09d04a4b1b780020022b00d0fa
:101e0c0088e0454b00221a7084e0454b00221a7082
:101e1c00023246493d2001f085fb3f4b03221a70ec
:101e2c00002077e0424b59703d4b1b78012b08d0ba
:101e3c003b4b1b780020022b6cd1374b00221a70c5
:101e4c0068e0374b00221a70023239493d2001f00c
:101e5c0069fb314b03221a7000205be0304b1b787e
:101e6c00012b08d02e4b1b780020022b52d12a4b71
:101e7c000a221a704ee02a4b00221a70264b0932a5
:101e8c001a70002046e0264b1b78012b12d0244bf5
:101e9c001b780020022b3dd1264b8022d2019a6167
:101eac001f4b00221a7001321f493d3001f03afbe2
:101ebc0000202fe01a4b00221a70174b03321a70b5
:101ecc00002027e0164b00221a70042300931a4bb3
:101edc00023216493d2001f0d3fa0f4b06221a703c
:101eec00002017e00e4b1b78012b08d00c4b1b78f5
:101efc000020022b0ed1084b0a221a700ae0064b66
:101f0c0007221a70002005e0034b00221a700120f2
:101f1c0000e0012003b030bd5b0a00202836000031
:101f2c00170b0020093800003f0a00200c0d002080
:0c1f3c00080d002000440041cc0c0020e7
:020000040000fa
:101f4800f0b587b0039003a801f0c6f9002802dabb
:101f5800002007b0f0bd039b1b095d1e202d09d989
:101f68004f49023b4f4a8b4224d8db08d318043b25
:101f78001d7801352a000120002101f0f1fc002420
:101f880043428c4100930194474f00983a687b681c
:101f98001040020001990b401a433fd1039b05a84a
:101fa8001033059301f0f4fc002809d10c223f4bb3
:101fb8001a60cee7db09d318043b1d781135d9e741
:101fc8003b490c68a04206d0059b0400103b0593d2
:101fd8000123103483600125059be2180a602b4316
:101fe800083a083c28c26360002cb1d0200001f0f8
:101ff800cffa00280bd023686168ab43e31a5a680c
:10200800aa4352185a606168a94362501c00200014
:10201800039901f0abfb200008309ae7214a2549d3
:102028003c32002831d1584203404b43db0ed65c8a
:102038002036300001f004fc731cdb00fc58083b20
:10204800fb189c42a0d0272e25dd0235ae4201dccc
:102058003f2e20d101226368039f9343dd1b280094
:10206800009301f0b5f9864215d1e268a168e31939
:10207800da60996093609a68d360012217431f6001
:102088005d60009be5506760c1e7434203404b43f6
:10209800db0ed65ccde73100200001f007f8b6e78b
:1020a800ff010000602e000010040020000d002039
:0820b8000804002029e66b0773
:020000040000fa
:1020c000f0b58fb00d934b680c9008938b680d00a2
:1020d0000993cb6816000393089b0f68002b60db05
:1020e00002239f4310233b400a9333680593736890
:1020f0000693099b04930a9b002b06d0059b069a26
:10210000134302d0099b023b049308233b400b93eb
:102110005a1e9341049ad31a04932b69039a5c1ea6
:1021200000231355089b0793012c10dd059b069a8d
:10213000134339d1079b002b36dc089a049b9b1a6a
:10214000079a9b18002b02dd02231f422cd10a9b09
:10215000002b0bd00cce134308d0039b0d9a1b19f8
:10216000013b1a703023039a023c13550b9b002b42
:1021700003d02023039a013c13552b6900975a1e64
:10218000039b121b19190c98099b00f039fc0c9b3e
:102190005b68db0503d56b68984200da18000fb066
:1021a000f0bd012308939de70f22059b013c1340de
:1021b00018005730092b01dc303318000d9b413bd0
:1021c000192b06d820230343613b192b01d801f0ba
:1021d0004efc039b1855079b013b0793069b1a0770
:1021e000059b1b091a43069b05921b0906939be757
:020000040000fa
:1021f000304a136a30490b4002210b431362082313
:10220000d1680b42fcd02b4b00229a612b4b2c4afd
:102210005a602c4a9a601a0053785bb2002bfbdba1
:10222000244a938c80218b4393841023d1680b42e2
:10223000fcd0254b1a68920e3f2a38d0234b1b68de
:102240009b059b0d920213431a4a93621b4b8222f9
:10225000d2015a80174a1023d1680b42fcd0154b8b
:102260001b4ada621a001023d1680b42fcd0114bd2
:1022700006229a841a004023d1680b42fcd00f4bef
:10228000144a5a601a0053785bb2002bfbdb0b4bed
:10229000114a5a80114a5a80114a5a80114a5a806a
:1022a000114b1f225a61da61104a1a627047203ab4
:1022b000c4e7c046000800400000ffcf000c00400b
:1022c0000106010001fa00002460800028608000ff
:1022d000dc05010400070100034000000f4000007e
:1022e00010400000144000000004004030080100cd
:020000040000fa
:1022f000f0b5060085b00f0015001c008b4265d8b4
:1023000001d1824262d82100280001f039fb390056
:102310000090300001f034fb009b21001b1a1a00d2
:102320002800039301f020fb00900191019bbb4228
:1023300046d802d1009bb34242d8009b019c039a2d
:1023400001200021f61aa74101f00efb039b002b90
:102350002fd0019b009adb0754081c43019b5d08aa
:10236000039b9c46bd422ed801d1b4422bd83200eb
:102370003b00121bab41012692185b410027b618a7
:102380005f4101235b429c446346002bead18019e4
:102390007941039a04000d003000390001f0d8faa9
:1023a000039a06000f0001f0dffa241a8d41200085
:1023b00029000a9b002b01d01e605f6005b0f0bdb4
:1023c00000200021c2e7b6197f41dae70020002192
:0223d000efe735
:020000040000fa
:0223d200704752
:020000040000fa
:1023d400f0b5de4657464e464546e0b587b0049014
:1023e400059101931300203b5e2b54d804ab1b785a
:1023f400190003931e002b4b1b888c466344802bcf
:1024040049dc04ab59780291264b5b888c466344c3
:10241400202b40dc002938dd203a4a4353009946fa
:102424000025204b9b469a4625e0019a53425a4187
:102434005b4659884919c9b218880019c0b200f01e
:10244400ebfe0134a6420fdd3b00a340424613429b
:10245400ebd0534659884919c9b218880019c0b23b
:10246400019a00f0d9feece7013502239c46e144d1
:10247400029bab4209dd059b4a469f5a002ef3ddc1
:10248400002480231b029846dee7064a138803993a
:102494008c466344138007b03cbc90469946a246e0
:0824a400ab46f0bda80c0020be
:020000040000fa
:1024ac00f7b5002858d00838436801221e0096431f
:1024bc0085192a680400934200d0ffde01276b685f
:1024cc00226813403b420ed1200001f05ff8002837
:1024dc0043d1280001f08af80028f0d06b68bb4388
:1024ec00f618ed18ebe73b003343636030002b60cc
:1024fc0000f06cff019001f0a1f96b6822681340a9
:10250c003b42e1d0184b019a1868596801f01afa4d
:10251c00384212d1019a0120002101f01ffa0b0060
:10252c00002804d0104a126802430f480260002ba6
:10253c0003d00d4a53680b435360019b0a4a013385
:10254c00db00d3181a005b68083a66602e60e36003
:10255c00a260d460e3689c60f7bd2368bb43e41ab7
:0c256c006368bb43f618b4e710040020bd
:020000040000fa
:10257800f0b54b6889b005930b6807009c46079334
:10258800cb680c008e68049310685168cd0f44d056
:102598000b000200002150429941059b002b08dbeb
:1025a8000222634693430793002d02d1079b5a07e3
:1025b8002ad5731e07aa02920a22009301920b00e1
:1025c8000200200000f09bf9002d02d1079b5a075a
:1025d8001ed501382d23002d00d1023b049a135437
:1025e80023695a1e049b121a1918079b3800009376
:1025f800330000f001fa7b68db0503d56368984275
:1026080000da180009b0f0bd1b07db0ff31ad1e799
:102618001b07e5d501382023e0e7059b002bbfda2f
:02262800c4e705
:020000040000fa
:10262a0030b5882933d015dc812941d003dc8029d3
:10263a003ed0002030bd822911d08429f9d11c68ee
:10264a0002cc1c60002a1ed009b20160c917416081
:10265a000120efe7a02923d00adc9029e9d1072439
:10266a0019680731a14330c9196004604560efe772
:10267a00c02901d0f029dcd11a68111d196013682c
:10268a000360002312e089b201604260e0e71c683f
:10269a0002cc1c60002a01d049b2d6e7c9b2f3e7de
:1026aa001a68111d196013680360db174360cfe7ce
:1026ba0019680c1d1c600b680360002ae5d0f4e75a
:020000040000fa
:0226ca00fee729
:020000040000fa
:1026cc00f8b507000d0001f0b5f9002837dd3c0026
:1026dc003f181b4e07e02b0030687168fff774fe43
:1026ec000134bc422bd02278572af4d0df211300be
:1026fc002d3b0b42efd01300493bdbb21a2b13d806
:10270c001049d940cb0708d50f492b0008684968f8
:10271c00fff75afee4e7202a0ad02b000b49086881
:10272c004968fff751fedbe77c2a01d03a2af2d147
:10273c002b00074908684968fff746fed0e7f8bd4b
:10274c00900c002001080004800c0020880c002054
:04275c00780c0020d5
:020000040000fa
:10276000f0b5de4657464e464546e0b583b0040018
:102770000d00904619000193171afa17bf18574019
:102780005b1bda179818504044459b4102221a40bf
:10279000934601235b429c46e3448d429b410222c7
:1027a0001a409246e24400903e1a0c9a404600f0cd
:1027b00035fd00984342994610e00c9a290020000c
:1027c00000f02cfd7300994503da009ab61a5c44b8
:1027d000e4b29f4202ddf6195544edb24445ecd116
:1027e000019b9d42e9d103b03cbc90469946a2466c
:0427f000ab46f0bd47
:020000040000fa
:1027f400f0b5c6461f4a204b00b50021934203d2d0
:10280400197001339342fbd10b231c4a9c46083bad
:1028140098461368546819000026214311d0170004
:1028240091680c3700290fd11a19002c03d01e709f
:1028340001339342fbd13a001368546819002143d1
:10284400edd104bc9046f0bd6146c91a1d1951185a
:10285400002c05d05a1c505c187013009542f9d115
:10286400434623405a1e9341a4081c19a4003f194f
:102874003a00e1e700000020000000200009000009
:020000040000fa
:10288400f0b51600050002278369426987b00293f8
:10289400d31a03939b1904910596019302ac3a0051
:1028a4002100286800f050ff019b984208d1ab68d2
:1028b400ea68ab619a18aa626b61300007b0f0bd98
:1028c40000280cda102200236968ab620a43ab616a
:1028d4006b616a60022f12d06368f61aede7019b00
:1028e4001b1a01936368984202d9c01a0834013f45
:1028f40023681b1823606368181a6060cfe71e0002
:02290400dbe70f
:020000040000fa
:10290600f0b5050085b019000c9b100001931a68fc
:102916002b696c68013bef681d00002c00da01246e
:102926000026fe540a9e0123361b029602261640f6
:102936000b9ad2170392002d04dc002b17d0280027
:1029460005b0f0bd02000a4307d1002c05dc029a4f
:102956001219002af1dd002eefd00b9a039b00f02e
:10296600dcfc013d130030327a55013ce3e71023cd
:0e297600019a12689a431300019a1360dfe77a
:020000040000fa
:10298400f8b5846a05000f001600002c0ad0ab6a63
:102994006a699b1ab3420cd2320039002800fff74f
:1029a4006fff05e000f0a0ff03002000002beed035
:1029b400f8bd002ef0d02b0034331b785bb2002b13
:1029c4001adb3400dbb2621eb95c994212d12200d8
:1029d40039002800fff754ffa042e9d33f19341b04
:1029e40022003900686901f010f86b6930001c1985
:0c29f4006c61dde7141ee6d13400f1e751
:020000040000fa
:102a0000f0b51e00012389b014000e9a07001a4089
:102a10000291019220d1b4421eda351b03952a009f
:102a2000102d00d91022202104a801f001f80f2d4b
:102a30001bdc0f22039b04a913401a00380000f08e
:102a400041fd019b002b04d122000299380000f0c7
:102a500039fd300009b0f0bd22000299380000f0c5
:102a600031fdb442d9db2600f3e7102204a9380077
:082a700000f028fd103ddae73b
:020000040000fa
:102a780030b51a4b1a4a1a60422203219954413a36
:102a880040315a5405315a5401315a5400214a20d0
:102a980019540130195403301954013019544d3860
:102aa8005424185504341a5501341a55023418554b
:102ab800273c33251d550834113d1d554434a025a8
:102ac8006d011d514a3419550134185501341955f1
:102ad800d1315a54dd32985430bdc04600440041cb
:042ae80004cc00001a
:020000040000fa
:102aec00f0b50b680c008f68cd68496887b006009c
:102afc000593002902db02218b43059305a953683a
:102b0c00126802910821009701912000fff7f5fe51
:102b1c00059bdb0602d5302301382b54059b1b0784
:102b2c0002d5202301382b54236929185a1e059be2
:102b3c00121a009330003b00fff75cff7368db0553
:0e2b4c0003d56368984200da180007b0f0bda8
:020000040000fa
:022b5a00fee794
:020000040000fa
:102b5c00164b01221a601a00138a1bb2002bfbdbe6
:102b6c00124b802252005a601a00138a1bb2002b9f
:102b7c00fbdb0e4be8225a810d4a1a601a00138aad
:102b8c001bb2002bfbdb094b10221a821a00138a92
:102b9c001bb2002bfbdb074b002221215a540139bd
:102bac005a54024b03325a737047c046001000420d
:082bbc0016003000480900205a
:020000040000fa
:102bc40010b584291fd007dc812915d0822922d091
:102bd400802911d0002010bd90291cd008dc882940
:102be400f8d119680c1d1c600b6803601a7010e0a2
:102bf400a02901d0c029edd119680c1d1c600b68f7
:102c040003601a6005e019680c1d1c600b68036002
:102c14001a800120dfe719680c1d1c600b68036033
:082c24001a60d2175a60f4e7b0
:020000040000fa
:102c2c007fb51600c2680d0013000091591e8b4130
:102c3c00f31a019383680400039269460222006828
:102c4c00029300f069fd002808dc182208230240da
:102c5c005340626813436360060010e0019b83429b
:102c6c00fad2a268c01ae3681018e2632064002b41
:102c7c0005d0531ce3631378ad19013d2b70300064
:042c8c0004b070bd63
:020000040000fa
:102c900037b504000d00002801d100203ebd436877
:102ca0009b0607d543698269934217d80023a36224
:102cb000a3616361e26b236c9a4206d20121d21aae
:102cc000d3170091206800f005ff00232364e3631d
:102cd0009d42e2d0206800f0edfedfe70022c36aeb
:102ce000110098476369002be0d101204042d5e7ed
:020000040000fa
:102cf00010b5134b00229a61da61124b03329a73ba
:102d00005a68114c22405a601a00138a1bb2002bd9
:102d1000fbdb00290ed00a4a20230324d4544000b0
:102d20000143c9b2074b19751a00138a1bb2002b55
:102d3000fbdb10bd024a20230424d454efe7c04635
:0c2d40004809002000100042fffffbffcc
:020000040000fa
:102d4c00aa1b0000aa1b0000321a00003e1a000049
:102d5c004a1a0000681a0000841a0000941a000035
:102d6c00a01a0000ac1a0000b61a0000c01a00002d
:102d7c00ca1a0000d41a0000de1a0000fe1a000065
:102d8c001e1b00003e1b0000641b0000aa1b000061
:0c2d9c00861b0000aa1b0000941b000016
:020000040000fa
:102da800dc0000001a010000760100004401000068
:102db800b40100009602000058030000a6030000ba
:102dc800f4030000b0040000fe0400004c050000fd
:102dd8009a050000e80500003606000076060000a7
:102de800b6060000f60600004e070000a607000021
:0c2df800f40700004208000090080000f2
:020000040000fa
:102e040000230e4a10b513600d4a13600d4a136077
:102e14000d4a13600d4a13600d4a53621361013366
:102e2400936000f013fe00f06cfd0a4c0a4b9c42c8
:102e340000d310bd08cc9847f8e7c046fc0c00202e
:102e44000409002000090020f8080020fc080020e4
:0c2e540008090020b0000000b4000000dd
:020000040000fa
:102e60002021222324242525262627272828282810
:102e7000292929292a2a2a2a2b2b2b2b2c2c2c2caa
:102e80002c2c2c2c2d2d2d2d2d2d2d2d2e2e2e2e72
:102e90002e2e2e2e2f2f2f2f2f2f2f2f00011702e8
:102ea0001d1813031e1b190b1408040d1f161c12ea
:0c2eb0001a0a070c1511090610050f0e78
:020000040000fa
:102ebc0070b504000d000020002c21d000f004fca3
:102ecc00002d18d000200f4a0421072605e0138b93
:102edc0023800234013085420ed0937b0b42fcd010
:102eec00138a334208d153683340012befd0138b34
:102efc0023700134eee72800281a45426841c0b21d
:082f0c0070bdc0460014004234
:020000040000fa
:102f1400f0b585b00400240a05002d0c07000390c9
:102f24000e00c0b2e4b2edb23f0e009123002a00bd
:102f340021000290fff712fc00963b002a002100ba
:102f44002800fff70bfc00963b00029a390028008a
:102f5400fff704fc00962300029802003900fff7f3
:062f6400fdfb05b0f0bd0d
:020000040000fa
:102f6a00f0b50b680c008f68cd68496887b0060019
:102f7a000593002902db02218b43059305a95368b7
:102f8a00126802910a21009701912000fff7b6fc0e
:102f9a00236929185a1e059b121a009330003b0018
:102faa00fff729fd7368db0503d56368984200dae9
:062fba00180007b0f0bd95
:020000040000fa
:102fc00010b5114b06225a60104b1b68186800217f
:102fd00000f014fd0e4b1b681868002100f00efd78
:102fe000fff74afdfff704f900f0baf900f046fddb
:102ff000fff7b4fdfff7edf900f080fa00f0ecf810
:1030000000f02ef910bdc046004000411c08002011
:043010009009002003
:020000040000fa
:10301400f0b50f0087b0039015001049072204a8eb
:103024001c0000f0f2fcbb687e6802933f68002d30
:1030340000d104ad002c03d1280000f0fffc0400f3
:10304400002e02dbb44200d934000097029b220018
:1030540029000398fff7d2fc07b0f0bdbc3a00008a
:020000040000fa
:1030640070b5040016001d00022a1cd043689b069c
:1030740019d4002908d1002d01d18025ed002800a4
:103084000830fef75fff010020236268a16013434c
:1030940063602300e5603433ff22012e00d10a224d
:1030a4001a70024be362002070bdc04685290000ff
:020000040000fa
:1030b40070b5c668856804000a00ae4211d10120cb
:1030c400002100f04ffcc043c943431c03d00b4b09
:1030d4001a68104018604b1c03d0084a5368194002
:1030e4005160012319006268b56011439a43ee6090
:1030f4006160a41822681343236070bd100400208b
:020000040000fa
:1031040010b5064c2378002b07d1054b002b02d0b9
:10311400044800e000bf0123237010bdb40900205f
:103124000000000000000000044b10b5002b03d089
:103134000349044800e000bf10bdc0460000000081
:08314400b809002000000000a2
:020000040000fa
:10314c0010b50a4b98470a4b9847fff74dfb094bb4
:10315c00ff229343084a9360084b9847084b9847c3
:10316c00084b9847fef7cafbfee7c0469b370000aa
:10317c009b3700000000000000ed00e0052e000071
:08318c009b3700009b37000097
:020000040000fa
:1031940030b5002818d0002918d00d4a012407257d
:1031a40004e003881383023000290bd00139937b98
:1031b4002342fcd053682b40012bf2d003781383b5
:1031c4000130f1e7012030bd0020fce70120fae7df
:0431d40000140042a1
:020000040000fa
:1031d8000e4b01221a801a00d37b5bb2002bfbdb5b
:1031e8000a4bec22d2001a80ea2252001a839a3a39
:1031f800ff3a9a73064a0021116001225a731a0095
:10320800d37b5bb2002bfbdb7047c046002c00422f
:04321800700c002016
:020000040000fa
:10321c0010b543b2002b0edb1f290cd8002a0bd1a2
:10322c00cb08db0118180a4a07231940063b8b40d0
:10323c00115c0b43135410bdcb08db011818044c64
:10324c000723194001228a40235c93432354f2e75d
:04325c001806002030
:020000040000fa
:10326000bff35f8f62b60c4bc22080001a580b4927
:103270001140c02212020a431a50802292001a60a2
:10328000c42189005a58ff2082433f3802435a50d4
:10329000802252021a60704700e100e0ff00ffff49
:020000040000fa
:1032a000030010b51a78202a0dd01100093904291d
:1032b00009d900212b2a02d02d2a01d10131013355
:1032c00000200a2404e00133ece760430133801a54
:1032d0001a78303a092af8d9002900d1404210bda5
:020000040000fa
:1032e0000c4a036810b5546a0b4a591e121b9142ce
:1032f0000bd9002b05d00c220120084b40421a604c
:1033000010bd102202600020fae70f22173393430a
:103310000360f8e708090020efffff7f000d0020a1
:020000040000fa
:10332000002b11d1002a0fd1002900d1002802d092
:103330000021c943081c07b4024802a140180290aa
:1033400003bdc0468d07000003b4684601b502986e
:10335000fef7ceff019b9e4602b00cbc7047c046f4
:020000040000fa
:103360000b4b0c4a1a600c4a5a81c02292025a60d6
:103370001a00138a1bb2002bfbdb054a13680221db
:103380000b431360138a1bb2002bfbdb7047c04654
:0c33900000140042040131402bf6ffff46
:020000040000fa
:10339c00636f756e74657231306d733a2025640df0
:1033ac000a000000636f756e7465723130306d7396
:1033bc003a2025640d0a0000636f756e74657231d6
:0c33cc00733a2025640d0a0d0a00c0466b
:020000040000fa
:1033d8000309013b1800202b07d90a4a934205d854
:1033e8000948db08c318043b18787047e0223f20df
:1033f80052019342f9d80448db09c318043b1878f2
:0c3408001030f2e7ff010000602e000011
:020000040000fa
:103414001c2101231b04984201d3000c10391b0a00
:10342400984201d3000a08391b09984201d30009c4
:10343400043902a2105c40187047c046040302021b
:0c34440001010101000000000000000078
:020000040000fa
:1034500070b50c1e0ed0002a0cd01500022801d920
:10346000280070bd084b002b06d01100200000e0a2
:1034700000bff5e70025f3e78e182078013400f04f
:0c3480000efab442f9d1ebe700000000a6
:020000040000fa
:10348c0070b50c4d20242d5d0024002d01d02000a2
:10349c0070bd084ca080e360049b6361a160226155
:1034ac000023a37023702122a3540021fff71afce0
:0834bc000124ece7480900209f
:020000040000fa
:1034c400436870b50400d80510d52569954200d924
:1034d40015002a00606900f098fa226963695b1993
:1034e400551b0022636125611a7070bddb06fcd494
:0834f400200000f065faf8e782
:020000040000fa
:1034fc000b4a137801210b43137053785bb2002bea
:10350c00fbdb074b00229a61da611a7802210a432d
:10351c001a701a0053785bb2002bfbdb7047c04665
:04352c000018004043
:020000040000fa
:1035300010b50b4c2023e45c0023002c01d01800b4
:1035400010bd074b9880dc605c6199601a619c70cb
:103550001c7021229c540021fff7cafb0123eee7d7
:0435600048090020f6
:020000040000fa
:10356400f0b5050000200a4c4200165d002e02d181
:10357400a2185078f0bd296801300f78c0b2b74264
:1035840003d1a2180131507829600a28ecd9f1e757
:043594006838000093
:020000040000fa
:10359800f8b5050001262c68344201d000200ee061
:1035a8002000fff715ff070000f04af92868a0423d
:1035b800f1d1b043281a3900fff778fd0120f8bd92
:020000040000fa
:1035c800084a1368002b09d007491818884202d8fe
:1035d80010601800704701235b42fae7034b136041
:1035e800f2e7c046040d0020100f0020100d002047
:020000040000fa
:1035f800f8b5050001276c683c4201d000200de0b9
:103608002000fff7e5fe060000f01af96b68a342f8
:0e361800f1d128003100fff749fd0120f8bd77
:020000040000fa
:02362600fee7bd
:020000040000fa
:10362800c61d0000f61d0000301e0000681e0000c8
:10363800921e0000d01e0000f01e0000c21d0000f7
:0c364800c21d0000141f00001e1f000027
:020000040000fa
:1036540070b500290fd0002a0dd01500002808d11c
:103664000c008e18012000f00bf920700134b442d4
:0c367400f8d1280070bd0025fbe7c0461f
:020000040000fa
:10368000002380290fdb812901dd83290bd107214c
:10369000136807338b431900083111601a685b689f
:0a36a0000260436001231800704728
:020000040000fa
:1036aa00020000234832d356591e0b4313700423d9
:1036ba004268134005d0102313434360012040425f
:0a36ca0070470364c3631800fae7b9
:020000040000fa
:1036d400084b1b8a5b070bd0064b07221a829b7b85
:1036e4005b0705d5034b04211a8b9a7b0a42fbd155
:0836f4007047c04600140042bb
:020000040000fa
:1036fc0070b5084c80239b00e51802e00134a5420c
:10370c0006d021784420fef74bfb0028f9d0f5e7d2
:08371c0070bdc0461806002034
:020000040000fa
:10372400f7b5002507000c002e000192019b9e4274
:1037340001db2800febd626821683800fff788ffbe
:0837440001362d180834f1e7ed
:020000040000fa
:10374c00f7b5002507000c002e000192019b9e424c
:10375c0001db2800febd626821683800fff772fead
:08376c0001362d180834f1e7c5
:020000040000fa
:10377400012370b544689c43651a102d0ad9421878
:1037840019432b4311605360083203514160100008
:06379400fef78afe70bd85
:020000040000fa
:02379a00704776
:020000040000fa
:10379c0010b5064b987bc0b23b229a73044b1b6846
:1037ac00002b02d0024a5168984710bd002c0042f1
:0437bc00700c00206d
:020000040000fa
:1037c000064a136801331360054b8022d200da6188
:1037d0009c215a505201da617047c046c40c002047
:0437e0000044004160
:020000040000fa
:1037e400d501a81fd30040ad8ed8052002a1c8daa8
:1037f40010913f3f3f3f81bf82bfd9d2d808a4a6d2
:04380400af00c0460b
:020000040000fa
:1038080010b5040000f008f9002804d1002c01d0fc
:103818000123237010bd002cfcd002232370f9e78c
:020000040000fa
:103828000fb407b5054b04aa1b6802ca18680192b1
:1038380000f07ef803b008bc04b0184790090020d7
:020000040000fa
:10384800064b0130c000c258002a05d10200083ad0
:10385800d21819184a60c2507047c0461004002098
:020000040000fa
:1038680068076c094c836a9074a07ac000806888e5
:0c38780000846c820081286e696c2900bd
:020000040000fa
:1038840000b583b000230193012101a8fff714fbc5
:0a3894000028f9d0019803b000bd30
:020000040000fa
:10389e0000b583b06b46d87101216b46d81dfff77a
:0a38ae0072fc0028f8d003b000bd42
:020000040000fa
:1038b80070b505000c00222000f08af8280000f0fe
:0a38c80087f8200000f084f870bdbe
:020000040000fa
:1038d20070b505000c00212000f07df8280000f0f2
:0a38e2007af8200000f077f870bdbe
:020000040000fa
:1038ec0010b50400fff7dbfe002805d1a368e268e1
:0a38fc00a36163619b18a36210bd75
:020000040000fa
:02390600704708
:020000040000fa
:10390800044a138802210b431380d37b5bb2002b3c
:08391800fbdb7047002c0042ac
:020000040000fa
:10392000044b80229200991800221a7001338b42b6
:08393000fbd1704718060020ce
:020000040000fa
:1039380013b50400019201aafdf750fe6368db0687
:0839480001d50120404216bd2b
:020000040000fa
:10395000d0400b1cd1409c46203ad34018435242e1
:1039600063469340184370479140031c90409c4627
:10397000203a9340194352426346d340194370475b
:1039800010b5002903d1fff745fd203002e0081ce7
:08399000fff740fd10bdc04629
:020000040000fa
:10399800006810b5002801da002010bdfff710fefe
:0639a800431cfad1f8e710
:020000040000fa
:0239ae00704760
:020000040000fa
:1039b00010b500f07bf8024b1860586010bdc0468f
:0439c000a00c002037
:020000040000fa
:1039c400c36a10b5002b01d0984710bd0068fff7fb
:0439d4003dfdfae7d4
:020000040000fa
:1039d80010b5040021004320fef7e4f90028f9d0cf
:0239e80010bd10
:020000040000fa
:1039ea0010b504002020fff7f2ff2000fff7efffd9
:0239fa0010bdfe
:020000040000fa
:1039fc004a424a41802310b55200db00fff72cfbf2
:023a0c0010bdeb
:020000040000fa
:103a0e00002310b59a4200d110bdcc5cc4540133d2
:023a1e00f8e7c7
:020000040000fa
:103a2000024a2123d05cc0b27047c046480900203a
:020000040000fa
:103a300003001218934200d1704719700133f9e75f
:020000040000fa
:103a400003001a78002a01d1181a70470133f8e7e9
:020000040000fa
:103a500010b5fff7adfffff7aafffff7a8ff10bdf6
:020000040000fa
:0e3a60000300413b192b01d820231843704767
:020000040000fa
:0e3a6e000300613b192b01d85f2318407047fd
:020000040000fa
:0c3a7c00014b82225a607047004000415c
:020000040000fa
:0c3a8800014b5862996270474809002009
:020000040000fa
:0c3a9400014b186059607047700c002056
:020000040000fa
:0a3aa00010b50068fff7d4fc10bd5c
:020000040000fa
:023aaa00704763
:020000040000fa
:083aac0000487047900800205b
:020000040000fa
:083ab400012040427047c046aa
:020000040000fa
:073abc00286e756c6c2900f7
:020000040000fa
:063ac40000200021704704
:020000040000fa
:043aca000020704721
:020000040000fa
:043ad0007047c04635
:020000040000fa
:043ad4000020704717
:020000040000fa
:0200000400807a
:0440000077c700d8a6
:020000040000fa
:0200000400807a
:044004005c01ffff5d
:00000001FF
